{
  "_format": "hh-sol-artifact-1",
  "contractName": "LuckyNFT",
  "sourceName": "src/backend/contracts/LuckyNFT.sol",
  "abi": [
    {
      "inputs": [
        {
          "internalType": "address",
          "name": "_payToken",
          "type": "address"
        },
        {
          "internalType": "uint256",
          "name": "_maxMintAmount",
          "type": "uint256"
        },
        {
          "internalType": "address",
          "name": "_royaltyAddr",
          "type": "address"
        },
        {
          "internalType": "address",
          "name": "_fundsAddr",
          "type": "address"
        }
      ],
      "stateMutability": "nonpayable",
      "type": "constructor"
    },
    {
      "anonymous": false,
      "inputs": [
        {
          "indexed": true,
          "internalType": "address",
          "name": "owner",
          "type": "address"
        },
        {
          "indexed": true,
          "internalType": "address",
          "name": "approved",
          "type": "address"
        },
        {
          "indexed": true,
          "internalType": "uint256",
          "name": "tokenId",
          "type": "uint256"
        }
      ],
      "name": "Approval",
      "type": "event"
    },
    {
      "anonymous": false,
      "inputs": [
        {
          "indexed": true,
          "internalType": "address",
          "name": "owner",
          "type": "address"
        },
        {
          "indexed": true,
          "internalType": "address",
          "name": "operator",
          "type": "address"
        },
        {
          "indexed": false,
          "internalType": "bool",
          "name": "approved",
          "type": "bool"
        }
      ],
      "name": "ApprovalForAll",
      "type": "event"
    },
    {
      "anonymous": false,
      "inputs": [
        {
          "indexed": true,
          "internalType": "address",
          "name": "previousOwner",
          "type": "address"
        },
        {
          "indexed": true,
          "internalType": "address",
          "name": "newOwner",
          "type": "address"
        }
      ],
      "name": "OwnershipTransferred",
      "type": "event"
    },
    {
      "anonymous": false,
      "inputs": [
        {
          "indexed": true,
          "internalType": "address",
          "name": "from",
          "type": "address"
        },
        {
          "indexed": true,
          "internalType": "address",
          "name": "to",
          "type": "address"
        },
        {
          "indexed": true,
          "internalType": "uint256",
          "name": "tokenId",
          "type": "uint256"
        }
      ],
      "name": "Transfer",
      "type": "event"
    },
    {
      "inputs": [
        {
          "internalType": "address",
          "name": "to",
          "type": "address"
        },
        {
          "internalType": "uint256",
          "name": "tokenId",
          "type": "uint256"
        }
      ],
      "name": "approve",
      "outputs": [],
      "stateMutability": "nonpayable",
      "type": "function"
    },
    {
      "inputs": [
        {
          "internalType": "address",
          "name": "owner",
          "type": "address"
        }
      ],
      "name": "balanceOf",
      "outputs": [
        {
          "internalType": "uint256",
          "name": "",
          "type": "uint256"
        }
      ],
      "stateMutability": "view",
      "type": "function"
    },
    {
      "inputs": [
        {
          "internalType": "uint256",
          "name": "tokenId",
          "type": "uint256"
        }
      ],
      "name": "getApproved",
      "outputs": [
        {
          "internalType": "address",
          "name": "",
          "type": "address"
        }
      ],
      "stateMutability": "view",
      "type": "function"
    },
    {
      "inputs": [
        {
          "internalType": "address",
          "name": "owner",
          "type": "address"
        },
        {
          "internalType": "address",
          "name": "operator",
          "type": "address"
        }
      ],
      "name": "isApprovedForAll",
      "outputs": [
        {
          "internalType": "bool",
          "name": "",
          "type": "bool"
        }
      ],
      "stateMutability": "view",
      "type": "function"
    },
    {
      "inputs": [
        {
          "internalType": "uint256",
          "name": "_mintAmount",
          "type": "uint256"
        }
      ],
      "name": "mint",
      "outputs": [],
      "stateMutability": "payable",
      "type": "function"
    },
    {
      "inputs": [],
      "name": "mintPrice",
      "outputs": [
        {
          "internalType": "uint256",
          "name": "",
          "type": "uint256"
        }
      ],
      "stateMutability": "view",
      "type": "function"
    },
    {
      "inputs": [],
      "name": "name",
      "outputs": [
        {
          "internalType": "string",
          "name": "",
          "type": "string"
        }
      ],
      "stateMutability": "view",
      "type": "function"
    },
    {
      "inputs": [],
      "name": "owner",
      "outputs": [
        {
          "internalType": "address",
          "name": "",
          "type": "address"
        }
      ],
      "stateMutability": "view",
      "type": "function"
    },
    {
      "inputs": [
        {
          "internalType": "uint256",
          "name": "tokenId",
          "type": "uint256"
        }
      ],
      "name": "ownerOf",
      "outputs": [
        {
          "internalType": "address",
          "name": "",
          "type": "address"
        }
      ],
      "stateMutability": "view",
      "type": "function"
    },
    {
      "inputs": [],
      "name": "payToken",
      "outputs": [
        {
          "internalType": "contract IERC20",
          "name": "",
          "type": "address"
        }
      ],
      "stateMutability": "view",
      "type": "function"
    },
    {
      "inputs": [],
      "name": "renounceOwnership",
      "outputs": [],
      "stateMutability": "nonpayable",
      "type": "function"
    },
    {
      "inputs": [
        {
          "internalType": "address",
          "name": "from",
          "type": "address"
        },
        {
          "internalType": "address",
          "name": "to",
          "type": "address"
        },
        {
          "internalType": "uint256",
          "name": "tokenId",
          "type": "uint256"
        }
      ],
      "name": "safeTransferFrom",
      "outputs": [],
      "stateMutability": "nonpayable",
      "type": "function"
    },
    {
      "inputs": [
        {
          "internalType": "address",
          "name": "from",
          "type": "address"
        },
        {
          "internalType": "address",
          "name": "to",
          "type": "address"
        },
        {
          "internalType": "uint256",
          "name": "tokenId",
          "type": "uint256"
        },
        {
          "internalType": "bytes",
          "name": "_data",
          "type": "bytes"
        }
      ],
      "name": "safeTransferFrom",
      "outputs": [],
      "stateMutability": "nonpayable",
      "type": "function"
    },
    {
      "inputs": [
        {
          "internalType": "address",
          "name": "operator",
          "type": "address"
        },
        {
          "internalType": "bool",
          "name": "approved",
          "type": "bool"
        }
      ],
      "name": "setApprovalForAll",
      "outputs": [],
      "stateMutability": "nonpayable",
      "type": "function"
    },
    {
      "inputs": [
        {
          "internalType": "uint256",
          "name": "_price",
          "type": "uint256"
        }
      ],
      "name": "setPrice",
      "outputs": [],
      "stateMutability": "nonpayable",
      "type": "function"
    },
    {
      "inputs": [
        {
          "internalType": "bytes4",
          "name": "interfaceId",
          "type": "bytes4"
        }
      ],
      "name": "supportsInterface",
      "outputs": [
        {
          "internalType": "bool",
          "name": "",
          "type": "bool"
        }
      ],
      "stateMutability": "view",
      "type": "function"
    },
    {
      "inputs": [],
      "name": "symbol",
      "outputs": [
        {
          "internalType": "string",
          "name": "",
          "type": "string"
        }
      ],
      "stateMutability": "view",
      "type": "function"
    },
    {
      "inputs": [],
      "name": "tokenCount",
      "outputs": [
        {
          "internalType": "uint256",
          "name": "",
          "type": "uint256"
        }
      ],
      "stateMutability": "view",
      "type": "function"
    },
    {
      "inputs": [],
      "name": "tokenSupply",
      "outputs": [
        {
          "internalType": "uint256",
          "name": "",
          "type": "uint256"
        }
      ],
      "stateMutability": "view",
      "type": "function"
    },
    {
      "inputs": [
        {
          "internalType": "uint256",
          "name": "tokenId",
          "type": "uint256"
        }
      ],
      "name": "tokenURI",
      "outputs": [
        {
          "internalType": "string",
          "name": "",
          "type": "string"
        }
      ],
      "stateMutability": "view",
      "type": "function"
    },
    {
      "inputs": [
        {
          "internalType": "address",
          "name": "from",
          "type": "address"
        },
        {
          "internalType": "address",
          "name": "to",
          "type": "address"
        },
        {
          "internalType": "uint256",
          "name": "tokenId",
          "type": "uint256"
        }
      ],
      "name": "transferFrom",
      "outputs": [],
      "stateMutability": "nonpayable",
      "type": "function"
    },
    {
      "inputs": [
        {
          "internalType": "address",
          "name": "newOwner",
          "type": "address"
        }
      ],
      "name": "transferOwnership",
      "outputs": [],
      "stateMutability": "nonpayable",
      "type": "function"
    }
  ],
  "bytecode": "0x60806040523480156200001157600080fd5b5060405162003e4a38038062003e4a833981810160405281019062000037919062000388565b6040518060400160405280600581526020017f4c55434b590000000000000000000000000000000000000000000000000000008152506040518060400160405280600581526020017f4c55434b590000000000000000000000000000000000000000000000000000008152508160009080519060200190620000bb929190620002aa565b508060019080519060200190620000d4929190620002aa565b505050620000f7620000eb620001dc60201b60201c565b620001e460201b60201c565b600060098190555083600860006101000a81548173ffffffffffffffffffffffffffffffffffffffff021916908373ffffffffffffffffffffffffffffffffffffffff16021790555082600c8190555081600d60006101000a81548173ffffffffffffffffffffffffffffffffffffffff021916908373ffffffffffffffffffffffffffffffffffffffff16021790555080600e60006101000a81548173ffffffffffffffffffffffffffffffffffffffff021916908373ffffffffffffffffffffffffffffffffffffffff160217905550612710600a8190555050505050620004cb565b600033905090565b6000600760009054906101000a900473ffffffffffffffffffffffffffffffffffffffff16905081600760006101000a81548173ffffffffffffffffffffffffffffffffffffffff021916908373ffffffffffffffffffffffffffffffffffffffff1602179055508173ffffffffffffffffffffffffffffffffffffffff168173ffffffffffffffffffffffffffffffffffffffff167f8be0079c531659141344cd1fd0a4f28419497f9722a3daafe3b4186f6b6457e060405160405180910390a35050565b828054620002b89062000432565b90600052602060002090601f016020900481019282620002dc576000855562000328565b82601f10620002f757805160ff191683800117855562000328565b8280016001018555821562000328579182015b82811115620003275782518255916020019190600101906200030a565b5b5090506200033791906200033b565b5090565b5b80821115620003565760008160009055506001016200033c565b5090565b6000815190506200036b8162000497565b92915050565b6000815190506200038281620004b1565b92915050565b600080600080608085870312156200039f57600080fd5b6000620003af878288016200035a565b9450506020620003c28782880162000371565b9350506040620003d5878288016200035a565b9250506060620003e8878288016200035a565b91505092959194509250565b6000620004018262000408565b9050919050565b600073ffffffffffffffffffffffffffffffffffffffff82169050919050565b6000819050919050565b600060028204905060018216806200044b57607f821691505b6020821081141562000462576200046162000468565b5b50919050565b7f4e487b7100000000000000000000000000000000000000000000000000000000600052602260045260246000fd5b620004a281620003f4565b8114620004ae57600080fd5b50565b620004bc8162000428565b8114620004c857600080fd5b50565b61396f80620004db6000396000f3fe6080604052600436106101355760003560e01c80638da5cb5b116100ab578063a0712d681161006f578063a0712d6814610416578063a22cb46514610432578063b88d4fde1461045b578063c87b56dd14610484578063e985e9c5146104c1578063f2fde38b146104fe57610135565b80638da5cb5b1461034157806391b7f5ed1461036c57806395d89b411461039557806396336b30146103c05780639f181b5e146103eb57610135565b806342842e0e116100fd57806342842e0e146102315780636352211e1461025a5780636817c76c1461029757806370a08231146102c2578063715018a6146102ff5780637824407f1461031657610135565b806301ffc9a71461013a57806306fdde0314610177578063081812fc146101a2578063095ea7b3146101df57806323b872dd14610208575b600080fd5b34801561014657600080fd5b50610161600480360381019061015c9190612511565b610527565b60405161016e9190612af4565b60405180910390f35b34801561018357600080fd5b5061018c610609565b6040516101999190612b2a565b60405180910390f35b3480156101ae57600080fd5b506101c960048036038101906101c49190612563565b61069b565b6040516101d69190612a2d565b60405180910390f35b3480156101eb57600080fd5b50610206600480360381019061020191906124ac565b610720565b005b34801561021457600080fd5b5061022f600480360381019061022a91906123a6565b610838565b005b34801561023d57600080fd5b50610258600480360381019061025391906123a6565b610898565b005b34801561026657600080fd5b50610281600480360381019061027c9190612563565b6108b8565b60405161028e9190612a2d565b60405180910390f35b3480156102a357600080fd5b506102ac61096a565b6040516102b99190612e0c565b60405180910390f35b3480156102ce57600080fd5b506102e960048036038101906102e49190612341565b610970565b6040516102f69190612e0c565b60405180910390f35b34801561030b57600080fd5b50610314610a28565b005b34801561032257600080fd5b5061032b610ab0565b6040516103389190612e0c565b60405180910390f35b34801561034d57600080fd5b50610356610ab6565b6040516103639190612a2d565b60405180910390f35b34801561037857600080fd5b50610393600480360381019061038e9190612563565b610ae0565b005b3480156103a157600080fd5b506103aa610b66565b6040516103b79190612b2a565b60405180910390f35b3480156103cc57600080fd5b506103d5610bf8565b6040516103e29190612b0f565b60405180910390f35b3480156103f757600080fd5b50610400610c1e565b60405161040d9190612e0c565b60405180910390f35b610430600480360381019061042b9190612563565b610c24565b005b34801561043e57600080fd5b5061045960048036038101906104549190612470565b610fda565b005b34801561046757600080fd5b50610482600480360381019061047d91906123f5565b610ff0565b005b34801561049057600080fd5b506104ab60048036038101906104a69190612563565b611052565b6040516104b89190612b2a565b60405180910390f35b3480156104cd57600080fd5b506104e860048036038101906104e3919061236a565b611064565b6040516104f59190612af4565b60405180910390f35b34801561050a57600080fd5b5061052560048036038101906105209190612341565b6110f8565b005b60007f80ac58cd000000000000000000000000000000000000000000000000000000007bffffffffffffffffffffffffffffffffffffffffffffffffffffffff1916827bffffffffffffffffffffffffffffffffffffffffffffffffffffffff191614806105f257507f5b5e139f000000000000000000000000000000000000000000000000000000007bffffffffffffffffffffffffffffffffffffffffffffffffffffffff1916827bffffffffffffffffffffffffffffffffffffffffffffffffffffffff1916145b806106025750610601826111f0565b5b9050919050565b606060008054610618906130af565b80601f0160208091040260200160405190810160405280929190818152602001828054610644906130af565b80156106915780601f1061066657610100808354040283529160200191610691565b820191906000526020600020905b81548152906001019060200180831161067457829003601f168201915b5050505050905090565b60006106a68261125a565b6106e5576040517f08c379a00000000000000000000000000000000000000000000000000000000081526004016106dc90612d4c565b60405180910390fd5b6004600083815260200190815260200160002060009054906101000a900473ffffffffffffffffffffffffffffffffffffffff169050919050565b600061072b826108b8565b90508073ffffffffffffffffffffffffffffffffffffffff168373ffffffffffffffffffffffffffffffffffffffff16141561079c576040517f08c379a000000000000000000000000000000000000000000000000000000000815260040161079390612dac565b60405180910390fd5b8073ffffffffffffffffffffffffffffffffffffffff166107bb6112c6565b73ffffffffffffffffffffffffffffffffffffffff1614806107ea57506107e9816107e46112c6565b611064565b5b610829576040517f08c379a000000000000000000000000000000000000000000000000000000000815260040161082090612c6c565b60405180910390fd5b61083383836112ce565b505050565b6108496108436112c6565b82611387565b610888576040517f08c379a000000000000000000000000000000000000000000000000000000000815260040161087f90612dcc565b60405180910390fd5b610893838383611465565b505050565b6108b383838360405180602001604052806000815250610ff0565b505050565b6000806002600084815260200190815260200160002060009054906101000a900473ffffffffffffffffffffffffffffffffffffffff169050600073ffffffffffffffffffffffffffffffffffffffff168173ffffffffffffffffffffffffffffffffffffffff161415610961576040517f08c379a000000000000000000000000000000000000000000000000000000000815260040161095890612cac565b60405180910390fd5b80915050919050565b600b5481565b60008073ffffffffffffffffffffffffffffffffffffffff168273ffffffffffffffffffffffffffffffffffffffff1614156109e1576040517f08c379a00000000000000000000000000000000000000000000000000000000081526004016109d890612c8c565b60405180910390fd5b600360008373ffffffffffffffffffffffffffffffffffffffff1673ffffffffffffffffffffffffffffffffffffffff168152602001908152602001600020549050919050565b610a306112c6565b73ffffffffffffffffffffffffffffffffffffffff16610a4e610ab6565b73ffffffffffffffffffffffffffffffffffffffff1614610aa4576040517f08c379a0000000000000000000000000000000000000000000000000000000008152600401610a9b90612d6c565b60405180910390fd5b610aae60006116cc565b565b600a5481565b6000600760009054906101000a900473ffffffffffffffffffffffffffffffffffffffff16905090565b610ae86112c6565b73ffffffffffffffffffffffffffffffffffffffff16610b06610ab6565b73ffffffffffffffffffffffffffffffffffffffff1614610b5c576040517f08c379a0000000000000000000000000000000000000000000000000000000008152600401610b5390612d6c565b60405180910390fd5b80600b8190555050565b606060018054610b75906130af565b80601f0160208091040260200160405190810160405280929190818152602001828054610ba1906130af565b8015610bee5780601f10610bc357610100808354040283529160200191610bee565b820191906000526020600020905b815481529060010190602001808311610bd157829003601f168201915b5050505050905090565b600860009054906101000a900473ffffffffffffffffffffffffffffffffffffffff1681565b60095481565b6004811115610c68576040517f08c379a0000000000000000000000000000000000000000000000000000000008152600401610c5f90612d2c565b60405180910390fd5b600a5481600954610c799190612ec0565b10610cb9576040517f08c379a0000000000000000000000000000000000000000000000000000000008152600401610cb090612b4c565b60405180910390fd5b80600b54610cc79190612f47565b600860009054906101000a900473ffffffffffffffffffffffffffffffffffffffff1673ffffffffffffffffffffffffffffffffffffffff1663dd62ed3e33306040518363ffffffff1660e01b8152600401610d24929190612a48565b60206040518083038186803b158015610d3c57600080fd5b505afa158015610d50573d6000803e3d6000fd5b505050506040513d601f19601f82011682018060405250810190610d74919061258c565b11610db4576040517f08c379a0000000000000000000000000000000000000000000000000000000008152600401610dab90612bec565b60405180910390fd5b80600b54610dc29190612f47565b600860009054906101000a900473ffffffffffffffffffffffffffffffffffffffff1673ffffffffffffffffffffffffffffffffffffffff1663dd62ed3e33306040518363ffffffff1660e01b8152600401610e1f929190612a48565b60206040518083038186803b158015610e3757600080fd5b505afa158015610e4b573d6000803e3d6000fd5b505050506040513d601f19601f82011682018060405250810190610e6f919061258c565b11610eaf576040517f08c379a0000000000000000000000000000000000000000000000000000000008152600401610ea690612dec565b60405180910390fd5b6000600190505b818111610fd657600860009054906101000a900473ffffffffffffffffffffffffffffffffffffffff1673ffffffffffffffffffffffffffffffffffffffff166323b872dd3330600b546040518463ffffffff1660e01b8152600401610f1e93929190612a71565b602060405180830381600087803b158015610f3857600080fd5b505af1158015610f4c573d6000803e3d6000fd5b505050506040513d601f19601f82011682018060405250810190610f7091906124e8565b50610f883382600954610f839190612ec0565b611792565b6000610f956009546117b0565b604051602001610fa59190612a00565b6040516020818303038152906040529050610fc26009548261195d565b508080610fce90613112565b915050610eb6565b5050565b610fec610fe56112c6565b83836119d1565b5050565b611001610ffb6112c6565b83611387565b611040576040517f08c379a000000000000000000000000000000000000000000000000000000000815260040161103790612dcc565b60405180910390fd5b61104c84848484611b3e565b50505050565b606061105d82611b9a565b9050919050565b6000600560008473ffffffffffffffffffffffffffffffffffffffff1673ffffffffffffffffffffffffffffffffffffffff16815260200190815260200160002060008373ffffffffffffffffffffffffffffffffffffffff1673ffffffffffffffffffffffffffffffffffffffff16815260200190815260200160002060009054906101000a900460ff16905092915050565b6111006112c6565b73ffffffffffffffffffffffffffffffffffffffff1661111e610ab6565b73ffffffffffffffffffffffffffffffffffffffff1614611174576040517f08c379a000000000000000000000000000000000000000000000000000000000815260040161116b90612d6c565b60405180910390fd5b600073ffffffffffffffffffffffffffffffffffffffff168173ffffffffffffffffffffffffffffffffffffffff1614156111e4576040517f08c379a00000000000000000000000000000000000000000000000000000000081526004016111db90612b8c565b60405180910390fd5b6111ed816116cc565b50565b60007f01ffc9a7000000000000000000000000000000000000000000000000000000007bffffffffffffffffffffffffffffffffffffffffffffffffffffffff1916827bffffffffffffffffffffffffffffffffffffffffffffffffffffffff1916149050919050565b60008073ffffffffffffffffffffffffffffffffffffffff166002600084815260200190815260200160002060009054906101000a900473ffffffffffffffffffffffffffffffffffffffff1673ffffffffffffffffffffffffffffffffffffffff1614159050919050565b600033905090565b816004600083815260200190815260200160002060006101000a81548173ffffffffffffffffffffffffffffffffffffffff021916908373ffffffffffffffffffffffffffffffffffffffff160217905550808273ffffffffffffffffffffffffffffffffffffffff16611341836108b8565b73ffffffffffffffffffffffffffffffffffffffff167f8c5be1e5ebec7d5bd14f71427d1e84f3dd0314c0f7b2291e5b200ac8c7c3b92560405160405180910390a45050565b60006113928261125a565b6113d1576040517f08c379a00000000000000000000000000000000000000000000000000000000081526004016113c890612c4c565b60405180910390fd5b60006113dc836108b8565b90508073ffffffffffffffffffffffffffffffffffffffff168473ffffffffffffffffffffffffffffffffffffffff16148061144b57508373ffffffffffffffffffffffffffffffffffffffff166114338461069b565b73ffffffffffffffffffffffffffffffffffffffff16145b8061145c575061145b8185611064565b5b91505092915050565b8273ffffffffffffffffffffffffffffffffffffffff16611485826108b8565b73ffffffffffffffffffffffffffffffffffffffff16146114db576040517f08c379a00000000000000000000000000000000000000000000000000000000081526004016114d290612bac565b60405180910390fd5b600073ffffffffffffffffffffffffffffffffffffffff168273ffffffffffffffffffffffffffffffffffffffff16141561154b576040517f08c379a000000000000000000000000000000000000000000000000000000000815260040161154290612c0c565b60405180910390fd5b611556838383611cec565b6115616000826112ce565b6001600360008573ffffffffffffffffffffffffffffffffffffffff1673ffffffffffffffffffffffffffffffffffffffff16815260200190815260200160002060008282546115b19190612fa1565b925050819055506001600360008473ffffffffffffffffffffffffffffffffffffffff1673ffffffffffffffffffffffffffffffffffffffff16815260200190815260200160002060008282546116089190612ec0565b92505081905550816002600083815260200190815260200160002060006101000a81548173ffffffffffffffffffffffffffffffffffffffff021916908373ffffffffffffffffffffffffffffffffffffffff160217905550808273ffffffffffffffffffffffffffffffffffffffff168473ffffffffffffffffffffffffffffffffffffffff167fddf252ad1be2c89b69c2b068fc378daa952ba7f163c4a11628f55a4df523b3ef60405160405180910390a46116c7838383611cf1565b505050565b6000600760009054906101000a900473ffffffffffffffffffffffffffffffffffffffff16905081600760006101000a81548173ffffffffffffffffffffffffffffffffffffffff021916908373ffffffffffffffffffffffffffffffffffffffff1602179055508173ffffffffffffffffffffffffffffffffffffffff168173ffffffffffffffffffffffffffffffffffffffff167f8be0079c531659141344cd1fd0a4f28419497f9722a3daafe3b4186f6b6457e060405160405180910390a35050565b6117ac828260405180602001604052806000815250611cf6565b5050565b606060008214156117f8576040518060400160405280600181526020017f30000000000000000000000000000000000000000000000000000000000000008152509050611958565b600082905060005b6000821461182a57808061181390613112565b915050600a826118239190612f16565b9150611800565b60008167ffffffffffffffff81111561186c577f4e487b7100000000000000000000000000000000000000000000000000000000600052604160045260246000fd5b6040519080825280601f01601f19166020018201604052801561189e5781602001600182028036833780820191505090505b5090505b60008514611951576001826118b79190612fa1565b9150600a856118c6919061315b565b60306118d29190612ec0565b60f81b81838151811061190e577f4e487b7100000000000000000000000000000000000000000000000000000000600052603260045260246000fd5b60200101907effffffffffffffffffffffffffffffffffffffffffffffffffffffffffffff1916908160001a905350600a8561194a9190612f16565b94506118a2565b8093505050505b919050565b6119668261125a565b6119a5576040517f08c379a000000000000000000000000000000000000000000000000000000000815260040161199c90612ccc565b60405180910390fd5b806006600084815260200190815260200160002090805190602001906119cc9291906121a3565b505050565b8173ffffffffffffffffffffffffffffffffffffffff168373ffffffffffffffffffffffffffffffffffffffff161415611a40576040517f08c379a0000000000000000000000000000000000000000000000000000000008152600401611a3790612c2c565b60405180910390fd5b80600560008573ffffffffffffffffffffffffffffffffffffffff1673ffffffffffffffffffffffffffffffffffffffff16815260200190815260200160002060008473ffffffffffffffffffffffffffffffffffffffff1673ffffffffffffffffffffffffffffffffffffffff16815260200190815260200160002060006101000a81548160ff0219169083151502179055508173ffffffffffffffffffffffffffffffffffffffff168373ffffffffffffffffffffffffffffffffffffffff167f17307eab39ab6107e8899845ad3d59bd9653f200f220920489ca2b5937696c3183604051611b319190612af4565b60405180910390a3505050565b611b49848484611465565b611b5584848484611d51565b611b94576040517f08c379a0000000000000000000000000000000000000000000000000000000008152600401611b8b90612b6c565b60405180910390fd5b50505050565b6060611ba58261125a565b611be4576040517f08c379a0000000000000000000000000000000000000000000000000000000008152600401611bdb90612d0c565b60405180910390fd5b6000600660008481526020019081526020016000208054611c04906130af565b80601f0160208091040260200160405190810160405280929190818152602001828054611c30906130af565b8015611c7d5780601f10611c5257610100808354040283529160200191611c7d565b820191906000526020600020905b815481529060010190602001808311611c6057829003601f168201915b505050505090506000611c8e611ee8565b9050600081511415611ca4578192505050611ce7565b600082511115611cd9578082604051602001611cc19291906129dc565b60405160208183030381529060405292505050611ce7565b611ce284611eff565b925050505b919050565b505050565b505050565b611d008383611fa6565b611d0d6000848484611d51565b611d4c576040517f08c379a0000000000000000000000000000000000000000000000000000000008152600401611d4390612b6c565b60405180910390fd5b505050565b6000611d728473ffffffffffffffffffffffffffffffffffffffff16612180565b15611edb578373ffffffffffffffffffffffffffffffffffffffff1663150b7a02611d9b6112c6565b8786866040518563ffffffff1660e01b8152600401611dbd9493929190612aa8565b602060405180830381600087803b158015611dd757600080fd5b505af1925050508015611e0857506040513d601f19601f82011682018060405250810190611e05919061253a565b60015b611e8b573d8060008114611e38576040519150601f19603f3d011682016040523d82523d6000602084013e611e3d565b606091505b50600081511415611e83576040517f08c379a0000000000000000000000000000000000000000000000000000000008152600401611e7a90612b6c565b60405180910390fd5b805181602001fd5b63150b7a0260e01b7bffffffffffffffffffffffffffffffffffffffffffffffffffffffff1916817bffffffffffffffffffffffffffffffffffffffffffffffffffffffff191614915050611ee0565b600190505b949350505050565b606060405180602001604052806000815250905090565b6060611f0a8261125a565b611f49576040517f08c379a0000000000000000000000000000000000000000000000000000000008152600401611f4090612d8c565b60405180910390fd5b6000611f53611ee8565b90506000815111611f735760405180602001604052806000815250611f9e565b80611f7d846117b0565b604051602001611f8e9291906129dc565b6040516020818303038152906040525b915050919050565b600073ffffffffffffffffffffffffffffffffffffffff168273ffffffffffffffffffffffffffffffffffffffff161415612016576040517f08c379a000000000000000000000000000000000000000000000000000000000815260040161200d90612cec565b60405180910390fd5b61201f8161125a565b1561205f576040517f08c379a000000000000000000000000000000000000000000000000000000000815260040161205690612bcc565b60405180910390fd5b61206b60008383611cec565b6001600360008473ffffffffffffffffffffffffffffffffffffffff1673ffffffffffffffffffffffffffffffffffffffff16815260200190815260200160002060008282546120bb9190612ec0565b92505081905550816002600083815260200190815260200160002060006101000a81548173ffffffffffffffffffffffffffffffffffffffff021916908373ffffffffffffffffffffffffffffffffffffffff160217905550808273ffffffffffffffffffffffffffffffffffffffff16600073ffffffffffffffffffffffffffffffffffffffff167fddf252ad1be2c89b69c2b068fc378daa952ba7f163c4a11628f55a4df523b3ef60405160405180910390a461217c60008383611cf1565b5050565b6000808273ffffffffffffffffffffffffffffffffffffffff163b119050919050565b8280546121af906130af565b90600052602060002090601f0160209004810192826121d15760008555612218565b82601f106121ea57805160ff1916838001178555612218565b82800160010185558215612218579182015b828111156122175782518255916020019190600101906121fc565b5b5090506122259190612229565b5090565b5b8082111561224257600081600090555060010161222a565b5090565b600061225961225484612e4c565b612e27565b90508281526020810184848401111561227157600080fd5b61227c84828561306d565b509392505050565b600081359050612293816138dd565b92915050565b6000813590506122a8816138f4565b92915050565b6000815190506122bd816138f4565b92915050565b6000813590506122d28161390b565b92915050565b6000815190506122e78161390b565b92915050565b600082601f8301126122fe57600080fd5b813561230e848260208601612246565b91505092915050565b60008135905061232681613922565b92915050565b60008151905061233b81613922565b92915050565b60006020828403121561235357600080fd5b600061236184828501612284565b91505092915050565b6000806040838503121561237d57600080fd5b600061238b85828601612284565b925050602061239c85828601612284565b9150509250929050565b6000806000606084860312156123bb57600080fd5b60006123c986828701612284565b93505060206123da86828701612284565b92505060406123eb86828701612317565b9150509250925092565b6000806000806080858703121561240b57600080fd5b600061241987828801612284565b945050602061242a87828801612284565b935050604061243b87828801612317565b925050606085013567ffffffffffffffff81111561245857600080fd5b612464878288016122ed565b91505092959194509250565b6000806040838503121561248357600080fd5b600061249185828601612284565b92505060206124a285828601612299565b9150509250929050565b600080604083850312156124bf57600080fd5b60006124cd85828601612284565b92505060206124de85828601612317565b9150509250929050565b6000602082840312156124fa57600080fd5b6000612508848285016122ae565b91505092915050565b60006020828403121561252357600080fd5b6000612531848285016122c3565b91505092915050565b60006020828403121561254c57600080fd5b600061255a848285016122d8565b91505092915050565b60006020828403121561257557600080fd5b600061258384828501612317565b91505092915050565b60006020828403121561259e57600080fd5b60006125ac8482850161232c565b91505092915050565b6125be81612fd5565b82525050565b6125cd81612fe7565b82525050565b60006125de82612e7d565b6125e88185612e93565b93506125f881856020860161307c565b61260181613248565b840191505092915050565b61261581613049565b82525050565b600061262682612e88565b6126308185612ea4565b935061264081856020860161307c565b61264981613248565b840191505092915050565b600061265f82612e88565b6126698185612eb5565b935061267981856020860161307c565b80840191505092915050565b6000612692601683612ea4565b915061269d82613259565b602082019050919050565b60006126b5603283612ea4565b91506126c082613282565b604082019050919050565b60006126d8602683612ea4565b91506126e3826132d1565b604082019050919050565b60006126fb602583612ea4565b915061270682613320565b604082019050919050565b600061271e601c83612ea4565b91506127298261336f565b602082019050919050565b6000612741602183612ea4565b915061274c82613398565b604082019050919050565b6000612764602483612ea4565b915061276f826133e7565b604082019050919050565b6000612787601983612ea4565b915061279282613436565b602082019050919050565b60006127aa602c83612ea4565b91506127b58261345f565b604082019050919050565b60006127cd603883612ea4565b91506127d8826134ae565b604082019050919050565b60006127f0602a83612ea4565b91506127fb826134fd565b604082019050919050565b6000612813602983612ea4565b915061281e8261354c565b604082019050919050565b6000612836602e83612ea4565b91506128418261359b565b604082019050919050565b6000612859602083612ea4565b9150612864826135ea565b602082019050919050565b600061287c603183612ea4565b915061288782613613565b604082019050919050565b600061289f601f83612ea4565b91506128aa82613662565b602082019050919050565b60006128c2602c83612ea4565b91506128cd8261368b565b604082019050919050565b60006128e5600583612eb5565b91506128f0826136da565b600582019050919050565b6000612908602083612ea4565b915061291382613703565b602082019050919050565b600061292b602f83612ea4565b91506129368261372c565b604082019050919050565b600061294e602183612ea4565b91506129598261377b565b604082019050919050565b6000612971603183612ea4565b915061297c826137ca565b604082019050919050565b6000612994603683612ea4565b915061299f82613819565b604082019050919050565b60006129b7605383612eb5565b91506129c282613868565b605382019050919050565b6129d68161303f565b82525050565b60006129e88285612654565b91506129f48284612654565b91508190509392505050565b6000612a0b826129aa565b9150612a178284612654565b9150612a22826128d8565b915081905092915050565b6000602082019050612a4260008301846125b5565b92915050565b6000604082019050612a5d60008301856125b5565b612a6a60208301846125b5565b9392505050565b6000606082019050612a8660008301866125b5565b612a9360208301856125b5565b612aa060408301846129cd565b949350505050565b6000608082019050612abd60008301876125b5565b612aca60208301866125b5565b612ad760408301856129cd565b8181036060830152612ae981846125d3565b905095945050505050565b6000602082019050612b0960008301846125c4565b92915050565b6000602082019050612b24600083018461260c565b92915050565b60006020820190508181036000830152612b44818461261b565b905092915050565b60006020820190508181036000830152612b6581612685565b9050919050565b60006020820190508181036000830152612b85816126a8565b9050919050565b60006020820190508181036000830152612ba5816126cb565b9050919050565b60006020820190508181036000830152612bc5816126ee565b9050919050565b60006020820190508181036000830152612be581612711565b9050919050565b60006020820190508181036000830152612c0581612734565b9050919050565b60006020820190508181036000830152612c2581612757565b9050919050565b60006020820190508181036000830152612c458161277a565b9050919050565b60006020820190508181036000830152612c658161279d565b9050919050565b60006020820190508181036000830152612c85816127c0565b9050919050565b60006020820190508181036000830152612ca5816127e3565b9050919050565b60006020820190508181036000830152612cc581612806565b9050919050565b60006020820190508181036000830152612ce581612829565b9050919050565b60006020820190508181036000830152612d058161284c565b9050919050565b60006020820190508181036000830152612d258161286f565b9050919050565b60006020820190508181036000830152612d4581612892565b9050919050565b60006020820190508181036000830152612d65816128b5565b9050919050565b60006020820190508181036000830152612d85816128fb565b9050919050565b60006020820190508181036000830152612da58161291e565b9050919050565b60006020820190508181036000830152612dc581612941565b9050919050565b60006020820190508181036000830152612de581612964565b9050919050565b60006020820190508181036000830152612e0581612987565b9050919050565b6000602082019050612e2160008301846129cd565b92915050565b6000612e31612e42565b9050612e3d82826130e1565b919050565b6000604051905090565b600067ffffffffffffffff821115612e6757612e66613219565b5b612e7082613248565b9050602081019050919050565b600081519050919050565b600081519050919050565b600082825260208201905092915050565b600082825260208201905092915050565b600081905092915050565b6000612ecb8261303f565b9150612ed68361303f565b9250827fffffffffffffffffffffffffffffffffffffffffffffffffffffffffffffffff03821115612f0b57612f0a61318c565b5b828201905092915050565b6000612f218261303f565b9150612f2c8361303f565b925082612f3c57612f3b6131bb565b5b828204905092915050565b6000612f528261303f565b9150612f5d8361303f565b9250817fffffffffffffffffffffffffffffffffffffffffffffffffffffffffffffffff0483118215151615612f9657612f9561318c565b5b828202905092915050565b6000612fac8261303f565b9150612fb78361303f565b925082821015612fca57612fc961318c565b5b828203905092915050565b6000612fe08261301f565b9050919050565b60008115159050919050565b60007fffffffff0000000000000000000000000000000000000000000000000000000082169050919050565b600073ffffffffffffffffffffffffffffffffffffffff82169050919050565b6000819050919050565b60006130548261305b565b9050919050565b60006130668261301f565b9050919050565b82818337600083830152505050565b60005b8381101561309a57808201518184015260208101905061307f565b838111156130a9576000848401525b50505050565b600060028204905060018216806130c757607f821691505b602082108114156130db576130da6131ea565b5b50919050565b6130ea82613248565b810181811067ffffffffffffffff8211171561310957613108613219565b5b80604052505050565b600061311d8261303f565b91507fffffffffffffffffffffffffffffffffffffffffffffffffffffffffffffffff8214156131505761314f61318c565b5b600182019050919050565b60006131668261303f565b91506131718361303f565b925082613181576131806131bb565b5b828206905092915050565b7f4e487b7100000000000000000000000000000000000000000000000000000000600052601160045260246000fd5b7f4e487b7100000000000000000000000000000000000000000000000000000000600052601260045260246000fd5b7f4e487b7100000000000000000000000000000000000000000000000000000000600052602260045260246000fd5b7f4e487b7100000000000000000000000000000000000000000000000000000000600052604160045260246000fd5b6000601f19601f8301169050919050565b7f6e6f7420656e6f75676820737570706c79206c65667400000000000000000000600082015250565b7f4552433732313a207472616e7366657220746f206e6f6e20455243373231526560008201527f63656976657220696d706c656d656e7465720000000000000000000000000000602082015250565b7f4f776e61626c653a206e6577206f776e657220697320746865207a65726f206160008201527f6464726573730000000000000000000000000000000000000000000000000000602082015250565b7f4552433732313a207472616e736665722066726f6d20696e636f72726563742060008201527f6f776e6572000000000000000000000000000000000000000000000000000000602082015250565b7f4552433732313a20746f6b656e20616c7265616479206d696e74656400000000600082015250565b7f4e6f7420656e6f756768205553444320696e2077616c6c657420746f206d696e60008201527f7400000000000000000000000000000000000000000000000000000000000000602082015250565b7f4552433732313a207472616e7366657220746f20746865207a65726f2061646460008201527f7265737300000000000000000000000000000000000000000000000000000000602082015250565b7f4552433732313a20617070726f766520746f2063616c6c657200000000000000600082015250565b7f4552433732313a206f70657261746f7220717565727920666f72206e6f6e657860008201527f697374656e7420746f6b656e0000000000000000000000000000000000000000602082015250565b7f4552433732313a20617070726f76652063616c6c6572206973206e6f74206f7760008201527f6e6572206e6f7220617070726f76656420666f7220616c6c0000000000000000602082015250565b7f4552433732313a2062616c616e636520717565727920666f7220746865207a6560008201527f726f206164647265737300000000000000000000000000000000000000000000602082015250565b7f4552433732313a206f776e657220717565727920666f72206e6f6e657869737460008201527f656e7420746f6b656e0000000000000000000000000000000000000000000000602082015250565b7f45524337323155524953746f726167653a2055524920736574206f66206e6f6e60008201527f6578697374656e7420746f6b656e000000000000000000000000000000000000602082015250565b7f4552433732313a206d696e7420746f20746865207a65726f2061646472657373600082015250565b7f45524337323155524953746f726167653a2055524920717565727920666f722060008201527f6e6f6e6578697374656e7420746f6b656e000000000000000000000000000000602082015250565b7f6f6e6c79203420616c6c6f77656420746f206d696e74206174206f6e63652100600082015250565b7f4552433732313a20617070726f76656420717565727920666f72206e6f6e657860008201527f697374656e7420746f6b656e0000000000000000000000000000000000000000602082015250565b7f2e6a736f6e000000000000000000000000000000000000000000000000000000600082015250565b7f4f776e61626c653a2063616c6c6572206973206e6f7420746865206f776e6572600082015250565b7f4552433732314d657461646174613a2055524920717565727920666f72206e6f60008201527f6e6578697374656e7420746f6b656e0000000000000000000000000000000000602082015250565b7f4552433732313a20617070726f76616c20746f2063757272656e74206f776e6560008201527f7200000000000000000000000000000000000000000000000000000000000000602082015250565b7f4552433732313a207472616e736665722063616c6c6572206973206e6f74206f60008201527f776e6572206e6f7220617070726f766564000000000000000000000000000000602082015250565b7f4e6f7420656e6f75676820616c6c6f77616e63652e20506c656173652061707060008201527f726f766520666f72206d696e74696e6720666972737400000000000000000000602082015250565b7f68747470733a2f2f737573616e6f6f2e6d7970696e6174612e636c6f75642f6960008201527f7066732f516d506e56634176656367646256356e5379516f516233543175317860208201527f7376724657506d5a79454b325875633354592f00000000000000000000000000604082015250565b6138e681612fd5565b81146138f157600080fd5b50565b6138fd81612fe7565b811461390857600080fd5b50565b61391481612ff3565b811461391f57600080fd5b50565b61392b8161303f565b811461393657600080fd5b5056fea26469706673582212204a70c0c0ce4e9e5ce13ff266e827f14dca351ddcb45fc8bade1b57f67a5580c964736f6c63430008040033",
  "linkReferences": {},
  "deployedLinkReferences": {}
}