{
  "_format": "hh-sol-artifact-1",
  "contractName": "LuckyNFT",
  "sourceName": "src/backend/contracts/LuckyNFT.sol",
  "abi": [
    {
      "inputs": [],
      "stateMutability": "nonpayable",
      "type": "constructor"
    },
    {
      "anonymous": false,
      "inputs": [
        {
          "indexed": true,
          "internalType": "address",
          "name": "owner",
          "type": "address"
        },
        {
          "indexed": true,
          "internalType": "address",
          "name": "approved",
          "type": "address"
        },
        {
          "indexed": true,
          "internalType": "uint256",
          "name": "tokenId",
          "type": "uint256"
        }
      ],
      "name": "Approval",
      "type": "event"
    },
    {
      "anonymous": false,
      "inputs": [
        {
          "indexed": true,
          "internalType": "address",
          "name": "owner",
          "type": "address"
        },
        {
          "indexed": true,
          "internalType": "address",
          "name": "operator",
          "type": "address"
        },
        {
          "indexed": false,
          "internalType": "bool",
          "name": "approved",
          "type": "bool"
        }
      ],
      "name": "ApprovalForAll",
      "type": "event"
    },
    {
      "anonymous": false,
      "inputs": [
        {
          "indexed": true,
          "internalType": "address",
          "name": "from",
          "type": "address"
        },
        {
          "indexed": true,
          "internalType": "address",
          "name": "to",
          "type": "address"
        },
        {
          "indexed": true,
          "internalType": "uint256",
          "name": "tokenId",
          "type": "uint256"
        }
      ],
      "name": "Transfer",
      "type": "event"
    },
    {
      "inputs": [
        {
          "internalType": "address",
          "name": "_minter",
          "type": "address"
        }
      ],
      "name": "_mint",
      "outputs": [
        {
          "internalType": "uint256",
          "name": "",
          "type": "uint256"
        }
      ],
      "stateMutability": "nonpayable",
      "type": "function"
    },
    {
      "inputs": [
        {
          "internalType": "address",
          "name": "to",
          "type": "address"
        },
        {
          "internalType": "uint256",
          "name": "tokenId",
          "type": "uint256"
        }
      ],
      "name": "approve",
      "outputs": [],
      "stateMutability": "nonpayable",
      "type": "function"
    },
    {
      "inputs": [
        {
          "internalType": "address",
          "name": "owner",
          "type": "address"
        }
      ],
      "name": "balanceOf",
      "outputs": [
        {
          "internalType": "uint256",
          "name": "",
          "type": "uint256"
        }
      ],
      "stateMutability": "view",
      "type": "function"
    },
    {
      "inputs": [
        {
          "internalType": "uint256",
          "name": "tokenId",
          "type": "uint256"
        }
      ],
      "name": "getApproved",
      "outputs": [
        {
          "internalType": "address",
          "name": "",
          "type": "address"
        }
      ],
      "stateMutability": "view",
      "type": "function"
    },
    {
      "inputs": [
        {
          "internalType": "address",
          "name": "owner",
          "type": "address"
        },
        {
          "internalType": "address",
          "name": "operator",
          "type": "address"
        }
      ],
      "name": "isApprovedForAll",
      "outputs": [
        {
          "internalType": "bool",
          "name": "",
          "type": "bool"
        }
      ],
      "stateMutability": "view",
      "type": "function"
    },
    {
      "inputs": [],
      "name": "name",
      "outputs": [
        {
          "internalType": "string",
          "name": "",
          "type": "string"
        }
      ],
      "stateMutability": "view",
      "type": "function"
    },
    {
      "inputs": [
        {
          "internalType": "uint256",
          "name": "tokenId",
          "type": "uint256"
        }
      ],
      "name": "ownerOf",
      "outputs": [
        {
          "internalType": "address",
          "name": "",
          "type": "address"
        }
      ],
      "stateMutability": "view",
      "type": "function"
    },
    {
      "inputs": [
        {
          "internalType": "address",
          "name": "from",
          "type": "address"
        },
        {
          "internalType": "address",
          "name": "to",
          "type": "address"
        },
        {
          "internalType": "uint256",
          "name": "tokenId",
          "type": "uint256"
        }
      ],
      "name": "safeTransferFrom",
      "outputs": [],
      "stateMutability": "nonpayable",
      "type": "function"
    },
    {
      "inputs": [
        {
          "internalType": "address",
          "name": "from",
          "type": "address"
        },
        {
          "internalType": "address",
          "name": "to",
          "type": "address"
        },
        {
          "internalType": "uint256",
          "name": "tokenId",
          "type": "uint256"
        },
        {
          "internalType": "bytes",
          "name": "_data",
          "type": "bytes"
        }
      ],
      "name": "safeTransferFrom",
      "outputs": [],
      "stateMutability": "nonpayable",
      "type": "function"
    },
    {
      "inputs": [
        {
          "internalType": "address",
          "name": "operator",
          "type": "address"
        },
        {
          "internalType": "bool",
          "name": "approved",
          "type": "bool"
        }
      ],
      "name": "setApprovalForAll",
      "outputs": [],
      "stateMutability": "nonpayable",
      "type": "function"
    },
    {
      "inputs": [
        {
          "internalType": "bytes4",
          "name": "interfaceId",
          "type": "bytes4"
        }
      ],
      "name": "supportsInterface",
      "outputs": [
        {
          "internalType": "bool",
          "name": "",
          "type": "bool"
        }
      ],
      "stateMutability": "view",
      "type": "function"
    },
    {
      "inputs": [],
      "name": "symbol",
      "outputs": [
        {
          "internalType": "string",
          "name": "",
          "type": "string"
        }
      ],
      "stateMutability": "view",
      "type": "function"
    },
    {
      "inputs": [],
      "name": "tokenCount",
      "outputs": [
        {
          "internalType": "uint256",
          "name": "",
          "type": "uint256"
        }
      ],
      "stateMutability": "view",
      "type": "function"
    },
    {
      "inputs": [],
      "name": "tokenSupply",
      "outputs": [
        {
          "internalType": "uint256",
          "name": "",
          "type": "uint256"
        }
      ],
      "stateMutability": "view",
      "type": "function"
    },
    {
      "inputs": [
        {
          "internalType": "uint256",
          "name": "tokenId",
          "type": "uint256"
        }
      ],
      "name": "tokenURI",
      "outputs": [
        {
          "internalType": "string",
          "name": "",
          "type": "string"
        }
      ],
      "stateMutability": "view",
      "type": "function"
    },
    {
      "inputs": [
        {
          "internalType": "address",
          "name": "from",
          "type": "address"
        },
        {
          "internalType": "address",
          "name": "to",
          "type": "address"
        },
        {
          "internalType": "uint256",
          "name": "tokenId",
          "type": "uint256"
        }
      ],
      "name": "transferFrom",
      "outputs": [],
      "stateMutability": "nonpayable",
      "type": "function"
    }
  ],
  "bytecode": "0x608060405260646007553480156200001657600080fd5b506040518060400160405280600581526020017f4c75636b790000000000000000000000000000000000000000000000000000008152506040518060400160405280600581526020017f4c55434b5900000000000000000000000000000000000000000000000000000081525081600090805190602001906200009b929190620000bd565b508060019080519060200190620000b4929190620000bd565b505050620001d2565b828054620000cb906200016d565b90600052602060002090601f016020900481019282620000ef57600085556200013b565b82601f106200010a57805160ff19168380011785556200013b565b828001600101855582156200013b579182015b828111156200013a5782518255916020019190600101906200011d565b5b5090506200014a91906200014e565b5090565b5b80821115620001695760008160009055506001016200014f565b5090565b600060028204905060018216806200018657607f821691505b602082108114156200019d576200019c620001a3565b5b50919050565b7f4e487b7100000000000000000000000000000000000000000000000000000000600052602260045260246000fd5b61287e80620001e26000396000f3fe608060405234801561001057600080fd5b50600436106101005760003560e01c806370a0823111610097578063a22cb46511610066578063a22cb465146102c1578063b88d4fde146102dd578063c87b56dd146102f9578063e985e9c51461032957610100565b806370a08231146102375780637824407f1461026757806395d89b41146102855780639f181b5e146102a357610100565b806309aa7b67116100d357806309aa7b671461019f57806323b872dd146101cf57806342842e0e146101eb5780636352211e1461020757610100565b806301ffc9a71461010557806306fdde0314610135578063081812fc14610153578063095ea7b314610183575b600080fd5b61011f600480360381019061011a9190611a14565b610359565b60405161012c9190611df7565b60405180910390f35b61013d61043b565b60405161014a9190611e12565b60405180910390f35b61016d60048036038101906101689190611a66565b6104cd565b60405161017a9190611d90565b60405180910390f35b61019d600480360381019061019891906119d8565b610552565b005b6101b960048036038101906101b4919061186d565b61066a565b6040516101c69190612014565b60405180910390f35b6101e960048036038101906101e491906118d2565b6106e1565b005b610205600480360381019061020091906118d2565b610741565b005b610221600480360381019061021c9190611a66565b610761565b60405161022e9190611d90565b60405180910390f35b610251600480360381019061024c919061186d565b610813565b60405161025e9190612014565b60405180910390f35b61026f6108cb565b60405161027c9190612014565b60405180910390f35b61028d6108d1565b60405161029a9190611e12565b60405180910390f35b6102ab610963565b6040516102b89190612014565b60405180910390f35b6102db60048036038101906102d6919061199c565b610969565b005b6102f760048036038101906102f29190611921565b61097f565b005b610313600480360381019061030e9190611a66565b6109e1565b6040516103209190611e12565b60405180910390f35b610343600480360381019061033e9190611896565b610a88565b6040516103509190611df7565b60405180910390f35b60007f80ac58cd000000000000000000000000000000000000000000000000000000007bffffffffffffffffffffffffffffffffffffffffffffffffffffffff1916827bffffffffffffffffffffffffffffffffffffffffffffffffffffffff1916148061042457507f5b5e139f000000000000000000000000000000000000000000000000000000007bffffffffffffffffffffffffffffffffffffffffffffffffffffffff1916827bffffffffffffffffffffffffffffffffffffffffffffffffffffffff1916145b80610434575061043382610b1c565b5b9050919050565b60606000805461044a90612239565b80601f016020809104026020016040519081016040528092919081815260200182805461047690612239565b80156104c35780601f10610498576101008083540402835291602001916104c3565b820191906000526020600020905b8154815290600101906020018083116104a657829003601f168201915b5050505050905090565b60006104d882610b86565b610517576040517f08c379a000000000000000000000000000000000000000000000000000000000815260040161050e90611f94565b60405180910390fd5b6004600083815260200190815260200160002060009054906101000a900473ffffffffffffffffffffffffffffffffffffffff169050919050565b600061055d82610761565b90508073ffffffffffffffffffffffffffffffffffffffff168373ffffffffffffffffffffffffffffffffffffffff1614156105ce576040517f08c379a00000000000000000000000000000000000000000000000000000000081526004016105c590611fd4565b60405180910390fd5b8073ffffffffffffffffffffffffffffffffffffffff166105ed610bf2565b73ffffffffffffffffffffffffffffffffffffffff16148061061c575061061b81610616610bf2565b610a88565b5b61065b576040517f08c379a000000000000000000000000000000000000000000000000000000000815260040161065290611ef4565b60405180910390fd5b6106658383610bfa565b505050565b60006006600081548092919061067f9061229c565b919050555060075460065411156106cb576040517f08c379a00000000000000000000000000000000000000000000000000000000081526004016106c290611f14565b60405180910390fd5b6106d782600654610cb3565b6006549050919050565b6106f26106ec610bf2565b82610cd1565b610731576040517f08c379a000000000000000000000000000000000000000000000000000000000815260040161072890611ff4565b60405180910390fd5b61073c838383610daf565b505050565b61075c8383836040518060200160405280600081525061097f565b505050565b6000806002600084815260200190815260200160002060009054906101000a900473ffffffffffffffffffffffffffffffffffffffff169050600073ffffffffffffffffffffffffffffffffffffffff168173ffffffffffffffffffffffffffffffffffffffff16141561080a576040517f08c379a000000000000000000000000000000000000000000000000000000000815260040161080190611f54565b60405180910390fd5b80915050919050565b60008073ffffffffffffffffffffffffffffffffffffffff168273ffffffffffffffffffffffffffffffffffffffff161415610884576040517f08c379a000000000000000000000000000000000000000000000000000000000815260040161087b90611f34565b60405180910390fd5b600360008373ffffffffffffffffffffffffffffffffffffffff1673ffffffffffffffffffffffffffffffffffffffff168152602001908152602001600020549050919050565b60075481565b6060600180546108e090612239565b80601f016020809104026020016040519081016040528092919081815260200182805461090c90612239565b80156109595780601f1061092e57610100808354040283529160200191610959565b820191906000526020600020905b81548152906001019060200180831161093c57829003601f168201915b5050505050905090565b60065481565b61097b610974610bf2565b8383611016565b5050565b61099061098a610bf2565b83610cd1565b6109cf576040517f08c379a00000000000000000000000000000000000000000000000000000000081526004016109c690611ff4565b60405180910390fd5b6109db84848484611183565b50505050565b60606109ec82610b86565b610a2b576040517f08c379a0000000000000000000000000000000000000000000000000000000008152600401610a2290611fb4565b60405180910390fd5b6000610a356111df565b90506000815111610a555760405180602001604052806000815250610a80565b80610a5f846111f6565b604051602001610a70929190611d6c565b6040516020818303038152906040525b915050919050565b6000600560008473ffffffffffffffffffffffffffffffffffffffff1673ffffffffffffffffffffffffffffffffffffffff16815260200190815260200160002060008373ffffffffffffffffffffffffffffffffffffffff1673ffffffffffffffffffffffffffffffffffffffff16815260200190815260200160002060009054906101000a900460ff16905092915050565b60007f01ffc9a7000000000000000000000000000000000000000000000000000000007bffffffffffffffffffffffffffffffffffffffffffffffffffffffff1916827bffffffffffffffffffffffffffffffffffffffffffffffffffffffff1916149050919050565b60008073ffffffffffffffffffffffffffffffffffffffff166002600084815260200190815260200160002060009054906101000a900473ffffffffffffffffffffffffffffffffffffffff1673ffffffffffffffffffffffffffffffffffffffff1614159050919050565b600033905090565b816004600083815260200190815260200160002060006101000a81548173ffffffffffffffffffffffffffffffffffffffff021916908373ffffffffffffffffffffffffffffffffffffffff160217905550808273ffffffffffffffffffffffffffffffffffffffff16610c6d83610761565b73ffffffffffffffffffffffffffffffffffffffff167f8c5be1e5ebec7d5bd14f71427d1e84f3dd0314c0f7b2291e5b200ac8c7c3b92560405160405180910390a45050565b610ccd8282604051806020016040528060008152506113a3565b5050565b6000610cdc82610b86565b610d1b576040517f08c379a0000000000000000000000000000000000000000000000000000000008152600401610d1290611ed4565b60405180910390fd5b6000610d2683610761565b90508073ffffffffffffffffffffffffffffffffffffffff168473ffffffffffffffffffffffffffffffffffffffff161480610d9557508373ffffffffffffffffffffffffffffffffffffffff16610d7d846104cd565b73ffffffffffffffffffffffffffffffffffffffff16145b80610da65750610da58185610a88565b5b91505092915050565b8273ffffffffffffffffffffffffffffffffffffffff16610dcf82610761565b73ffffffffffffffffffffffffffffffffffffffff1614610e25576040517f08c379a0000000000000000000000000000000000000000000000000000000008152600401610e1c90611e54565b60405180910390fd5b600073ffffffffffffffffffffffffffffffffffffffff168273ffffffffffffffffffffffffffffffffffffffff161415610e95576040517f08c379a0000000000000000000000000000000000000000000000000000000008152600401610e8c90611e94565b60405180910390fd5b610ea08383836113fe565b610eab600082610bfa565b6001600360008573ffffffffffffffffffffffffffffffffffffffff1673ffffffffffffffffffffffffffffffffffffffff1681526020019081526020016000206000828254610efb919061214f565b925050819055506001600360008473ffffffffffffffffffffffffffffffffffffffff1673ffffffffffffffffffffffffffffffffffffffff1681526020019081526020016000206000828254610f5291906120c8565b92505081905550816002600083815260200190815260200160002060006101000a81548173ffffffffffffffffffffffffffffffffffffffff021916908373ffffffffffffffffffffffffffffffffffffffff160217905550808273ffffffffffffffffffffffffffffffffffffffff168473ffffffffffffffffffffffffffffffffffffffff167fddf252ad1be2c89b69c2b068fc378daa952ba7f163c4a11628f55a4df523b3ef60405160405180910390a4611011838383611403565b505050565b8173ffffffffffffffffffffffffffffffffffffffff168373ffffffffffffffffffffffffffffffffffffffff161415611085576040517f08c379a000000000000000000000000000000000000000000000000000000000815260040161107c90611eb4565b60405180910390fd5b80600560008573ffffffffffffffffffffffffffffffffffffffff1673ffffffffffffffffffffffffffffffffffffffff16815260200190815260200160002060008473ffffffffffffffffffffffffffffffffffffffff1673ffffffffffffffffffffffffffffffffffffffff16815260200190815260200160002060006101000a81548160ff0219169083151502179055508173ffffffffffffffffffffffffffffffffffffffff168373ffffffffffffffffffffffffffffffffffffffff167f17307eab39ab6107e8899845ad3d59bd9653f200f220920489ca2b5937696c31836040516111769190611df7565b60405180910390a3505050565b61118e848484610daf565b61119a84848484611408565b6111d9576040517f08c379a00000000000000000000000000000000000000000000000000000000081526004016111d090611e34565b60405180910390fd5b50505050565b606060405180602001604052806000815250905090565b6060600082141561123e576040518060400160405280600181526020017f3000000000000000000000000000000000000000000000000000000000000000815250905061139e565b600082905060005b600082146112705780806112599061229c565b915050600a82611269919061211e565b9150611246565b60008167ffffffffffffffff8111156112b2577f4e487b7100000000000000000000000000000000000000000000000000000000600052604160045260246000fd5b6040519080825280601f01601f1916602001820160405280156112e45781602001600182028036833780820191505090505b5090505b60008514611397576001826112fd919061214f565b9150600a8561130c91906122e5565b603061131891906120c8565b60f81b818381518110611354577f4e487b7100000000000000000000000000000000000000000000000000000000600052603260045260246000fd5b60200101907effffffffffffffffffffffffffffffffffffffffffffffffffffffffffffff1916908160001a905350600a85611390919061211e565b94506112e8565b8093505050505b919050565b6113ad838361159f565b6113ba6000848484611408565b6113f9576040517f08c379a00000000000000000000000000000000000000000000000000000000081526004016113f090611e34565b60405180910390fd5b505050565b505050565b505050565b60006114298473ffffffffffffffffffffffffffffffffffffffff16611779565b15611592578373ffffffffffffffffffffffffffffffffffffffff1663150b7a02611452610bf2565b8786866040518563ffffffff1660e01b81526004016114749493929190611dab565b602060405180830381600087803b15801561148e57600080fd5b505af19250505080156114bf57506040513d601f19601f820116820180604052508101906114bc9190611a3d565b60015b611542573d80600081146114ef576040519150601f19603f3d011682016040523d82523d6000602084013e6114f4565b606091505b5060008151141561153a576040517f08c379a000000000000000000000000000000000000000000000000000000000815260040161153190611e34565b60405180910390fd5b805181602001fd5b63150b7a0260e01b7bffffffffffffffffffffffffffffffffffffffffffffffffffffffff1916817bffffffffffffffffffffffffffffffffffffffffffffffffffffffff191614915050611597565b600190505b949350505050565b600073ffffffffffffffffffffffffffffffffffffffff168273ffffffffffffffffffffffffffffffffffffffff16141561160f576040517f08c379a000000000000000000000000000000000000000000000000000000000815260040161160690611f74565b60405180910390fd5b61161881610b86565b15611658576040517f08c379a000000000000000000000000000000000000000000000000000000000815260040161164f90611e74565b60405180910390fd5b611664600083836113fe565b6001600360008473ffffffffffffffffffffffffffffffffffffffff1673ffffffffffffffffffffffffffffffffffffffff16815260200190815260200160002060008282546116b491906120c8565b92505081905550816002600083815260200190815260200160002060006101000a81548173ffffffffffffffffffffffffffffffffffffffff021916908373ffffffffffffffffffffffffffffffffffffffff160217905550808273ffffffffffffffffffffffffffffffffffffffff16600073ffffffffffffffffffffffffffffffffffffffff167fddf252ad1be2c89b69c2b068fc378daa952ba7f163c4a11628f55a4df523b3ef60405160405180910390a461177560008383611403565b5050565b6000808273ffffffffffffffffffffffffffffffffffffffff163b119050919050565b60006117af6117aa84612054565b61202f565b9050828152602081018484840111156117c757600080fd5b6117d28482856121f7565b509392505050565b6000813590506117e9816127ec565b92915050565b6000813590506117fe81612803565b92915050565b6000813590506118138161281a565b92915050565b6000815190506118288161281a565b92915050565b600082601f83011261183f57600080fd5b813561184f84826020860161179c565b91505092915050565b60008135905061186781612831565b92915050565b60006020828403121561187f57600080fd5b600061188d848285016117da565b91505092915050565b600080604083850312156118a957600080fd5b60006118b7858286016117da565b92505060206118c8858286016117da565b9150509250929050565b6000806000606084860312156118e757600080fd5b60006118f5868287016117da565b9350506020611906868287016117da565b925050604061191786828701611858565b9150509250925092565b6000806000806080858703121561193757600080fd5b6000611945878288016117da565b9450506020611956878288016117da565b935050604061196787828801611858565b925050606085013567ffffffffffffffff81111561198457600080fd5b6119908782880161182e565b91505092959194509250565b600080604083850312156119af57600080fd5b60006119bd858286016117da565b92505060206119ce858286016117ef565b9150509250929050565b600080604083850312156119eb57600080fd5b60006119f9858286016117da565b9250506020611a0a85828601611858565b9150509250929050565b600060208284031215611a2657600080fd5b6000611a3484828501611804565b91505092915050565b600060208284031215611a4f57600080fd5b6000611a5d84828501611819565b91505092915050565b600060208284031215611a7857600080fd5b6000611a8684828501611858565b91505092915050565b611a9881612183565b82525050565b611aa781612195565b82525050565b6000611ab882612085565b611ac2818561209b565b9350611ad2818560208601612206565b611adb816123d2565b840191505092915050565b6000611af182612090565b611afb81856120ac565b9350611b0b818560208601612206565b611b14816123d2565b840191505092915050565b6000611b2a82612090565b611b3481856120bd565b9350611b44818560208601612206565b80840191505092915050565b6000611b5d6032836120ac565b9150611b68826123e3565b604082019050919050565b6000611b806025836120ac565b9150611b8b82612432565b604082019050919050565b6000611ba3601c836120ac565b9150611bae82612481565b602082019050919050565b6000611bc66024836120ac565b9150611bd1826124aa565b604082019050919050565b6000611be96019836120ac565b9150611bf4826124f9565b602082019050919050565b6000611c0c602c836120ac565b9150611c1782612522565b604082019050919050565b6000611c2f6038836120ac565b9150611c3a82612571565b604082019050919050565b6000611c526012836120ac565b9150611c5d826125c0565b602082019050919050565b6000611c75602a836120ac565b9150611c80826125e9565b604082019050919050565b6000611c986029836120ac565b9150611ca382612638565b604082019050919050565b6000611cbb6020836120ac565b9150611cc682612687565b602082019050919050565b6000611cde602c836120ac565b9150611ce9826126b0565b604082019050919050565b6000611d01602f836120ac565b9150611d0c826126ff565b604082019050919050565b6000611d246021836120ac565b9150611d2f8261274e565b604082019050919050565b6000611d476031836120ac565b9150611d528261279d565b604082019050919050565b611d66816121ed565b82525050565b6000611d788285611b1f565b9150611d848284611b1f565b91508190509392505050565b6000602082019050611da56000830184611a8f565b92915050565b6000608082019050611dc06000830187611a8f565b611dcd6020830186611a8f565b611dda6040830185611d5d565b8181036060830152611dec8184611aad565b905095945050505050565b6000602082019050611e0c6000830184611a9e565b92915050565b60006020820190508181036000830152611e2c8184611ae6565b905092915050565b60006020820190508181036000830152611e4d81611b50565b9050919050565b60006020820190508181036000830152611e6d81611b73565b9050919050565b60006020820190508181036000830152611e8d81611b96565b9050919050565b60006020820190508181036000830152611ead81611bb9565b9050919050565b60006020820190508181036000830152611ecd81611bdc565b9050919050565b60006020820190508181036000830152611eed81611bff565b9050919050565b60006020820190508181036000830152611f0d81611c22565b9050919050565b60006020820190508181036000830152611f2d81611c45565b9050919050565b60006020820190508181036000830152611f4d81611c68565b9050919050565b60006020820190508181036000830152611f6d81611c8b565b9050919050565b60006020820190508181036000830152611f8d81611cae565b9050919050565b60006020820190508181036000830152611fad81611cd1565b9050919050565b60006020820190508181036000830152611fcd81611cf4565b9050919050565b60006020820190508181036000830152611fed81611d17565b9050919050565b6000602082019050818103600083015261200d81611d3a565b9050919050565b60006020820190506120296000830184611d5d565b92915050565b600061203961204a565b9050612045828261226b565b919050565b6000604051905090565b600067ffffffffffffffff82111561206f5761206e6123a3565b5b612078826123d2565b9050602081019050919050565b600081519050919050565b600081519050919050565b600082825260208201905092915050565b600082825260208201905092915050565b600081905092915050565b60006120d3826121ed565b91506120de836121ed565b9250827fffffffffffffffffffffffffffffffffffffffffffffffffffffffffffffffff0382111561211357612112612316565b5b828201905092915050565b6000612129826121ed565b9150612134836121ed565b92508261214457612143612345565b5b828204905092915050565b600061215a826121ed565b9150612165836121ed565b92508282101561217857612177612316565b5b828203905092915050565b600061218e826121cd565b9050919050565b60008115159050919050565b60007fffffffff0000000000000000000000000000000000000000000000000000000082169050919050565b600073ffffffffffffffffffffffffffffffffffffffff82169050919050565b6000819050919050565b82818337600083830152505050565b60005b83811015612224578082015181840152602081019050612209565b83811115612233576000848401525b50505050565b6000600282049050600182168061225157607f821691505b6020821081141561226557612264612374565b5b50919050565b612274826123d2565b810181811067ffffffffffffffff82111715612293576122926123a3565b5b80604052505050565b60006122a7826121ed565b91507fffffffffffffffffffffffffffffffffffffffffffffffffffffffffffffffff8214156122da576122d9612316565b5b600182019050919050565b60006122f0826121ed565b91506122fb836121ed565b92508261230b5761230a612345565b5b828206905092915050565b7f4e487b7100000000000000000000000000000000000000000000000000000000600052601160045260246000fd5b7f4e487b7100000000000000000000000000000000000000000000000000000000600052601260045260246000fd5b7f4e487b7100000000000000000000000000000000000000000000000000000000600052602260045260246000fd5b7f4e487b7100000000000000000000000000000000000000000000000000000000600052604160045260246000fd5b6000601f19601f8301169050919050565b7f4552433732313a207472616e7366657220746f206e6f6e20455243373231526560008201527f63656976657220696d706c656d656e7465720000000000000000000000000000602082015250565b7f4552433732313a207472616e736665722066726f6d20696e636f72726563742060008201527f6f776e6572000000000000000000000000000000000000000000000000000000602082015250565b7f4552433732313a20746f6b656e20616c7265616479206d696e74656400000000600082015250565b7f4552433732313a207472616e7366657220746f20746865207a65726f2061646460008201527f7265737300000000000000000000000000000000000000000000000000000000602082015250565b7f4552433732313a20617070726f766520746f2063616c6c657200000000000000600082015250565b7f4552433732313a206f70657261746f7220717565727920666f72206e6f6e657860008201527f697374656e7420746f6b656e0000000000000000000000000000000000000000602082015250565b7f4552433732313a20617070726f76652063616c6c6572206973206e6f74206f7760008201527f6e6572206e6f7220617070726f76656420666f7220616c6c0000000000000000602082015250565b7f737570706c79206d696e746564206f7574210000000000000000000000000000600082015250565b7f4552433732313a2062616c616e636520717565727920666f7220746865207a6560008201527f726f206164647265737300000000000000000000000000000000000000000000602082015250565b7f4552433732313a206f776e657220717565727920666f72206e6f6e657869737460008201527f656e7420746f6b656e0000000000000000000000000000000000000000000000602082015250565b7f4552433732313a206d696e7420746f20746865207a65726f2061646472657373600082015250565b7f4552433732313a20617070726f76656420717565727920666f72206e6f6e657860008201527f697374656e7420746f6b656e0000000000000000000000000000000000000000602082015250565b7f4552433732314d657461646174613a2055524920717565727920666f72206e6f60008201527f6e6578697374656e7420746f6b656e0000000000000000000000000000000000602082015250565b7f4552433732313a20617070726f76616c20746f2063757272656e74206f776e6560008201527f7200000000000000000000000000000000000000000000000000000000000000602082015250565b7f4552433732313a207472616e736665722063616c6c6572206973206e6f74206f60008201527f776e6572206e6f7220617070726f766564000000000000000000000000000000602082015250565b6127f581612183565b811461280057600080fd5b50565b61280c81612195565b811461281757600080fd5b50565b612823816121a1565b811461282e57600080fd5b50565b61283a816121ed565b811461284557600080fd5b5056fea264697066735822122079a9493d9d29a16bff17eedec162a2421784b52b08163ff84b00e14cb42e06ac64736f6c63430008040033",
  "linkReferences": {},
  "deployedLinkReferences": {}
}