{
  "_format": "hh-sol-artifact-1",
  "contractName": "LuckyNFT",
  "sourceName": "src/backend/contracts/LuckyNFT.sol",
  "abi": [
    {
      "inputs": [
        {
          "internalType": "address",
          "name": "_payToken",
          "type": "address"
        }
      ],
      "stateMutability": "nonpayable",
      "type": "constructor"
    },
    {
      "anonymous": false,
      "inputs": [
        {
          "indexed": true,
          "internalType": "address",
          "name": "owner",
          "type": "address"
        },
        {
          "indexed": true,
          "internalType": "address",
          "name": "approved",
          "type": "address"
        },
        {
          "indexed": true,
          "internalType": "uint256",
          "name": "tokenId",
          "type": "uint256"
        }
      ],
      "name": "Approval",
      "type": "event"
    },
    {
      "anonymous": false,
      "inputs": [
        {
          "indexed": true,
          "internalType": "address",
          "name": "owner",
          "type": "address"
        },
        {
          "indexed": true,
          "internalType": "address",
          "name": "operator",
          "type": "address"
        },
        {
          "indexed": false,
          "internalType": "bool",
          "name": "approved",
          "type": "bool"
        }
      ],
      "name": "ApprovalForAll",
      "type": "event"
    },
    {
      "inputs": [
        {
          "internalType": "address",
          "name": "to",
          "type": "address"
        },
        {
          "internalType": "uint256",
          "name": "tokenId",
          "type": "uint256"
        }
      ],
      "name": "approve",
      "outputs": [],
      "stateMutability": "nonpayable",
      "type": "function"
    },
    {
      "inputs": [
        {
          "internalType": "address",
          "name": "_to",
          "type": "address"
        },
        {
          "internalType": "uint256",
          "name": "_mintAmount",
          "type": "uint256"
        }
      ],
      "name": "mint",
      "outputs": [],
      "stateMutability": "payable",
      "type": "function"
    },
    {
      "anonymous": false,
      "inputs": [
        {
          "indexed": true,
          "internalType": "address",
          "name": "previousOwner",
          "type": "address"
        },
        {
          "indexed": true,
          "internalType": "address",
          "name": "newOwner",
          "type": "address"
        }
      ],
      "name": "OwnershipTransferred",
      "type": "event"
    },
    {
      "inputs": [],
      "name": "renounceOwnership",
      "outputs": [],
      "stateMutability": "nonpayable",
      "type": "function"
    },
    {
      "inputs": [
        {
          "internalType": "address",
          "name": "from",
          "type": "address"
        },
        {
          "internalType": "address",
          "name": "to",
          "type": "address"
        },
        {
          "internalType": "uint256",
          "name": "tokenId",
          "type": "uint256"
        }
      ],
      "name": "safeTransferFrom",
      "outputs": [],
      "stateMutability": "nonpayable",
      "type": "function"
    },
    {
      "inputs": [
        {
          "internalType": "address",
          "name": "from",
          "type": "address"
        },
        {
          "internalType": "address",
          "name": "to",
          "type": "address"
        },
        {
          "internalType": "uint256",
          "name": "tokenId",
          "type": "uint256"
        },
        {
          "internalType": "bytes",
          "name": "data",
          "type": "bytes"
        }
      ],
      "name": "safeTransferFrom",
      "outputs": [],
      "stateMutability": "nonpayable",
      "type": "function"
    },
    {
      "inputs": [
        {
          "internalType": "address",
          "name": "_royaltyAddr",
          "type": "address"
        },
        {
          "internalType": "address",
          "name": "_fundsAddr",
          "type": "address"
        }
      ],
      "name": "setAccounts",
      "outputs": [],
      "stateMutability": "nonpayable",
      "type": "function"
    },
    {
      "inputs": [
        {
          "internalType": "address",
          "name": "operator",
          "type": "address"
        },
        {
          "internalType": "bool",
          "name": "approved",
          "type": "bool"
        }
      ],
      "name": "setApprovalForAll",
      "outputs": [],
      "stateMutability": "nonpayable",
      "type": "function"
    },
    {
      "inputs": [
        {
          "internalType": "uint256",
          "name": "_amount",
          "type": "uint256"
        }
      ],
      "name": "setMaxMintAmount",
      "outputs": [],
      "stateMutability": "nonpayable",
      "type": "function"
    },
    {
      "inputs": [
        {
          "internalType": "uint256",
          "name": "_price",
          "type": "uint256"
        }
      ],
      "name": "setPrice",
      "outputs": [],
      "stateMutability": "nonpayable",
      "type": "function"
    },
    {
      "inputs": [
        {
          "internalType": "uint96",
          "name": "_royaltyPercent",
          "type": "uint96"
        }
      ],
      "name": "setRoyalty",
      "outputs": [],
      "stateMutability": "nonpayable",
      "type": "function"
    },
    {
      "anonymous": false,
      "inputs": [
        {
          "indexed": true,
          "internalType": "address",
          "name": "from",
          "type": "address"
        },
        {
          "indexed": true,
          "internalType": "address",
          "name": "to",
          "type": "address"
        },
        {
          "indexed": true,
          "internalType": "uint256",
          "name": "tokenId",
          "type": "uint256"
        }
      ],
      "name": "Transfer",
      "type": "event"
    },
    {
      "inputs": [
        {
          "internalType": "address",
          "name": "from",
          "type": "address"
        },
        {
          "internalType": "address",
          "name": "to",
          "type": "address"
        },
        {
          "internalType": "uint256",
          "name": "tokenId",
          "type": "uint256"
        }
      ],
      "name": "transferFrom",
      "outputs": [],
      "stateMutability": "nonpayable",
      "type": "function"
    },
    {
      "inputs": [
        {
          "internalType": "address",
          "name": "newOwner",
          "type": "address"
        }
      ],
      "name": "transferOwnership",
      "outputs": [],
      "stateMutability": "nonpayable",
      "type": "function"
    },
    {
      "inputs": [
        {
          "internalType": "address",
          "name": "owner",
          "type": "address"
        }
      ],
      "name": "balanceOf",
      "outputs": [
        {
          "internalType": "uint256",
          "name": "",
          "type": "uint256"
        }
      ],
      "stateMutability": "view",
      "type": "function"
    },
    {
      "inputs": [],
      "name": "fundsAddr",
      "outputs": [
        {
          "internalType": "address",
          "name": "",
          "type": "address"
        }
      ],
      "stateMutability": "view",
      "type": "function"
    },
    {
      "inputs": [
        {
          "internalType": "uint256",
          "name": "tokenId",
          "type": "uint256"
        }
      ],
      "name": "getApproved",
      "outputs": [
        {
          "internalType": "address",
          "name": "",
          "type": "address"
        }
      ],
      "stateMutability": "view",
      "type": "function"
    },
    {
      "inputs": [
        {
          "internalType": "address",
          "name": "owner",
          "type": "address"
        },
        {
          "internalType": "address",
          "name": "operator",
          "type": "address"
        }
      ],
      "name": "isApprovedForAll",
      "outputs": [
        {
          "internalType": "bool",
          "name": "",
          "type": "bool"
        }
      ],
      "stateMutability": "view",
      "type": "function"
    },
    {
      "inputs": [],
      "name": "maxMintAmount",
      "outputs": [
        {
          "internalType": "uint256",
          "name": "",
          "type": "uint256"
        }
      ],
      "stateMutability": "view",
      "type": "function"
    },
    {
      "inputs": [],
      "name": "mintPrice",
      "outputs": [
        {
          "internalType": "uint256",
          "name": "",
          "type": "uint256"
        }
      ],
      "stateMutability": "view",
      "type": "function"
    },
    {
      "inputs": [],
      "name": "name",
      "outputs": [
        {
          "internalType": "string",
          "name": "",
          "type": "string"
        }
      ],
      "stateMutability": "view",
      "type": "function"
    },
    {
      "inputs": [],
      "name": "owner",
      "outputs": [
        {
          "internalType": "address",
          "name": "",
          "type": "address"
        }
      ],
      "stateMutability": "view",
      "type": "function"
    },
    {
      "inputs": [
        {
          "internalType": "uint256",
          "name": "tokenId",
          "type": "uint256"
        }
      ],
      "name": "ownerOf",
      "outputs": [
        {
          "internalType": "address",
          "name": "",
          "type": "address"
        }
      ],
      "stateMutability": "view",
      "type": "function"
    },
    {
      "inputs": [],
      "name": "payToken",
      "outputs": [
        {
          "internalType": "contract IERC20",
          "name": "",
          "type": "address"
        }
      ],
      "stateMutability": "view",
      "type": "function"
    },
    {
      "inputs": [],
      "name": "royaltyAddr",
      "outputs": [
        {
          "internalType": "address",
          "name": "",
          "type": "address"
        }
      ],
      "stateMutability": "view",
      "type": "function"
    },
    {
      "inputs": [
        {
          "internalType": "uint256",
          "name": "_tokenId",
          "type": "uint256"
        },
        {
          "internalType": "uint256",
          "name": "_salePrice",
          "type": "uint256"
        }
      ],
      "name": "royaltyInfo",
      "outputs": [
        {
          "internalType": "address",
          "name": "",
          "type": "address"
        },
        {
          "internalType": "uint256",
          "name": "",
          "type": "uint256"
        }
      ],
      "stateMutability": "view",
      "type": "function"
    },
    {
      "inputs": [
        {
          "internalType": "bytes4",
          "name": "interfaceId",
          "type": "bytes4"
        }
      ],
      "name": "supportsInterface",
      "outputs": [
        {
          "internalType": "bool",
          "name": "",
          "type": "bool"
        }
      ],
      "stateMutability": "view",
      "type": "function"
    },
    {
      "inputs": [],
      "name": "symbol",
      "outputs": [
        {
          "internalType": "string",
          "name": "",
          "type": "string"
        }
      ],
      "stateMutability": "view",
      "type": "function"
    },
    {
      "inputs": [],
      "name": "tokenCount",
      "outputs": [
        {
          "internalType": "uint256",
          "name": "",
          "type": "uint256"
        }
      ],
      "stateMutability": "view",
      "type": "function"
    },
    {
      "inputs": [],
      "name": "tokenSupply",
      "outputs": [
        {
          "internalType": "uint256",
          "name": "",
          "type": "uint256"
        }
      ],
      "stateMutability": "view",
      "type": "function"
    },
    {
      "inputs": [
        {
          "internalType": "uint256",
          "name": "tokenId",
          "type": "uint256"
        }
      ],
      "name": "tokenURI",
      "outputs": [
        {
          "internalType": "string",
          "name": "",
          "type": "string"
        }
      ],
      "stateMutability": "view",
      "type": "function"
    }
  ],
  "bytecode": "0x60806040523480156200001157600080fd5b50604051620047b5380380620047b58339818101604052810190620000379190620002e5565b6040518060400160405280600581526020017f4c55434b590000000000000000000000000000000000000000000000000000008152506040518060400160405280600581526020017f4c55434b590000000000000000000000000000000000000000000000000000008152508160029080519060200190620000bb9291906200021e565b508060039080519060200190620000d49291906200021e565b505050620000f7620000eb6200015060201b60201c565b6200015860201b60201c565b6000600b81905550612710600c8190555080600a60006101000a81548173ffffffffffffffffffffffffffffffffffffffff021916908373ffffffffffffffffffffffffffffffffffffffff16021790555050620003c4565b600033905090565b6000600960009054906101000a900473ffffffffffffffffffffffffffffffffffffffff16905081600960006101000a81548173ffffffffffffffffffffffffffffffffffffffff021916908373ffffffffffffffffffffffffffffffffffffffff1602179055508173ffffffffffffffffffffffffffffffffffffffff168173ffffffffffffffffffffffffffffffffffffffff167f8be0079c531659141344cd1fd0a4f28419497f9722a3daafe3b4186f6b6457e060405160405180910390a35050565b8280546200022c9062000345565b90600052602060002090601f0160209004810192826200025057600085556200029c565b82601f106200026b57805160ff19168380011785556200029c565b828001600101855582156200029c579182015b828111156200029b5782518255916020019190600101906200027e565b5b509050620002ab9190620002af565b5090565b5b80821115620002ca576000816000905550600101620002b0565b5090565b600081519050620002df81620003aa565b92915050565b600060208284031215620002f857600080fd5b60006200030884828501620002ce565b91505092915050565b60006200031e8262000325565b9050919050565b600073ffffffffffffffffffffffffffffffffffffffff82169050919050565b600060028204905060018216806200035e57607f821691505b602082108114156200037557620003746200037b565b5b50919050565b7f4e487b7100000000000000000000000000000000000000000000000000000000600052602260045260246000fd5b620003b58162000311565b8114620003c157600080fd5b50565b6143e180620003d46000396000f3fe6080604052600436106101c25760003560e01c806370a08231116100f757806396336b3011610095578063c87b56dd11610064578063c87b56dd14610622578063cac926691461065f578063e985e9c514610688578063f2fde38b146106c5576101c2565b806396336b301461057a5780639f181b5e146105a5578063a22cb465146105d0578063b88d4fde146105f9576101c2565b80638da5cb5b116100d15780638da5cb5b146104d05780639052223e146104fb57806391b7f5ed1461052657806395d89b411461054f576101c2565b806370a0823114610451578063715018a61461048e5780637824407f146104a5576101c2565b80632a55205a1161016457806342842e0e1161013e57806342842e0e1461039757806343e02605146103c05780636352211e146103e95780636817c76c14610426576101c2565b80632a55205a146103125780633009c0831461035057806340c10f191461037b576101c2565b8063088a4ed0116101a0578063088a4ed01461026c578063095ea7b314610295578063239c70ae146102be57806323b872dd146102e9576101c2565b806301ffc9a7146101c757806306fdde0314610204578063081812fc1461022f575b600080fd5b3480156101d357600080fd5b506101ee60048036038101906101e99190612dc8565b6106ee565b6040516101fb919061347f565b60405180910390f35b34801561021057600080fd5b50610219610700565b60405161022691906134b5565b60405180910390f35b34801561023b57600080fd5b5061025660048036038101906102519190612e1a565b610792565b604051610263919061338f565b60405180910390f35b34801561027857600080fd5b50610293600480360381019061028e9190612e1a565b610817565b005b3480156102a157600080fd5b506102bc60048036038101906102b79190612d63565b61089d565b005b3480156102ca57600080fd5b506102d36109b5565b6040516102e091906137d7565b60405180910390f35b3480156102f557600080fd5b50610310600480360381019061030b9190612c5d565b6109bb565b005b34801561031e57600080fd5b5061033960048036038101906103349190612e6c565b610a1b565b604051610347929190613456565b60405180910390f35b34801561035c57600080fd5b50610365610c06565b604051610372919061338f565b60405180910390f35b61039560048036038101906103909190612d63565b610c2c565b005b3480156103a357600080fd5b506103be60048036038101906103b99190612c5d565b611011565b005b3480156103cc57600080fd5b506103e760048036038101906103e29190612c21565b611031565b005b3480156103f557600080fd5b50610410600480360381019061040b9190612e1a565b611133565b60405161041d919061338f565b60405180910390f35b34801561043257600080fd5b5061043b6111e5565b60405161044891906137d7565b60405180910390f35b34801561045d57600080fd5b5061047860048036038101906104739190612bf8565b6111eb565b60405161048591906137d7565b60405180910390f35b34801561049a57600080fd5b506104a36112a3565b005b3480156104b157600080fd5b506104ba61132b565b6040516104c791906137d7565b60405180910390f35b3480156104dc57600080fd5b506104e5611331565b6040516104f2919061338f565b60405180910390f35b34801561050757600080fd5b5061051061135b565b60405161051d919061338f565b60405180910390f35b34801561053257600080fd5b5061054d60048036038101906105489190612e1a565b611381565b005b34801561055b57600080fd5b50610564611407565b60405161057191906134b5565b60405180910390f35b34801561058657600080fd5b5061058f611499565b60405161059c919061349a565b60405180910390f35b3480156105b157600080fd5b506105ba6114bf565b6040516105c791906137d7565b60405180910390f35b3480156105dc57600080fd5b506105f760048036038101906105f29190612d27565b6114c5565b005b34801561060557600080fd5b50610620600480360381019061061b9190612cac565b6114db565b005b34801561062e57600080fd5b5061064960048036038101906106449190612e1a565b61153d565b60405161065691906134b5565b60405180910390f35b34801561066b57600080fd5b5061068660048036038101906106819190612ea8565b61154f565b005b34801561069457600080fd5b506106af60048036038101906106aa9190612c21565b6115fa565b6040516106bc919061347f565b60405180910390f35b3480156106d157600080fd5b506106ec60048036038101906106e79190612bf8565b61168e565b005b60006106f982611786565b9050919050565b60606002805461070f90613a92565b80601f016020809104026020016040519081016040528092919081815260200182805461073b90613a92565b80156107885780601f1061075d57610100808354040283529160200191610788565b820191906000526020600020905b81548152906001019060200180831161076b57829003601f168201915b5050505050905090565b600061079d82611798565b6107dc576040517f08c379a00000000000000000000000000000000000000000000000000000000081526004016107d3906136d7565b60405180910390fd5b6006600083815260200190815260200160002060009054906101000a900473ffffffffffffffffffffffffffffffffffffffff169050919050565b61081f611804565b73ffffffffffffffffffffffffffffffffffffffff1661083d611331565b73ffffffffffffffffffffffffffffffffffffffff1614610893576040517f08c379a000000000000000000000000000000000000000000000000000000000815260040161088a906136f7565b60405180910390fd5b80600e8190555050565b60006108a882611133565b90508073ffffffffffffffffffffffffffffffffffffffff168373ffffffffffffffffffffffffffffffffffffffff161415610919576040517f08c379a000000000000000000000000000000000000000000000000000000000815260040161091090613737565b60405180910390fd5b8073ffffffffffffffffffffffffffffffffffffffff16610938611804565b73ffffffffffffffffffffffffffffffffffffffff161480610967575061096681610961611804565b6115fa565b5b6109a6576040517f08c379a000000000000000000000000000000000000000000000000000000000815260040161099d906135f7565b60405180910390fd5b6109b0838361180c565b505050565b600e5481565b6109cc6109c6611804565b826118c5565b610a0b576040517f08c379a0000000000000000000000000000000000000000000000000000000008152600401610a0290613757565b60405180910390fd5b610a168383836119a3565b505050565b6000806000600160008681526020019081526020016000206040518060400160405290816000820160009054906101000a900473ffffffffffffffffffffffffffffffffffffffff1673ffffffffffffffffffffffffffffffffffffffff1673ffffffffffffffffffffffffffffffffffffffff1681526020016000820160149054906101000a90046bffffffffffffffffffffffff166bffffffffffffffffffffffff166bffffffffffffffffffffffff16815250509050600073ffffffffffffffffffffffffffffffffffffffff16816000015173ffffffffffffffffffffffffffffffffffffffff161415610bb15760006040518060400160405290816000820160009054906101000a900473ffffffffffffffffffffffffffffffffffffffff1673ffffffffffffffffffffffffffffffffffffffff1673ffffffffffffffffffffffffffffffffffffffff1681526020016000820160149054906101000a90046bffffffffffffffffffffffff166bffffffffffffffffffffffff166bffffffffffffffffffffffff168152505090505b6000610bbb611c0a565b6bffffffffffffffffffffffff1682602001516bffffffffffffffffffffffff1686610be79190613912565b610bf191906138e1565b90508160000151819350935050509250929050565b600f60009054906101000a900473ffffffffffffffffffffffffffffffffffffffff1681565b6004811115610c70576040517f08c379a0000000000000000000000000000000000000000000000000000000008152600401610c67906136b7565b60405180910390fd5b600c5481600b54610c81919061388b565b1115610cc2576040517f08c379a0000000000000000000000000000000000000000000000000000000008152600401610cb9906134d7565b60405180910390fd5b80600d54610cd09190613912565b600a60009054906101000a900473ffffffffffffffffffffffffffffffffffffffff1673ffffffffffffffffffffffffffffffffffffffff166370a08231336040518263ffffffff1660e01b8152600401610d2b919061338f565b60206040518083038186803b158015610d4357600080fd5b505afa158015610d57573d6000803e3d6000fd5b505050506040513d601f19601f82011682018060405250810190610d7b9190612e43565b11610dbb576040517f08c379a0000000000000000000000000000000000000000000000000000000008152600401610db290613577565b60405180910390fd5b80600d54610dc99190613912565b600a60009054906101000a900473ffffffffffffffffffffffffffffffffffffffff1673ffffffffffffffffffffffffffffffffffffffff1663dd62ed3e33306040518363ffffffff1660e01b8152600401610e269291906133aa565b60206040518083038186803b158015610e3e57600080fd5b505afa158015610e52573d6000803e3d6000fd5b505050506040513d601f19601f82011682018060405250810190610e769190612e43565b11610eb6576040517f08c379a0000000000000000000000000000000000000000000000000000000008152600401610ead90613777565b60405180910390fd5b6000600190505b81811161100c57600a60009054906101000a900473ffffffffffffffffffffffffffffffffffffffff1673ffffffffffffffffffffffffffffffffffffffff166323b872dd33601060009054906101000a900473ffffffffffffffffffffffffffffffffffffffff16600d546040518463ffffffff1660e01b8152600401610f47939291906133d3565b602060405180830381600087803b158015610f6157600080fd5b505af1158015610f75573d6000803e3d6000fd5b505050506040513d601f19601f82011682018060405250810190610f999190612d9f565b50600b6000815480929190610fad90613af5565b9190505550610fbe83600b54611c13565b6000610fcb600b54611c31565b604051602001610fdb9190613362565b6040516020818303038152906040529050610ff8600b5482611dde565b50808061100490613af5565b915050610ebd565b505050565b61102c838383604051806020016040528060008152506114db565b505050565b611039611804565b73ffffffffffffffffffffffffffffffffffffffff16611057611331565b73ffffffffffffffffffffffffffffffffffffffff16146110ad576040517f08c379a00000000000000000000000000000000000000000000000000000000081526004016110a4906136f7565b60405180910390fd5b81600f60006101000a81548173ffffffffffffffffffffffffffffffffffffffff021916908373ffffffffffffffffffffffffffffffffffffffff16021790555080601060006101000a81548173ffffffffffffffffffffffffffffffffffffffff021916908373ffffffffffffffffffffffffffffffffffffffff1602179055505050565b6000806004600084815260200190815260200160002060009054906101000a900473ffffffffffffffffffffffffffffffffffffffff169050600073ffffffffffffffffffffffffffffffffffffffff168173ffffffffffffffffffffffffffffffffffffffff1614156111dc576040517f08c379a00000000000000000000000000000000000000000000000000000000081526004016111d390613637565b60405180910390fd5b80915050919050565b600d5481565b60008073ffffffffffffffffffffffffffffffffffffffff168273ffffffffffffffffffffffffffffffffffffffff16141561125c576040517f08c379a000000000000000000000000000000000000000000000000000000000815260040161125390613617565b60405180910390fd5b600560008373ffffffffffffffffffffffffffffffffffffffff1673ffffffffffffffffffffffffffffffffffffffff168152602001908152602001600020549050919050565b6112ab611804565b73ffffffffffffffffffffffffffffffffffffffff166112c9611331565b73ffffffffffffffffffffffffffffffffffffffff161461131f576040517f08c379a0000000000000000000000000000000000000000000000000000000008152600401611316906136f7565b60405180910390fd5b6113296000611e52565b565b600c5481565b6000600960009054906101000a900473ffffffffffffffffffffffffffffffffffffffff16905090565b601060009054906101000a900473ffffffffffffffffffffffffffffffffffffffff1681565b611389611804565b73ffffffffffffffffffffffffffffffffffffffff166113a7611331565b73ffffffffffffffffffffffffffffffffffffffff16146113fd576040517f08c379a00000000000000000000000000000000000000000000000000000000081526004016113f4906136f7565b60405180910390fd5b80600d8190555050565b60606003805461141690613a92565b80601f016020809104026020016040519081016040528092919081815260200182805461144290613a92565b801561148f5780601f106114645761010080835404028352916020019161148f565b820191906000526020600020905b81548152906001019060200180831161147257829003601f168201915b5050505050905090565b600a60009054906101000a900473ffffffffffffffffffffffffffffffffffffffff1681565b600b5481565b6114d76114d0611804565b8383611f18565b5050565b6114ec6114e6611804565b836118c5565b61152b576040517f08c379a000000000000000000000000000000000000000000000000000000000815260040161152290613757565b60405180910390fd5b61153784848484612085565b50505050565b6060611548826120e1565b9050919050565b611557611804565b73ffffffffffffffffffffffffffffffffffffffff16611575611331565b73ffffffffffffffffffffffffffffffffffffffff16146115cb576040517f08c379a00000000000000000000000000000000000000000000000000000000081526004016115c2906136f7565b60405180910390fd5b6115f7600f60009054906101000a900473ffffffffffffffffffffffffffffffffffffffff1682612233565b50565b6000600760008473ffffffffffffffffffffffffffffffffffffffff1673ffffffffffffffffffffffffffffffffffffffff16815260200190815260200160002060008373ffffffffffffffffffffffffffffffffffffffff1673ffffffffffffffffffffffffffffffffffffffff16815260200190815260200160002060009054906101000a900460ff16905092915050565b611696611804565b73ffffffffffffffffffffffffffffffffffffffff166116b4611331565b73ffffffffffffffffffffffffffffffffffffffff161461170a576040517f08c379a0000000000000000000000000000000000000000000000000000000008152600401611701906136f7565b60405180910390fd5b600073ffffffffffffffffffffffffffffffffffffffff168173ffffffffffffffffffffffffffffffffffffffff16141561177a576040517f08c379a000000000000000000000000000000000000000000000000000000000815260040161177190613517565b60405180910390fd5b61178381611e52565b50565b6000611791826123c8565b9050919050565b60008073ffffffffffffffffffffffffffffffffffffffff166004600084815260200190815260200160002060009054906101000a900473ffffffffffffffffffffffffffffffffffffffff1673ffffffffffffffffffffffffffffffffffffffff1614159050919050565b600033905090565b816006600083815260200190815260200160002060006101000a81548173ffffffffffffffffffffffffffffffffffffffff021916908373ffffffffffffffffffffffffffffffffffffffff160217905550808273ffffffffffffffffffffffffffffffffffffffff1661187f83611133565b73ffffffffffffffffffffffffffffffffffffffff167f8c5be1e5ebec7d5bd14f71427d1e84f3dd0314c0f7b2291e5b200ac8c7c3b92560405160405180910390a45050565b60006118d082611798565b61190f576040517f08c379a0000000000000000000000000000000000000000000000000000000008152600401611906906135d7565b60405180910390fd5b600061191a83611133565b90508073ffffffffffffffffffffffffffffffffffffffff168473ffffffffffffffffffffffffffffffffffffffff16148061198957508373ffffffffffffffffffffffffffffffffffffffff1661197184610792565b73ffffffffffffffffffffffffffffffffffffffff16145b8061199a575061199981856115fa565b5b91505092915050565b8273ffffffffffffffffffffffffffffffffffffffff166119c382611133565b73ffffffffffffffffffffffffffffffffffffffff1614611a19576040517f08c379a0000000000000000000000000000000000000000000000000000000008152600401611a1090613537565b60405180910390fd5b600073ffffffffffffffffffffffffffffffffffffffff168273ffffffffffffffffffffffffffffffffffffffff161415611a89576040517f08c379a0000000000000000000000000000000000000000000000000000000008152600401611a8090613597565b60405180910390fd5b611a948383836124aa565b611a9f60008261180c565b6001600560008573ffffffffffffffffffffffffffffffffffffffff1673ffffffffffffffffffffffffffffffffffffffff1681526020019081526020016000206000828254611aef919061396c565b925050819055506001600560008473ffffffffffffffffffffffffffffffffffffffff1673ffffffffffffffffffffffffffffffffffffffff1681526020019081526020016000206000828254611b46919061388b565b92505081905550816004600083815260200190815260200160002060006101000a81548173ffffffffffffffffffffffffffffffffffffffff021916908373ffffffffffffffffffffffffffffffffffffffff160217905550808273ffffffffffffffffffffffffffffffffffffffff168473ffffffffffffffffffffffffffffffffffffffff167fddf252ad1be2c89b69c2b068fc378daa952ba7f163c4a11628f55a4df523b3ef60405160405180910390a4611c058383836124af565b505050565b60006064905090565b611c2d8282604051806020016040528060008152506124b4565b5050565b60606000821415611c79576040518060400160405280600181526020017f30000000000000000000000000000000000000000000000000000000000000008152509050611dd9565b600082905060005b60008214611cab578080611c9490613af5565b915050600a82611ca491906138e1565b9150611c81565b60008167ffffffffffffffff811115611ced577f4e487b7100000000000000000000000000000000000000000000000000000000600052604160045260246000fd5b6040519080825280601f01601f191660200182016040528015611d1f5781602001600182028036833780820191505090505b5090505b60008514611dd257600182611d38919061396c565b9150600a85611d479190613b3e565b6030611d53919061388b565b60f81b818381518110611d8f577f4e487b7100000000000000000000000000000000000000000000000000000000600052603260045260246000fd5b60200101907effffffffffffffffffffffffffffffffffffffffffffffffffffffffffffff1916908160001a905350600a85611dcb91906138e1565b9450611d23565b8093505050505b919050565b611de782611798565b611e26576040517f08c379a0000000000000000000000000000000000000000000000000000000008152600401611e1d90613657565b60405180910390fd5b80600860008481526020019081526020016000209080519060200190611e4d929190612a45565b505050565b6000600960009054906101000a900473ffffffffffffffffffffffffffffffffffffffff16905081600960006101000a81548173ffffffffffffffffffffffffffffffffffffffff021916908373ffffffffffffffffffffffffffffffffffffffff1602179055508173ffffffffffffffffffffffffffffffffffffffff168173ffffffffffffffffffffffffffffffffffffffff167f8be0079c531659141344cd1fd0a4f28419497f9722a3daafe3b4186f6b6457e060405160405180910390a35050565b8173ffffffffffffffffffffffffffffffffffffffff168373ffffffffffffffffffffffffffffffffffffffff161415611f87576040517f08c379a0000000000000000000000000000000000000000000000000000000008152600401611f7e906135b7565b60405180910390fd5b80600760008573ffffffffffffffffffffffffffffffffffffffff1673ffffffffffffffffffffffffffffffffffffffff16815260200190815260200160002060008473ffffffffffffffffffffffffffffffffffffffff1673ffffffffffffffffffffffffffffffffffffffff16815260200190815260200160002060006101000a81548160ff0219169083151502179055508173ffffffffffffffffffffffffffffffffffffffff168373ffffffffffffffffffffffffffffffffffffffff167f17307eab39ab6107e8899845ad3d59bd9653f200f220920489ca2b5937696c3183604051612078919061347f565b60405180910390a3505050565b6120908484846119a3565b61209c8484848461250f565b6120db576040517f08c379a00000000000000000000000000000000000000000000000000000000081526004016120d2906134f7565b60405180910390fd5b50505050565b60606120ec82611798565b61212b576040517f08c379a000000000000000000000000000000000000000000000000000000000815260040161212290613697565b60405180910390fd5b600060086000848152602001908152602001600020805461214b90613a92565b80601f016020809104026020016040519081016040528092919081815260200182805461217790613a92565b80156121c45780601f10612199576101008083540402835291602001916121c4565b820191906000526020600020905b8154815290600101906020018083116121a757829003601f168201915b5050505050905060006121d56126a6565b90506000815114156121eb57819250505061222e565b60008251111561222057808260405160200161220892919061333e565b6040516020818303038152906040529250505061222e565b612229846126bd565b925050505b919050565b61223b611c0a565b6bffffffffffffffffffffffff16816bffffffffffffffffffffffff161115612299576040517f08c379a000000000000000000000000000000000000000000000000000000000815260040161229090613797565b60405180910390fd5b600073ffffffffffffffffffffffffffffffffffffffff168273ffffffffffffffffffffffffffffffffffffffff161415612309576040517f08c379a0000000000000000000000000000000000000000000000000000000008152600401612300906137b7565b60405180910390fd5b60405180604001604052808373ffffffffffffffffffffffffffffffffffffffff168152602001826bffffffffffffffffffffffff168152506000808201518160000160006101000a81548173ffffffffffffffffffffffffffffffffffffffff021916908373ffffffffffffffffffffffffffffffffffffffff16021790555060208201518160000160146101000a8154816bffffffffffffffffffffffff02191690836bffffffffffffffffffffffff1602179055509050505050565b60007f80ac58cd000000000000000000000000000000000000000000000000000000007bffffffffffffffffffffffffffffffffffffffffffffffffffffffff1916827bffffffffffffffffffffffffffffffffffffffffffffffffffffffff1916148061249357507f5b5e139f000000000000000000000000000000000000000000000000000000007bffffffffffffffffffffffffffffffffffffffffffffffffffffffff1916827bffffffffffffffffffffffffffffffffffffffffffffffffffffffff1916145b806124a357506124a282612764565b5b9050919050565b505050565b505050565b6124be83836127de565b6124cb600084848461250f565b61250a576040517f08c379a0000000000000000000000000000000000000000000000000000000008152600401612501906134f7565b60405180910390fd5b505050565b60006125308473ffffffffffffffffffffffffffffffffffffffff166129b8565b15612699578373ffffffffffffffffffffffffffffffffffffffff1663150b7a02612559611804565b8786866040518563ffffffff1660e01b815260040161257b949392919061340a565b602060405180830381600087803b15801561259557600080fd5b505af19250505080156125c657506040513d601f19601f820116820180604052508101906125c39190612df1565b60015b612649573d80600081146125f6576040519150601f19603f3d011682016040523d82523d6000602084013e6125fb565b606091505b50600081511415612641576040517f08c379a0000000000000000000000000000000000000000000000000000000008152600401612638906134f7565b60405180910390fd5b805181602001fd5b63150b7a0260e01b7bffffffffffffffffffffffffffffffffffffffffffffffffffffffff1916817bffffffffffffffffffffffffffffffffffffffffffffffffffffffff19161491505061269e565b600190505b949350505050565b606060405180602001604052806000815250905090565b60606126c882611798565b612707576040517f08c379a00000000000000000000000000000000000000000000000000000000081526004016126fe90613717565b60405180910390fd5b60006127116126a6565b90506000815111612731576040518060200160405280600081525061275c565b8061273b84611c31565b60405160200161274c92919061333e565b6040516020818303038152906040525b915050919050565b60007f2a55205a000000000000000000000000000000000000000000000000000000007bffffffffffffffffffffffffffffffffffffffffffffffffffffffff1916827bffffffffffffffffffffffffffffffffffffffffffffffffffffffff191614806127d757506127d6826129db565b5b9050919050565b600073ffffffffffffffffffffffffffffffffffffffff168273ffffffffffffffffffffffffffffffffffffffff16141561284e576040517f08c379a000000000000000000000000000000000000000000000000000000000815260040161284590613677565b60405180910390fd5b61285781611798565b15612897576040517f08c379a000000000000000000000000000000000000000000000000000000000815260040161288e90613557565b60405180910390fd5b6128a3600083836124aa565b6001600560008473ffffffffffffffffffffffffffffffffffffffff1673ffffffffffffffffffffffffffffffffffffffff16815260200190815260200160002060008282546128f3919061388b565b92505081905550816004600083815260200190815260200160002060006101000a81548173ffffffffffffffffffffffffffffffffffffffff021916908373ffffffffffffffffffffffffffffffffffffffff160217905550808273ffffffffffffffffffffffffffffffffffffffff16600073ffffffffffffffffffffffffffffffffffffffff167fddf252ad1be2c89b69c2b068fc378daa952ba7f163c4a11628f55a4df523b3ef60405160405180910390a46129b4600083836124af565b5050565b6000808273ffffffffffffffffffffffffffffffffffffffff163b119050919050565b60007f01ffc9a7000000000000000000000000000000000000000000000000000000007bffffffffffffffffffffffffffffffffffffffffffffffffffffffff1916827bffffffffffffffffffffffffffffffffffffffffffffffffffffffff1916149050919050565b828054612a5190613a92565b90600052602060002090601f016020900481019282612a735760008555612aba565b82601f10612a8c57805160ff1916838001178555612aba565b82800160010185558215612aba579182015b82811115612ab9578251825591602001919060010190612a9e565b5b509050612ac79190612acb565b5090565b5b80821115612ae4576000816000905550600101612acc565b5090565b6000612afb612af684613817565b6137f2565b905082815260208101848484011115612b1357600080fd5b612b1e848285613a50565b509392505050565b600081359050612b3581614338565b92915050565b600081359050612b4a8161434f565b92915050565b600081519050612b5f8161434f565b92915050565b600081359050612b7481614366565b92915050565b600081519050612b8981614366565b92915050565b600082601f830112612ba057600080fd5b8135612bb0848260208601612ae8565b91505092915050565b600081359050612bc88161437d565b92915050565b600081519050612bdd8161437d565b92915050565b600081359050612bf281614394565b92915050565b600060208284031215612c0a57600080fd5b6000612c1884828501612b26565b91505092915050565b60008060408385031215612c3457600080fd5b6000612c4285828601612b26565b9250506020612c5385828601612b26565b9150509250929050565b600080600060608486031215612c7257600080fd5b6000612c8086828701612b26565b9350506020612c9186828701612b26565b9250506040612ca286828701612bb9565b9150509250925092565b60008060008060808587031215612cc257600080fd5b6000612cd087828801612b26565b9450506020612ce187828801612b26565b9350506040612cf287828801612bb9565b925050606085013567ffffffffffffffff811115612d0f57600080fd5b612d1b87828801612b8f565b91505092959194509250565b60008060408385031215612d3a57600080fd5b6000612d4885828601612b26565b9250506020612d5985828601612b3b565b9150509250929050565b60008060408385031215612d7657600080fd5b6000612d8485828601612b26565b9250506020612d9585828601612bb9565b9150509250929050565b600060208284031215612db157600080fd5b6000612dbf84828501612b50565b91505092915050565b600060208284031215612dda57600080fd5b6000612de884828501612b65565b91505092915050565b600060208284031215612e0357600080fd5b6000612e1184828501612b7a565b91505092915050565b600060208284031215612e2c57600080fd5b6000612e3a84828501612bb9565b91505092915050565b600060208284031215612e5557600080fd5b6000612e6384828501612bce565b91505092915050565b60008060408385031215612e7f57600080fd5b6000612e8d85828601612bb9565b9250506020612e9e85828601612bb9565b9150509250929050565b600060208284031215612eba57600080fd5b6000612ec884828501612be3565b91505092915050565b612eda816139a0565b82525050565b612ee9816139b2565b82525050565b6000612efa82613848565b612f04818561385e565b9350612f14818560208601613a5f565b612f1d81613c2b565b840191505092915050565b612f3181613a2c565b82525050565b6000612f4282613853565b612f4c818561386f565b9350612f5c818560208601613a5f565b612f6581613c2b565b840191505092915050565b6000612f7b82613853565b612f858185613880565b9350612f95818560208601613a5f565b80840191505092915050565b6000612fae60168361386f565b9150612fb982613c3c565b602082019050919050565b6000612fd160328361386f565b9150612fdc82613c65565b604082019050919050565b6000612ff460268361386f565b9150612fff82613cb4565b604082019050919050565b600061301760258361386f565b915061302282613d03565b604082019050919050565b600061303a601c8361386f565b915061304582613d52565b602082019050919050565b600061305d60218361386f565b915061306882613d7b565b604082019050919050565b600061308060248361386f565b915061308b82613dca565b604082019050919050565b60006130a360198361386f565b91506130ae82613e19565b602082019050919050565b60006130c6602c8361386f565b91506130d182613e42565b604082019050919050565b60006130e960388361386f565b91506130f482613e91565b604082019050919050565b600061310c602a8361386f565b915061311782613ee0565b604082019050919050565b600061312f60298361386f565b915061313a82613f2f565b604082019050919050565b6000613152602e8361386f565b915061315d82613f7e565b604082019050919050565b600061317560208361386f565b915061318082613fcd565b602082019050919050565b600061319860318361386f565b91506131a382613ff6565b604082019050919050565b60006131bb601f8361386f565b91506131c682614045565b602082019050919050565b60006131de602c8361386f565b91506131e98261406e565b604082019050919050565b6000613201600583613880565b915061320c826140bd565b600582019050919050565b600061322460208361386f565b915061322f826140e6565b602082019050919050565b6000613247602f8361386f565b91506132528261410f565b604082019050919050565b600061326a60218361386f565b91506132758261415e565b604082019050919050565b600061328d60318361386f565b9150613298826141ad565b604082019050919050565b60006132b060368361386f565b91506132bb826141fc565b604082019050919050565b60006132d3602a8361386f565b91506132de8261424b565b604082019050919050565b60006132f6605383613880565b91506133018261429a565b605382019050919050565b600061331960198361386f565b91506133248261430f565b602082019050919050565b61333881613a0a565b82525050565b600061334a8285612f70565b91506133568284612f70565b91508190509392505050565b600061336d826132e9565b91506133798284612f70565b9150613384826131f4565b915081905092915050565b60006020820190506133a46000830184612ed1565b92915050565b60006040820190506133bf6000830185612ed1565b6133cc6020830184612ed1565b9392505050565b60006060820190506133e86000830186612ed1565b6133f56020830185612ed1565b613402604083018461332f565b949350505050565b600060808201905061341f6000830187612ed1565b61342c6020830186612ed1565b613439604083018561332f565b818103606083015261344b8184612eef565b905095945050505050565b600060408201905061346b6000830185612ed1565b613478602083018461332f565b9392505050565b60006020820190506134946000830184612ee0565b92915050565b60006020820190506134af6000830184612f28565b92915050565b600060208201905081810360008301526134cf8184612f37565b905092915050565b600060208201905081810360008301526134f081612fa1565b9050919050565b6000602082019050818103600083015261351081612fc4565b9050919050565b6000602082019050818103600083015261353081612fe7565b9050919050565b600060208201905081810360008301526135508161300a565b9050919050565b600060208201905081810360008301526135708161302d565b9050919050565b6000602082019050818103600083015261359081613050565b9050919050565b600060208201905081810360008301526135b081613073565b9050919050565b600060208201905081810360008301526135d081613096565b9050919050565b600060208201905081810360008301526135f0816130b9565b9050919050565b60006020820190508181036000830152613610816130dc565b9050919050565b60006020820190508181036000830152613630816130ff565b9050919050565b6000602082019050818103600083015261365081613122565b9050919050565b6000602082019050818103600083015261367081613145565b9050919050565b6000602082019050818103600083015261369081613168565b9050919050565b600060208201905081810360008301526136b08161318b565b9050919050565b600060208201905081810360008301526136d0816131ae565b9050919050565b600060208201905081810360008301526136f0816131d1565b9050919050565b6000602082019050818103600083015261371081613217565b9050919050565b600060208201905081810360008301526137308161323a565b9050919050565b600060208201905081810360008301526137508161325d565b9050919050565b6000602082019050818103600083015261377081613280565b9050919050565b60006020820190508181036000830152613790816132a3565b9050919050565b600060208201905081810360008301526137b0816132c6565b9050919050565b600060208201905081810360008301526137d08161330c565b9050919050565b60006020820190506137ec600083018461332f565b92915050565b60006137fc61380d565b90506138088282613ac4565b919050565b6000604051905090565b600067ffffffffffffffff82111561383257613831613bfc565b5b61383b82613c2b565b9050602081019050919050565b600081519050919050565b600081519050919050565b600082825260208201905092915050565b600082825260208201905092915050565b600081905092915050565b600061389682613a0a565b91506138a183613a0a565b9250827fffffffffffffffffffffffffffffffffffffffffffffffffffffffffffffffff038211156138d6576138d5613b6f565b5b828201905092915050565b60006138ec82613a0a565b91506138f783613a0a565b92508261390757613906613b9e565b5b828204905092915050565b600061391d82613a0a565b915061392883613a0a565b9250817fffffffffffffffffffffffffffffffffffffffffffffffffffffffffffffffff048311821515161561396157613960613b6f565b5b828202905092915050565b600061397782613a0a565b915061398283613a0a565b92508282101561399557613994613b6f565b5b828203905092915050565b60006139ab826139ea565b9050919050565b60008115159050919050565b60007fffffffff0000000000000000000000000000000000000000000000000000000082169050919050565b600073ffffffffffffffffffffffffffffffffffffffff82169050919050565b6000819050919050565b60006bffffffffffffffffffffffff82169050919050565b6000613a3782613a3e565b9050919050565b6000613a49826139ea565b9050919050565b82818337600083830152505050565b60005b83811015613a7d578082015181840152602081019050613a62565b83811115613a8c576000848401525b50505050565b60006002820490506001821680613aaa57607f821691505b60208210811415613abe57613abd613bcd565b5b50919050565b613acd82613c2b565b810181811067ffffffffffffffff82111715613aec57613aeb613bfc565b5b80604052505050565b6000613b0082613a0a565b91507fffffffffffffffffffffffffffffffffffffffffffffffffffffffffffffffff821415613b3357613b32613b6f565b5b600182019050919050565b6000613b4982613a0a565b9150613b5483613a0a565b925082613b6457613b63613b9e565b5b828206905092915050565b7f4e487b7100000000000000000000000000000000000000000000000000000000600052601160045260246000fd5b7f4e487b7100000000000000000000000000000000000000000000000000000000600052601260045260246000fd5b7f4e487b7100000000000000000000000000000000000000000000000000000000600052602260045260246000fd5b7f4e487b7100000000000000000000000000000000000000000000000000000000600052604160045260246000fd5b6000601f19601f8301169050919050565b7f6e6f7420656e6f75676820737570706c79206c65667400000000000000000000600082015250565b7f4552433732313a207472616e7366657220746f206e6f6e20455243373231526560008201527f63656976657220696d706c656d656e7465720000000000000000000000000000602082015250565b7f4f776e61626c653a206e6577206f776e657220697320746865207a65726f206160008201527f6464726573730000000000000000000000000000000000000000000000000000602082015250565b7f4552433732313a207472616e736665722066726f6d20696e636f72726563742060008201527f6f776e6572000000000000000000000000000000000000000000000000000000602082015250565b7f4552433732313a20746f6b656e20616c7265616479206d696e74656400000000600082015250565b7f4e6f7420656e6f756768205553444320696e2077616c6c657420746f206d696e60008201527f7400000000000000000000000000000000000000000000000000000000000000602082015250565b7f4552433732313a207472616e7366657220746f20746865207a65726f2061646460008201527f7265737300000000000000000000000000000000000000000000000000000000602082015250565b7f4552433732313a20617070726f766520746f2063616c6c657200000000000000600082015250565b7f4552433732313a206f70657261746f7220717565727920666f72206e6f6e657860008201527f697374656e7420746f6b656e0000000000000000000000000000000000000000602082015250565b7f4552433732313a20617070726f76652063616c6c6572206973206e6f74206f7760008201527f6e6572206e6f7220617070726f76656420666f7220616c6c0000000000000000602082015250565b7f4552433732313a2062616c616e636520717565727920666f7220746865207a6560008201527f726f206164647265737300000000000000000000000000000000000000000000602082015250565b7f4552433732313a206f776e657220717565727920666f72206e6f6e657869737460008201527f656e7420746f6b656e0000000000000000000000000000000000000000000000602082015250565b7f45524337323155524953746f726167653a2055524920736574206f66206e6f6e60008201527f6578697374656e7420746f6b656e000000000000000000000000000000000000602082015250565b7f4552433732313a206d696e7420746f20746865207a65726f2061646472657373600082015250565b7f45524337323155524953746f726167653a2055524920717565727920666f722060008201527f6e6f6e6578697374656e7420746f6b656e000000000000000000000000000000602082015250565b7f6f6e6c79203420616c6c6f77656420746f206d696e74206174206f6e63652100600082015250565b7f4552433732313a20617070726f76656420717565727920666f72206e6f6e657860008201527f697374656e7420746f6b656e0000000000000000000000000000000000000000602082015250565b7f2e6a736f6e000000000000000000000000000000000000000000000000000000600082015250565b7f4f776e61626c653a2063616c6c6572206973206e6f7420746865206f776e6572600082015250565b7f4552433732314d657461646174613a2055524920717565727920666f72206e6f60008201527f6e6578697374656e7420746f6b656e0000000000000000000000000000000000602082015250565b7f4552433732313a20617070726f76616c20746f2063757272656e74206f776e6560008201527f7200000000000000000000000000000000000000000000000000000000000000602082015250565b7f4552433732313a207472616e736665722063616c6c6572206973206e6f74206f60008201527f776e6572206e6f7220617070726f766564000000000000000000000000000000602082015250565b7f4e6f7420656e6f75676820616c6c6f77616e63652e20506c656173652061707060008201527f726f766520666f72206d696e74696e6720666972737400000000000000000000602082015250565b7f455243323938313a20726f79616c7479206665652077696c6c2065786365656460008201527f2073616c65507269636500000000000000000000000000000000000000000000602082015250565b7f68747470733a2f2f737573616e6f6f2e6d7970696e6174612e636c6f75642f6960008201527f7066732f516d506e56634176656367646256356e5379516f516233543175317860208201527f7376724657506d5a79454b325875633354592f00000000000000000000000000604082015250565b7f455243323938313a20696e76616c696420726563656976657200000000000000600082015250565b614341816139a0565b811461434c57600080fd5b50565b614358816139b2565b811461436357600080fd5b50565b61436f816139be565b811461437a57600080fd5b50565b61438681613a0a565b811461439157600080fd5b50565b61439d81613a14565b81146143a857600080fd5b5056fea2646970667358221220920f6b746c71e524371d3f24f9dd9ad69a8540cca492ffffb1e4f35fb07481b664736f6c63430008040033",
  "linkReferences": {},
  "deployedLinkReferences": {}
}