{
  "_format": "hh-sol-artifact-1",
  "contractName": "LUCKY",
  "sourceName": "src/backend/contracts/LUCKY.sol",
  "abi": [
    {
      "inputs": [
        {
          "internalType": "contract LuckyNFT",
          "name": "_nft",
          "type": "address"
        },
        {
          "internalType": "uint16",
          "name": "_referralRate",
          "type": "uint16"
        }
      ],
      "stateMutability": "nonpayable",
      "type": "constructor"
    },
    {
      "anonymous": false,
      "inputs": [
        {
          "indexed": true,
          "internalType": "address",
          "name": "owner",
          "type": "address"
        },
        {
          "indexed": true,
          "internalType": "address",
          "name": "approved",
          "type": "address"
        },
        {
          "indexed": true,
          "internalType": "uint256",
          "name": "tokenId",
          "type": "uint256"
        }
      ],
      "name": "Approval",
      "type": "event"
    },
    {
      "anonymous": false,
      "inputs": [
        {
          "indexed": true,
          "internalType": "address",
          "name": "owner",
          "type": "address"
        },
        {
          "indexed": true,
          "internalType": "address",
          "name": "operator",
          "type": "address"
        },
        {
          "indexed": false,
          "internalType": "bool",
          "name": "approved",
          "type": "bool"
        }
      ],
      "name": "ApprovalForAll",
      "type": "event"
    },
    {
      "anonymous": false,
      "inputs": [
        {
          "indexed": true,
          "internalType": "address",
          "name": "previousOwner",
          "type": "address"
        },
        {
          "indexed": true,
          "internalType": "address",
          "name": "newOwner",
          "type": "address"
        }
      ],
      "name": "OwnershipTransferred",
      "type": "event"
    },
    {
      "anonymous": false,
      "inputs": [
        {
          "indexed": true,
          "internalType": "address",
          "name": "referrer",
          "type": "address"
        },
        {
          "indexed": true,
          "internalType": "address",
          "name": "referral",
          "type": "address"
        }
      ],
      "name": "ReferPurchased",
      "type": "event"
    },
    {
      "anonymous": false,
      "inputs": [
        {
          "indexed": true,
          "internalType": "address",
          "name": "from",
          "type": "address"
        },
        {
          "indexed": true,
          "internalType": "address",
          "name": "to",
          "type": "address"
        },
        {
          "indexed": true,
          "internalType": "uint256",
          "name": "tokenId",
          "type": "uint256"
        }
      ],
      "name": "Transfer",
      "type": "event"
    },
    {
      "anonymous": false,
      "inputs": [
        {
          "indexed": true,
          "internalType": "address",
          "name": "referrer",
          "type": "address"
        },
        {
          "indexed": false,
          "internalType": "uint256",
          "name": "amount",
          "type": "uint256"
        }
      ],
      "name": "Withdrawal",
      "type": "event"
    },
    {
      "inputs": [
        {
          "internalType": "address",
          "name": "_minter",
          "type": "address"
        }
      ],
      "name": "_mint",
      "outputs": [
        {
          "internalType": "uint256",
          "name": "",
          "type": "uint256"
        }
      ],
      "stateMutability": "nonpayable",
      "type": "function"
    },
    {
      "inputs": [
        {
          "internalType": "address",
          "name": "to",
          "type": "address"
        },
        {
          "internalType": "uint256",
          "name": "tokenId",
          "type": "uint256"
        }
      ],
      "name": "approve",
      "outputs": [],
      "stateMutability": "nonpayable",
      "type": "function"
    },
    {
      "inputs": [
        {
          "internalType": "address",
          "name": "owner",
          "type": "address"
        }
      ],
      "name": "balanceOf",
      "outputs": [
        {
          "internalType": "uint256",
          "name": "",
          "type": "uint256"
        }
      ],
      "stateMutability": "view",
      "type": "function"
    },
    {
      "inputs": [
        {
          "internalType": "uint256",
          "name": "tokenId",
          "type": "uint256"
        }
      ],
      "name": "getApproved",
      "outputs": [
        {
          "internalType": "address",
          "name": "",
          "type": "address"
        }
      ],
      "stateMutability": "view",
      "type": "function"
    },
    {
      "inputs": [
        {
          "internalType": "address",
          "name": "owner",
          "type": "address"
        },
        {
          "internalType": "address",
          "name": "operator",
          "type": "address"
        }
      ],
      "name": "isApprovedForAll",
      "outputs": [
        {
          "internalType": "bool",
          "name": "",
          "type": "bool"
        }
      ],
      "stateMutability": "view",
      "type": "function"
    },
    {
      "inputs": [
        {
          "internalType": "address",
          "name": "_user",
          "type": "address"
        }
      ],
      "name": "mintReferralNFT",
      "outputs": [],
      "stateMutability": "nonpayable",
      "type": "function"
    },
    {
      "inputs": [],
      "name": "name",
      "outputs": [
        {
          "internalType": "string",
          "name": "",
          "type": "string"
        }
      ],
      "stateMutability": "view",
      "type": "function"
    },
    {
      "inputs": [],
      "name": "nft",
      "outputs": [
        {
          "internalType": "contract LuckyNFT",
          "name": "",
          "type": "address"
        }
      ],
      "stateMutability": "view",
      "type": "function"
    },
    {
      "inputs": [],
      "name": "owner",
      "outputs": [
        {
          "internalType": "address",
          "name": "",
          "type": "address"
        }
      ],
      "stateMutability": "view",
      "type": "function"
    },
    {
      "inputs": [
        {
          "internalType": "uint256",
          "name": "tokenId",
          "type": "uint256"
        }
      ],
      "name": "ownerOf",
      "outputs": [
        {
          "internalType": "address",
          "name": "",
          "type": "address"
        }
      ],
      "stateMutability": "view",
      "type": "function"
    },
    {
      "inputs": [
        {
          "internalType": "address",
          "name": "referrer",
          "type": "address"
        }
      ],
      "name": "purchaseItem",
      "outputs": [],
      "stateMutability": "payable",
      "type": "function"
    },
    {
      "inputs": [],
      "name": "renounceOwnership",
      "outputs": [],
      "stateMutability": "nonpayable",
      "type": "function"
    },
    {
      "inputs": [
        {
          "internalType": "address",
          "name": "from",
          "type": "address"
        },
        {
          "internalType": "address",
          "name": "to",
          "type": "address"
        },
        {
          "internalType": "uint256",
          "name": "tokenId",
          "type": "uint256"
        }
      ],
      "name": "safeTransferFrom",
      "outputs": [],
      "stateMutability": "nonpayable",
      "type": "function"
    },
    {
      "inputs": [
        {
          "internalType": "address",
          "name": "from",
          "type": "address"
        },
        {
          "internalType": "address",
          "name": "to",
          "type": "address"
        },
        {
          "internalType": "uint256",
          "name": "tokenId",
          "type": "uint256"
        },
        {
          "internalType": "bytes",
          "name": "_data",
          "type": "bytes"
        }
      ],
      "name": "safeTransferFrom",
      "outputs": [],
      "stateMutability": "nonpayable",
      "type": "function"
    },
    {
      "inputs": [
        {
          "internalType": "address",
          "name": "operator",
          "type": "address"
        },
        {
          "internalType": "bool",
          "name": "approved",
          "type": "bool"
        }
      ],
      "name": "setApprovalForAll",
      "outputs": [],
      "stateMutability": "nonpayable",
      "type": "function"
    },
    {
      "inputs": [
        {
          "internalType": "bytes4",
          "name": "interfaceId",
          "type": "bytes4"
        }
      ],
      "name": "supportsInterface",
      "outputs": [
        {
          "internalType": "bool",
          "name": "",
          "type": "bool"
        }
      ],
      "stateMutability": "view",
      "type": "function"
    },
    {
      "inputs": [],
      "name": "symbol",
      "outputs": [
        {
          "internalType": "string",
          "name": "",
          "type": "string"
        }
      ],
      "stateMutability": "view",
      "type": "function"
    },
    {
      "inputs": [],
      "name": "tokenCount",
      "outputs": [
        {
          "internalType": "uint256",
          "name": "",
          "type": "uint256"
        }
      ],
      "stateMutability": "view",
      "type": "function"
    },
    {
      "inputs": [],
      "name": "tokenSupply",
      "outputs": [
        {
          "internalType": "uint256",
          "name": "",
          "type": "uint256"
        }
      ],
      "stateMutability": "view",
      "type": "function"
    },
    {
      "inputs": [
        {
          "internalType": "uint256",
          "name": "tokenId",
          "type": "uint256"
        }
      ],
      "name": "tokenURI",
      "outputs": [
        {
          "internalType": "string",
          "name": "",
          "type": "string"
        }
      ],
      "stateMutability": "view",
      "type": "function"
    },
    {
      "inputs": [
        {
          "internalType": "address",
          "name": "from",
          "type": "address"
        },
        {
          "internalType": "address",
          "name": "to",
          "type": "address"
        },
        {
          "internalType": "uint256",
          "name": "tokenId",
          "type": "uint256"
        }
      ],
      "name": "transferFrom",
      "outputs": [],
      "stateMutability": "nonpayable",
      "type": "function"
    },
    {
      "inputs": [
        {
          "internalType": "address",
          "name": "newOwner",
          "type": "address"
        }
      ],
      "name": "transferOwnership",
      "outputs": [],
      "stateMutability": "nonpayable",
      "type": "function"
    },
    {
      "inputs": [
        {
          "internalType": "address",
          "name": "",
          "type": "address"
        }
      ],
      "name": "users",
      "outputs": [
        {
          "internalType": "bool",
          "name": "hasReceivedReferralNFT",
          "type": "bool"
        },
        {
          "internalType": "uint256",
          "name": "referredPurchaseCount",
          "type": "uint256"
        },
        {
          "internalType": "uint256",
          "name": "commsBalance",
          "type": "uint256"
        }
      ],
      "stateMutability": "view",
      "type": "function"
    },
    {
      "inputs": [
        {
          "internalType": "address",
          "name": "referrer",
          "type": "address"
        }
      ],
      "name": "withdraw",
      "outputs": [],
      "stateMutability": "payable",
      "type": "function"
    }
  ],
  "bytecode": "0x608060405260646009553480156200001657600080fd5b5060405162003b2d38038062003b2d83398181016040528101906200003c919062000354565b6040518060400160405280600581526020017f4c75636b790000000000000000000000000000000000000000000000000000008152506040518060400160405280600581526020017f4c55434b59000000000000000000000000000000000000000000000000000000815250620000c8620000bc620001aa60201b60201c565b620001b260201b60201c565b600180819055508160029080519060200190620000e792919062000276565b5080600390805190602001906200010092919062000276565b50505081600a60006101000a81548173ffffffffffffffffffffffffffffffffffffffff021916908373ffffffffffffffffffffffffffffffffffffffff16021790555080600b60146101000a81548161ffff021916908361ffff16021790555033600b60006101000a81548173ffffffffffffffffffffffffffffffffffffffff021916908373ffffffffffffffffffffffffffffffffffffffff160217905550505062000484565b600033905090565b60008060009054906101000a900473ffffffffffffffffffffffffffffffffffffffff169050816000806101000a81548173ffffffffffffffffffffffffffffffffffffffff021916908373ffffffffffffffffffffffffffffffffffffffff1602179055508173ffffffffffffffffffffffffffffffffffffffff168173ffffffffffffffffffffffffffffffffffffffff167f8be0079c531659141344cd1fd0a4f28419497f9722a3daafe3b4186f6b6457e060405160405180910390a35050565b8280546200028490620003eb565b90600052602060002090601f016020900481019282620002a85760008555620002f4565b82601f10620002c357805160ff1916838001178555620002f4565b82800160010185558215620002f4579182015b82811115620002f3578251825591602001919060010190620002d6565b5b50905062000303919062000307565b5090565b5b808211156200032257600081600090555060010162000308565b5090565b600081519050620003378162000450565b92915050565b6000815190506200034e816200046a565b92915050565b600080604083850312156200036857600080fd5b6000620003788582860162000326565b92505060206200038b858286016200033d565b9150509250929050565b6000620003a282620003cb565b9050919050565b6000620003b68262000395565b9050919050565b600061ffff82169050919050565b600073ffffffffffffffffffffffffffffffffffffffff82169050919050565b600060028204905060018216806200040457607f821691505b602082108114156200041b576200041a62000421565b5b50919050565b7f4e487b7100000000000000000000000000000000000000000000000000000000600052602260045260246000fd5b6200045b81620003a9565b81146200046757600080fd5b50565b6200047581620003bd565b81146200048157600080fd5b50565b61369980620004946000396000f3fe60806040526004361061014b5760003560e01c8063715018a6116100b6578063a87430ba1161006f578063a87430ba14610476578063b88d4fde146104b5578063c87b56dd146104de578063cce4b9591461051b578063e985e9c514610544578063f2fde38b146105815761014b565b8063715018a61461038a5780637824407f146103a15780638da5cb5b146103cc57806395d89b41146103f75780639f181b5e14610422578063a22cb4651461044d5761014b565b806342842e0e1161010857806342842e0e1461028457806347ccca02146102ad57806351cff8d9146102d85780636352211e146102f45780636c9604091461033157806370a082311461034d5761014b565b806301ffc9a71461015057806306fdde031461018d578063081812fc146101b8578063095ea7b3146101f557806309aa7b671461021e57806323b872dd1461025b575b600080fd5b34801561015c57600080fd5b5061017760048036038101906101729190612419565b6105aa565b6040516101849190612930565b60405180910390f35b34801561019957600080fd5b506101a261068c565b6040516101af919061299d565b60405180910390f35b3480156101c457600080fd5b506101df60048036038101906101da919061246b565b61071e565b6040516101ec91906128ae565b60405180910390f35b34801561020157600080fd5b5061021c600480360381019061021791906123dd565b6107a3565b005b34801561022a57600080fd5b5061024560048036038101906102409190612272565b6108bb565b6040516102529190612c5f565b60405180910390f35b34801561026757600080fd5b50610282600480360381019061027d91906122d7565b610932565b005b34801561029057600080fd5b506102ab60048036038101906102a691906122d7565b610992565b005b3480156102b957600080fd5b506102c26109b2565b6040516102cf9190612982565b60405180910390f35b6102f260048036038101906102ed9190612272565b6109d8565b005b34801561030057600080fd5b5061031b6004803603810190610316919061246b565b610bbb565b60405161032891906128ae565b60405180910390f35b61034b60048036038101906103469190612272565b610c6d565b005b34801561035957600080fd5b50610374600480360381019061036f9190612272565b610dd9565b6040516103819190612c5f565b60405180910390f35b34801561039657600080fd5b5061039f610e91565b005b3480156103ad57600080fd5b506103b6610f19565b6040516103c39190612c5f565b60405180910390f35b3480156103d857600080fd5b506103e1610f1f565b6040516103ee91906128ae565b60405180910390f35b34801561040357600080fd5b5061040c610f48565b604051610419919061299d565b60405180910390f35b34801561042e57600080fd5b50610437610fda565b6040516104449190612c5f565b60405180910390f35b34801561045957600080fd5b50610474600480360381019061046f91906123a1565b610fe0565b005b34801561048257600080fd5b5061049d60048036038101906104989190612272565b610ff6565b6040516104ac9392919061294b565b60405180910390f35b3480156104c157600080fd5b506104dc60048036038101906104d79190612326565b61102d565b005b3480156104ea57600080fd5b506105056004803603810190610500919061246b565b61108f565b604051610512919061299d565b60405180910390f35b34801561052757600080fd5b50610542600480360381019061053d9190612272565b611136565b005b34801561055057600080fd5b5061056b6004803603810190610566919061229b565b6112bc565b6040516105789190612930565b60405180910390f35b34801561058d57600080fd5b506105a860048036038101906105a39190612272565b611350565b005b60007f80ac58cd000000000000000000000000000000000000000000000000000000007bffffffffffffffffffffffffffffffffffffffffffffffffffffffff1916827bffffffffffffffffffffffffffffffffffffffffffffffffffffffff1916148061067557507f5b5e139f000000000000000000000000000000000000000000000000000000007bffffffffffffffffffffffffffffffffffffffffffffffffffffffff1916827bffffffffffffffffffffffffffffffffffffffffffffffffffffffff1916145b80610685575061068482611448565b5b9050919050565b60606002805461069b90612f38565b80601f01602080910402602001604051908101604052809291908181526020018280546106c790612f38565b80156107145780601f106106e957610100808354040283529160200191610714565b820191906000526020600020905b8154815290600101906020018083116106f757829003601f168201915b5050505050905090565b6000610729826114b2565b610768576040517f08c379a000000000000000000000000000000000000000000000000000000000815260040161075f90612b5f565b60405180910390fd5b6006600083815260200190815260200160002060009054906101000a900473ffffffffffffffffffffffffffffffffffffffff169050919050565b60006107ae82610bbb565b90508073ffffffffffffffffffffffffffffffffffffffff168373ffffffffffffffffffffffffffffffffffffffff16141561081f576040517f08c379a000000000000000000000000000000000000000000000000000000000815260040161081690612bbf565b60405180910390fd5b8073ffffffffffffffffffffffffffffffffffffffff1661083e61151e565b73ffffffffffffffffffffffffffffffffffffffff16148061086d575061086c8161086761151e565b6112bc565b5b6108ac576040517f08c379a00000000000000000000000000000000000000000000000000000000081526004016108a390612abf565b60405180910390fd5b6108b68383611526565b505050565b6000600860008154809291906108d090612f9b565b9190505550600954600854111561091c576040517f08c379a000000000000000000000000000000000000000000000000000000000815260040161091390612adf565b60405180910390fd5b610928826008546115df565b6008549050919050565b61094361093d61151e565b826115fd565b610982576040517f08c379a000000000000000000000000000000000000000000000000000000000815260040161097990612bff565b60405180910390fd5b61098d8383836116db565b505050565b6109ad8383836040518060200160405280600081525061102d565b505050565b600a60009054906101000a900473ffffffffffffffffffffffffffffffffffffffff1681565b60026001541415610a1e576040517f08c379a0000000000000000000000000000000000000000000000000000000008152600401610a1590612c1f565b60405180910390fd5b600260018190555060008190506000600c60008473ffffffffffffffffffffffffffffffffffffffff1673ffffffffffffffffffffffffffffffffffffffff16815260200190815260200160002090506000816002015490508160000160009054906101000a900460ff16610ac8576040517f08c379a0000000000000000000000000000000000000000000000000000000008152600401610abf90612bdf565b60405180910390fd5b60008111610b0b576040517f08c379a0000000000000000000000000000000000000000000000000000000008152600401610b0290612a3f565b60405180910390fd5b8273ffffffffffffffffffffffffffffffffffffffff166108fc83600201549081150290604051600060405180830381858888f19350505050158015610b55573d6000803e3d6000fd5b50600082600201819055508373ffffffffffffffffffffffffffffffffffffffff167f7fcf532c15f0a6db0bd6d0e038bea71d30d808c7d98cb3bf7268a95bf5081b6582604051610ba69190612c5f565b60405180910390a25050506001808190555050565b6000806004600084815260200190815260200160002060009054906101000a900473ffffffffffffffffffffffffffffffffffffffff169050600073ffffffffffffffffffffffffffffffffffffffff168173ffffffffffffffffffffffffffffffffffffffff161415610c64576040517f08c379a0000000000000000000000000000000000000000000000000000000008152600401610c5b90612b1f565b60405180910390fd5b80915050919050565b60006064600b60149054906101000a900461ffff1661ffff1634610c919190612d9a565b610c9b9190612d69565b90506000600c60008473ffffffffffffffffffffffffffffffffffffffff1673ffffffffffffffffffffffffffffffffffffffff168152602001908152602001600020905081816002016000828254610cf49190612d13565b92505081905550806001016000815480929190610d1090612f9b565b919050555080600301339080600181540180825580915050600190039060005260206000200160009091909190916101000a81548173ffffffffffffffffffffffffffffffffffffffff021916908373ffffffffffffffffffffffffffffffffffffffff1602179055503373ffffffffffffffffffffffffffffffffffffffff168373ffffffffffffffffffffffffffffffffffffffff167f8530033470abc46fffdc7ac022c72953b8df9f99e6923dfe3ac49afcbe4208fe60405160405180910390a3505050565b60008073ffffffffffffffffffffffffffffffffffffffff168273ffffffffffffffffffffffffffffffffffffffff161415610e4a576040517f08c379a0000000000000000000000000000000000000000000000000000000008152600401610e4190612aff565b60405180910390fd5b600560008373ffffffffffffffffffffffffffffffffffffffff1673ffffffffffffffffffffffffffffffffffffffff168152602001908152602001600020549050919050565b610e9961151e565b73ffffffffffffffffffffffffffffffffffffffff16610eb7610f1f565b73ffffffffffffffffffffffffffffffffffffffff1614610f0d576040517f08c379a0000000000000000000000000000000000000000000000000000000008152600401610f0490612b7f565b60405180910390fd5b610f176000611942565b565b60095481565b60008060009054906101000a900473ffffffffffffffffffffffffffffffffffffffff16905090565b606060038054610f5790612f38565b80601f0160208091040260200160405190810160405280929190818152602001828054610f8390612f38565b8015610fd05780601f10610fa557610100808354040283529160200191610fd0565b820191906000526020600020905b815481529060010190602001808311610fb357829003601f168201915b5050505050905090565b60085481565b610ff2610feb61151e565b8383611a06565b5050565b600c6020528060005260406000206000915090508060000160009054906101000a900460ff16908060010154908060020154905083565b61103e61103861151e565b836115fd565b61107d576040517f08c379a000000000000000000000000000000000000000000000000000000000815260040161107490612bff565b60405180910390fd5b61108984848484611b73565b50505050565b606061109a826114b2565b6110d9576040517f08c379a00000000000000000000000000000000000000000000000000000000081526004016110d090612b9f565b60405180910390fd5b60006110e3611bcf565b90506000815111611103576040518060200160405280600081525061112e565b8061110d84611be6565b60405160200161111e92919061288a565b6040516020818303038152906040525b915050919050565b6000600c60008373ffffffffffffffffffffffffffffffffffffffff1673ffffffffffffffffffffffffffffffffffffffff16815260200190815260200160002090508060000160009054906101000a900460ff16156111cb576040517f08c379a00000000000000000000000000000000000000000000000000000000081526004016111c290612c3f565b60405180910390fd5b60018160000160006101000a81548160ff021916908315150217905550600a60009054906101000a900473ffffffffffffffffffffffffffffffffffffffff1673ffffffffffffffffffffffffffffffffffffffff166309aa7b67600b60009054906101000a900473ffffffffffffffffffffffffffffffffffffffff166040518263ffffffff1660e01b815260040161126591906128c9565b602060405180830381600087803b15801561127f57600080fd5b505af1158015611293573d6000803e3d6000fd5b505050506040513d601f19601f820116820180604052508101906112b79190612494565b505050565b6000600760008473ffffffffffffffffffffffffffffffffffffffff1673ffffffffffffffffffffffffffffffffffffffff16815260200190815260200160002060008373ffffffffffffffffffffffffffffffffffffffff1673ffffffffffffffffffffffffffffffffffffffff16815260200190815260200160002060009054906101000a900460ff16905092915050565b61135861151e565b73ffffffffffffffffffffffffffffffffffffffff16611376610f1f565b73ffffffffffffffffffffffffffffffffffffffff16146113cc576040517f08c379a00000000000000000000000000000000000000000000000000000000081526004016113c390612b7f565b60405180910390fd5b600073ffffffffffffffffffffffffffffffffffffffff168173ffffffffffffffffffffffffffffffffffffffff16141561143c576040517f08c379a0000000000000000000000000000000000000000000000000000000008152600401611433906129df565b60405180910390fd5b61144581611942565b50565b60007f01ffc9a7000000000000000000000000000000000000000000000000000000007bffffffffffffffffffffffffffffffffffffffffffffffffffffffff1916827bffffffffffffffffffffffffffffffffffffffffffffffffffffffff1916149050919050565b60008073ffffffffffffffffffffffffffffffffffffffff166004600084815260200190815260200160002060009054906101000a900473ffffffffffffffffffffffffffffffffffffffff1673ffffffffffffffffffffffffffffffffffffffff1614159050919050565b600033905090565b816006600083815260200190815260200160002060006101000a81548173ffffffffffffffffffffffffffffffffffffffff021916908373ffffffffffffffffffffffffffffffffffffffff160217905550808273ffffffffffffffffffffffffffffffffffffffff1661159983610bbb565b73ffffffffffffffffffffffffffffffffffffffff167f8c5be1e5ebec7d5bd14f71427d1e84f3dd0314c0f7b2291e5b200ac8c7c3b92560405160405180910390a45050565b6115f9828260405180602001604052806000815250611d93565b5050565b6000611608826114b2565b611647576040517f08c379a000000000000000000000000000000000000000000000000000000000815260040161163e90612a9f565b60405180910390fd5b600061165283610bbb565b90508073ffffffffffffffffffffffffffffffffffffffff168473ffffffffffffffffffffffffffffffffffffffff1614806116c157508373ffffffffffffffffffffffffffffffffffffffff166116a98461071e565b73ffffffffffffffffffffffffffffffffffffffff16145b806116d257506116d181856112bc565b5b91505092915050565b8273ffffffffffffffffffffffffffffffffffffffff166116fb82610bbb565b73ffffffffffffffffffffffffffffffffffffffff1614611751576040517f08c379a0000000000000000000000000000000000000000000000000000000008152600401611748906129ff565b60405180910390fd5b600073ffffffffffffffffffffffffffffffffffffffff168273ffffffffffffffffffffffffffffffffffffffff1614156117c1576040517f08c379a00000000000000000000000000000000000000000000000000000000081526004016117b890612a5f565b60405180910390fd5b6117cc838383611dee565b6117d7600082611526565b6001600560008573ffffffffffffffffffffffffffffffffffffffff1673ffffffffffffffffffffffffffffffffffffffff16815260200190815260200160002060008282546118279190612df4565b925050819055506001600560008473ffffffffffffffffffffffffffffffffffffffff1673ffffffffffffffffffffffffffffffffffffffff168152602001908152602001600020600082825461187e9190612d13565b92505081905550816004600083815260200190815260200160002060006101000a81548173ffffffffffffffffffffffffffffffffffffffff021916908373ffffffffffffffffffffffffffffffffffffffff160217905550808273ffffffffffffffffffffffffffffffffffffffff168473ffffffffffffffffffffffffffffffffffffffff167fddf252ad1be2c89b69c2b068fc378daa952ba7f163c4a11628f55a4df523b3ef60405160405180910390a461193d838383611df3565b505050565b60008060009054906101000a900473ffffffffffffffffffffffffffffffffffffffff169050816000806101000a81548173ffffffffffffffffffffffffffffffffffffffff021916908373ffffffffffffffffffffffffffffffffffffffff1602179055508173ffffffffffffffffffffffffffffffffffffffff168173ffffffffffffffffffffffffffffffffffffffff167f8be0079c531659141344cd1fd0a4f28419497f9722a3daafe3b4186f6b6457e060405160405180910390a35050565b8173ffffffffffffffffffffffffffffffffffffffff168373ffffffffffffffffffffffffffffffffffffffff161415611a75576040517f08c379a0000000000000000000000000000000000000000000000000000000008152600401611a6c90612a7f565b60405180910390fd5b80600760008573ffffffffffffffffffffffffffffffffffffffff1673ffffffffffffffffffffffffffffffffffffffff16815260200190815260200160002060008473ffffffffffffffffffffffffffffffffffffffff1673ffffffffffffffffffffffffffffffffffffffff16815260200190815260200160002060006101000a81548160ff0219169083151502179055508173ffffffffffffffffffffffffffffffffffffffff168373ffffffffffffffffffffffffffffffffffffffff167f17307eab39ab6107e8899845ad3d59bd9653f200f220920489ca2b5937696c3183604051611b669190612930565b60405180910390a3505050565b611b7e8484846116db565b611b8a84848484611df8565b611bc9576040517f08c379a0000000000000000000000000000000000000000000000000000000008152600401611bc0906129bf565b60405180910390fd5b50505050565b606060405180602001604052806000815250905090565b60606000821415611c2e576040518060400160405280600181526020017f30000000000000000000000000000000000000000000000000000000000000008152509050611d8e565b600082905060005b60008214611c60578080611c4990612f9b565b915050600a82611c599190612d69565b9150611c36565b60008167ffffffffffffffff811115611ca2577f4e487b7100000000000000000000000000000000000000000000000000000000600052604160045260246000fd5b6040519080825280601f01601f191660200182016040528015611cd45781602001600182028036833780820191505090505b5090505b60008514611d8757600182611ced9190612df4565b9150600a85611cfc9190612fe4565b6030611d089190612d13565b60f81b818381518110611d44577f4e487b7100000000000000000000000000000000000000000000000000000000600052603260045260246000fd5b60200101907effffffffffffffffffffffffffffffffffffffffffffffffffffffffffffff1916908160001a905350600a85611d809190612d69565b9450611cd8565b8093505050505b919050565b611d9d8383611f8f565b611daa6000848484611df8565b611de9576040517f08c379a0000000000000000000000000000000000000000000000000000000008152600401611de0906129bf565b60405180910390fd5b505050565b505050565b505050565b6000611e198473ffffffffffffffffffffffffffffffffffffffff16612169565b15611f82578373ffffffffffffffffffffffffffffffffffffffff1663150b7a02611e4261151e565b8786866040518563ffffffff1660e01b8152600401611e6494939291906128e4565b602060405180830381600087803b158015611e7e57600080fd5b505af1925050508015611eaf57506040513d601f19601f82011682018060405250810190611eac9190612442565b60015b611f32573d8060008114611edf576040519150601f19603f3d011682016040523d82523d6000602084013e611ee4565b606091505b50600081511415611f2a576040517f08c379a0000000000000000000000000000000000000000000000000000000008152600401611f21906129bf565b60405180910390fd5b805181602001fd5b63150b7a0260e01b7bffffffffffffffffffffffffffffffffffffffffffffffffffffffff1916817bffffffffffffffffffffffffffffffffffffffffffffffffffffffff191614915050611f87565b600190505b949350505050565b600073ffffffffffffffffffffffffffffffffffffffff168273ffffffffffffffffffffffffffffffffffffffff161415611fff576040517f08c379a0000000000000000000000000000000000000000000000000000000008152600401611ff690612b3f565b60405180910390fd5b612008816114b2565b15612048576040517f08c379a000000000000000000000000000000000000000000000000000000000815260040161203f90612a1f565b60405180910390fd5b61205460008383611dee565b6001600560008473ffffffffffffffffffffffffffffffffffffffff1673ffffffffffffffffffffffffffffffffffffffff16815260200190815260200160002060008282546120a49190612d13565b92505081905550816004600083815260200190815260200160002060006101000a81548173ffffffffffffffffffffffffffffffffffffffff021916908373ffffffffffffffffffffffffffffffffffffffff160217905550808273ffffffffffffffffffffffffffffffffffffffff16600073ffffffffffffffffffffffffffffffffffffffff167fddf252ad1be2c89b69c2b068fc378daa952ba7f163c4a11628f55a4df523b3ef60405160405180910390a461216560008383611df3565b5050565b6000808273ffffffffffffffffffffffffffffffffffffffff163b119050919050565b600061219f61219a84612c9f565b612c7a565b9050828152602081018484840111156121b757600080fd5b6121c2848285612ef6565b509392505050565b6000813590506121d981613607565b92915050565b6000813590506121ee8161361e565b92915050565b60008135905061220381613635565b92915050565b60008151905061221881613635565b92915050565b600082601f83011261222f57600080fd5b813561223f84826020860161218c565b91505092915050565b6000813590506122578161364c565b92915050565b60008151905061226c8161364c565b92915050565b60006020828403121561228457600080fd5b6000612292848285016121ca565b91505092915050565b600080604083850312156122ae57600080fd5b60006122bc858286016121ca565b92505060206122cd858286016121ca565b9150509250929050565b6000806000606084860312156122ec57600080fd5b60006122fa868287016121ca565b935050602061230b868287016121ca565b925050604061231c86828701612248565b9150509250925092565b6000806000806080858703121561233c57600080fd5b600061234a878288016121ca565b945050602061235b878288016121ca565b935050604061236c87828801612248565b925050606085013567ffffffffffffffff81111561238957600080fd5b6123958782880161221e565b91505092959194509250565b600080604083850312156123b457600080fd5b60006123c2858286016121ca565b92505060206123d3858286016121df565b9150509250929050565b600080604083850312156123f057600080fd5b60006123fe858286016121ca565b925050602061240f85828601612248565b9150509250929050565b60006020828403121561242b57600080fd5b6000612439848285016121f4565b91505092915050565b60006020828403121561245457600080fd5b600061246284828501612209565b91505092915050565b60006020828403121561247d57600080fd5b600061248b84828501612248565b91505092915050565b6000602082840312156124a657600080fd5b60006124b48482850161225d565b91505092915050565b6124c681612e9c565b82525050565b6124d581612e28565b82525050565b6124e481612e3a565b82525050565b60006124f582612cd0565b6124ff8185612ce6565b935061250f818560208601612f05565b612518816130d1565b840191505092915050565b61252c81612eae565b82525050565b600061253d82612cdb565b6125478185612cf7565b9350612557818560208601612f05565b612560816130d1565b840191505092915050565b600061257682612cdb565b6125808185612d08565b9350612590818560208601612f05565b80840191505092915050565b60006125a9603283612cf7565b91506125b4826130e2565b604082019050919050565b60006125cc602683612cf7565b91506125d782613131565b604082019050919050565b60006125ef602583612cf7565b91506125fa82613180565b604082019050919050565b6000612612601c83612cf7565b915061261d826131cf565b602082019050919050565b6000612635601683612cf7565b9150612640826131f8565b602082019050919050565b6000612658602483612cf7565b915061266382613221565b604082019050919050565b600061267b601983612cf7565b915061268682613270565b602082019050919050565b600061269e602c83612cf7565b91506126a982613299565b604082019050919050565b60006126c1603883612cf7565b91506126cc826132e8565b604082019050919050565b60006126e4601283612cf7565b91506126ef82613337565b602082019050919050565b6000612707602a83612cf7565b915061271282613360565b604082019050919050565b600061272a602983612cf7565b9150612735826133af565b604082019050919050565b600061274d602083612cf7565b9150612758826133fe565b602082019050919050565b6000612770602c83612cf7565b915061277b82613427565b604082019050919050565b6000612793602083612cf7565b915061279e82613476565b602082019050919050565b60006127b6602f83612cf7565b91506127c18261349f565b604082019050919050565b60006127d9602183612cf7565b91506127e4826134ee565b604082019050919050565b60006127fc601583612cf7565b91506128078261353d565b602082019050919050565b600061281f603183612cf7565b915061282a82613566565b604082019050919050565b6000612842601f83612cf7565b915061284d826135b5565b602082019050919050565b6000612865600e83612cf7565b9150612870826135de565b602082019050919050565b61288481612e92565b82525050565b6000612896828561256b565b91506128a2828461256b565b91508190509392505050565b60006020820190506128c360008301846124cc565b92915050565b60006020820190506128de60008301846124bd565b92915050565b60006080820190506128f960008301876124cc565b61290660208301866124cc565b612913604083018561287b565b818103606083015261292581846124ea565b905095945050505050565b600060208201905061294560008301846124db565b92915050565b600060608201905061296060008301866124db565b61296d602083018561287b565b61297a604083018461287b565b949350505050565b60006020820190506129976000830184612523565b92915050565b600060208201905081810360008301526129b78184612532565b905092915050565b600060208201905081810360008301526129d88161259c565b9050919050565b600060208201905081810360008301526129f8816125bf565b9050919050565b60006020820190508181036000830152612a18816125e2565b9050919050565b60006020820190508181036000830152612a3881612605565b9050919050565b60006020820190508181036000830152612a5881612628565b9050919050565b60006020820190508181036000830152612a788161264b565b9050919050565b60006020820190508181036000830152612a988161266e565b9050919050565b60006020820190508181036000830152612ab881612691565b9050919050565b60006020820190508181036000830152612ad8816126b4565b9050919050565b60006020820190508181036000830152612af8816126d7565b9050919050565b60006020820190508181036000830152612b18816126fa565b9050919050565b60006020820190508181036000830152612b388161271d565b9050919050565b60006020820190508181036000830152612b5881612740565b9050919050565b60006020820190508181036000830152612b7881612763565b9050919050565b60006020820190508181036000830152612b9881612786565b9050919050565b60006020820190508181036000830152612bb8816127a9565b9050919050565b60006020820190508181036000830152612bd8816127cc565b9050919050565b60006020820190508181036000830152612bf8816127ef565b9050919050565b60006020820190508181036000830152612c1881612812565b9050919050565b60006020820190508181036000830152612c3881612835565b9050919050565b60006020820190508181036000830152612c5881612858565b9050919050565b6000602082019050612c74600083018461287b565b92915050565b6000612c84612c95565b9050612c908282612f6a565b919050565b6000604051905090565b600067ffffffffffffffff821115612cba57612cb96130a2565b5b612cc3826130d1565b9050602081019050919050565b600081519050919050565b600081519050919050565b600082825260208201905092915050565b600082825260208201905092915050565b600081905092915050565b6000612d1e82612e92565b9150612d2983612e92565b9250827fffffffffffffffffffffffffffffffffffffffffffffffffffffffffffffffff03821115612d5e57612d5d613015565b5b828201905092915050565b6000612d7482612e92565b9150612d7f83612e92565b925082612d8f57612d8e613044565b5b828204905092915050565b6000612da582612e92565b9150612db083612e92565b9250817fffffffffffffffffffffffffffffffffffffffffffffffffffffffffffffffff0483118215151615612de957612de8613015565b5b828202905092915050565b6000612dff82612e92565b9150612e0a83612e92565b925082821015612e1d57612e1c613015565b5b828203905092915050565b6000612e3382612e72565b9050919050565b60008115159050919050565b60007fffffffff0000000000000000000000000000000000000000000000000000000082169050919050565b600073ffffffffffffffffffffffffffffffffffffffff82169050919050565b6000819050919050565b6000612ea782612ed2565b9050919050565b6000612eb982612ec0565b9050919050565b6000612ecb82612e72565b9050919050565b6000612edd82612ee4565b9050919050565b6000612eef82612e72565b9050919050565b82818337600083830152505050565b60005b83811015612f23578082015181840152602081019050612f08565b83811115612f32576000848401525b50505050565b60006002820490506001821680612f5057607f821691505b60208210811415612f6457612f63613073565b5b50919050565b612f73826130d1565b810181811067ffffffffffffffff82111715612f9257612f916130a2565b5b80604052505050565b6000612fa682612e92565b91507fffffffffffffffffffffffffffffffffffffffffffffffffffffffffffffffff821415612fd957612fd8613015565b5b600182019050919050565b6000612fef82612e92565b9150612ffa83612e92565b92508261300a57613009613044565b5b828206905092915050565b7f4e487b7100000000000000000000000000000000000000000000000000000000600052601160045260246000fd5b7f4e487b7100000000000000000000000000000000000000000000000000000000600052601260045260246000fd5b7f4e487b7100000000000000000000000000000000000000000000000000000000600052602260045260246000fd5b7f4e487b7100000000000000000000000000000000000000000000000000000000600052604160045260246000fd5b6000601f19601f8301169050919050565b7f4552433732313a207472616e7366657220746f206e6f6e20455243373231526560008201527f63656976657220696d706c656d656e7465720000000000000000000000000000602082015250565b7f4f776e61626c653a206e6577206f776e657220697320746865207a65726f206160008201527f6464726573730000000000000000000000000000000000000000000000000000602082015250565b7f4552433732313a207472616e736665722066726f6d20696e636f72726563742060008201527f6f776e6572000000000000000000000000000000000000000000000000000000602082015250565b7f4552433732313a20746f6b656e20616c7265616479206d696e74656400000000600082015250565b7f6e6f2062616c616e636520746f20776974686472617700000000000000000000600082015250565b7f4552433732313a207472616e7366657220746f20746865207a65726f2061646460008201527f7265737300000000000000000000000000000000000000000000000000000000602082015250565b7f4552433732313a20617070726f766520746f2063616c6c657200000000000000600082015250565b7f4552433732313a206f70657261746f7220717565727920666f72206e6f6e657860008201527f697374656e7420746f6b656e0000000000000000000000000000000000000000602082015250565b7f4552433732313a20617070726f76652063616c6c6572206973206e6f74206f7760008201527f6e6572206e6f7220617070726f76656420666f7220616c6c0000000000000000602082015250565b7f737570706c79206d696e746564206f7574210000000000000000000000000000600082015250565b7f4552433732313a2062616c616e636520717565727920666f7220746865207a6560008201527f726f206164647265737300000000000000000000000000000000000000000000602082015250565b7f4552433732313a206f776e657220717565727920666f72206e6f6e657869737460008201527f656e7420746f6b656e0000000000000000000000000000000000000000000000602082015250565b7f4552433732313a206d696e7420746f20746865207a65726f2061646472657373600082015250565b7f4552433732313a20617070726f76656420717565727920666f72206e6f6e657860008201527f697374656e7420746f6b656e0000000000000000000000000000000000000000602082015250565b7f4f776e61626c653a2063616c6c6572206973206e6f7420746865206f776e6572600082015250565b7f4552433732314d657461646174613a2055524920717565727920666f72206e6f60008201527f6e6578697374656e7420746f6b656e0000000000000000000000000000000000602082015250565b7f4552433732313a20617070726f76616c20746f2063757272656e74206f776e6560008201527f7200000000000000000000000000000000000000000000000000000000000000602082015250565b7f7573657220646964206e6f74206d696e74206e66740000000000000000000000600082015250565b7f4552433732313a207472616e736665722063616c6c6572206973206e6f74206f60008201527f776e6572206e6f7220617070726f766564000000000000000000000000000000602082015250565b7f5265656e7472616e637947756172643a207265656e7472616e742063616c6c00600082015250565b7f616c7265616479206d696e746564000000000000000000000000000000000000600082015250565b61361081612e28565b811461361b57600080fd5b50565b61362781612e3a565b811461363257600080fd5b50565b61363e81612e46565b811461364957600080fd5b50565b61365581612e92565b811461366057600080fd5b5056fea26469706673582212205a74a9b24e3dc9c2127ffbd3e05b53ab587a5a83839ede1d7dfb216374b0fb1c64736f6c63430008040033",
  "linkReferences": {},
  "deployedLinkReferences": {}
}