{
  "_format": "hh-sol-artifact-1",
  "contractName": "LuckyNFT",
  "sourceName": "src/backend/contracts/LuckyNFT.sol",
  "abi": [
    {
      "inputs": [
        {
          "internalType": "address",
          "name": "_payToken",
          "type": "address"
        }
      ],
      "stateMutability": "nonpayable",
      "type": "constructor"
    },
    {
      "anonymous": false,
      "inputs": [
        {
          "indexed": true,
          "internalType": "address",
          "name": "owner",
          "type": "address"
        },
        {
          "indexed": true,
          "internalType": "address",
          "name": "approved",
          "type": "address"
        },
        {
          "indexed": true,
          "internalType": "uint256",
          "name": "tokenId",
          "type": "uint256"
        }
      ],
      "name": "Approval",
      "type": "event"
    },
    {
      "anonymous": false,
      "inputs": [
        {
          "indexed": true,
          "internalType": "address",
          "name": "owner",
          "type": "address"
        },
        {
          "indexed": true,
          "internalType": "address",
          "name": "operator",
          "type": "address"
        },
        {
          "indexed": false,
          "internalType": "bool",
          "name": "approved",
          "type": "bool"
        }
      ],
      "name": "ApprovalForAll",
      "type": "event"
    },
    {
      "anonymous": false,
      "inputs": [
        {
          "indexed": true,
          "internalType": "address",
          "name": "previousOwner",
          "type": "address"
        },
        {
          "indexed": true,
          "internalType": "address",
          "name": "newOwner",
          "type": "address"
        }
      ],
      "name": "OwnershipTransferred",
      "type": "event"
    },
    {
      "anonymous": false,
      "inputs": [
        {
          "indexed": true,
          "internalType": "address",
          "name": "from",
          "type": "address"
        },
        {
          "indexed": true,
          "internalType": "address",
          "name": "to",
          "type": "address"
        },
        {
          "indexed": true,
          "internalType": "uint256",
          "name": "tokenId",
          "type": "uint256"
        }
      ],
      "name": "Transfer",
      "type": "event"
    },
    {
      "inputs": [
        {
          "internalType": "address",
          "name": "to",
          "type": "address"
        },
        {
          "internalType": "uint256",
          "name": "tokenId",
          "type": "uint256"
        }
      ],
      "name": "approve",
      "outputs": [],
      "stateMutability": "nonpayable",
      "type": "function"
    },
    {
      "inputs": [
        {
          "internalType": "address",
          "name": "owner",
          "type": "address"
        }
      ],
      "name": "balanceOf",
      "outputs": [
        {
          "internalType": "uint256",
          "name": "",
          "type": "uint256"
        }
      ],
      "stateMutability": "view",
      "type": "function"
    },
    {
      "inputs": [],
      "name": "fundsAddr",
      "outputs": [
        {
          "internalType": "address",
          "name": "",
          "type": "address"
        }
      ],
      "stateMutability": "view",
      "type": "function"
    },
    {
      "inputs": [
        {
          "internalType": "uint256",
          "name": "tokenId",
          "type": "uint256"
        }
      ],
      "name": "getApproved",
      "outputs": [
        {
          "internalType": "address",
          "name": "",
          "type": "address"
        }
      ],
      "stateMutability": "view",
      "type": "function"
    },
    {
      "inputs": [
        {
          "internalType": "address",
          "name": "owner",
          "type": "address"
        },
        {
          "internalType": "address",
          "name": "operator",
          "type": "address"
        }
      ],
      "name": "isApprovedForAll",
      "outputs": [
        {
          "internalType": "bool",
          "name": "",
          "type": "bool"
        }
      ],
      "stateMutability": "view",
      "type": "function"
    },
    {
      "inputs": [],
      "name": "maxMintAmount",
      "outputs": [
        {
          "internalType": "uint256",
          "name": "",
          "type": "uint256"
        }
      ],
      "stateMutability": "view",
      "type": "function"
    },
    {
      "inputs": [
        {
          "internalType": "address",
          "name": "_to",
          "type": "address"
        },
        {
          "internalType": "uint256",
          "name": "_mintAmount",
          "type": "uint256"
        }
      ],
      "name": "mint",
      "outputs": [],
      "stateMutability": "payable",
      "type": "function"
    },
    {
      "inputs": [],
      "name": "mintPrice",
      "outputs": [
        {
          "internalType": "uint256",
          "name": "",
          "type": "uint256"
        }
      ],
      "stateMutability": "view",
      "type": "function"
    },
    {
      "inputs": [],
      "name": "name",
      "outputs": [
        {
          "internalType": "string",
          "name": "",
          "type": "string"
        }
      ],
      "stateMutability": "view",
      "type": "function"
    },
    {
      "inputs": [],
      "name": "owner",
      "outputs": [
        {
          "internalType": "address",
          "name": "",
          "type": "address"
        }
      ],
      "stateMutability": "view",
      "type": "function"
    },
    {
      "inputs": [
        {
          "internalType": "uint256",
          "name": "tokenId",
          "type": "uint256"
        }
      ],
      "name": "ownerOf",
      "outputs": [
        {
          "internalType": "address",
          "name": "",
          "type": "address"
        }
      ],
      "stateMutability": "view",
      "type": "function"
    },
    {
      "inputs": [],
      "name": "payToken",
      "outputs": [
        {
          "internalType": "contract IERC20",
          "name": "",
          "type": "address"
        }
      ],
      "stateMutability": "view",
      "type": "function"
    },
    {
      "inputs": [],
      "name": "renounceOwnership",
      "outputs": [],
      "stateMutability": "nonpayable",
      "type": "function"
    },
    {
      "inputs": [],
      "name": "royaltyAddr",
      "outputs": [
        {
          "internalType": "address",
          "name": "",
          "type": "address"
        }
      ],
      "stateMutability": "view",
      "type": "function"
    },
    {
      "inputs": [
        {
          "internalType": "uint256",
          "name": "_tokenId",
          "type": "uint256"
        },
        {
          "internalType": "uint256",
          "name": "_salePrice",
          "type": "uint256"
        }
      ],
      "name": "royaltyInfo",
      "outputs": [
        {
          "internalType": "address",
          "name": "",
          "type": "address"
        },
        {
          "internalType": "uint256",
          "name": "",
          "type": "uint256"
        }
      ],
      "stateMutability": "view",
      "type": "function"
    },
    {
      "inputs": [
        {
          "internalType": "address",
          "name": "from",
          "type": "address"
        },
        {
          "internalType": "address",
          "name": "to",
          "type": "address"
        },
        {
          "internalType": "uint256",
          "name": "tokenId",
          "type": "uint256"
        }
      ],
      "name": "safeTransferFrom",
      "outputs": [],
      "stateMutability": "nonpayable",
      "type": "function"
    },
    {
      "inputs": [
        {
          "internalType": "address",
          "name": "from",
          "type": "address"
        },
        {
          "internalType": "address",
          "name": "to",
          "type": "address"
        },
        {
          "internalType": "uint256",
          "name": "tokenId",
          "type": "uint256"
        },
        {
          "internalType": "bytes",
          "name": "data",
          "type": "bytes"
        }
      ],
      "name": "safeTransferFrom",
      "outputs": [],
      "stateMutability": "nonpayable",
      "type": "function"
    },
    {
      "inputs": [
        {
          "internalType": "address",
          "name": "_royaltyAddr",
          "type": "address"
        },
        {
          "internalType": "address",
          "name": "_fundsAddr",
          "type": "address"
        }
      ],
      "name": "setAccounts",
      "outputs": [],
      "stateMutability": "nonpayable",
      "type": "function"
    },
    {
      "inputs": [
        {
          "internalType": "address",
          "name": "operator",
          "type": "address"
        },
        {
          "internalType": "bool",
          "name": "approved",
          "type": "bool"
        }
      ],
      "name": "setApprovalForAll",
      "outputs": [],
      "stateMutability": "nonpayable",
      "type": "function"
    },
    {
      "inputs": [
        {
          "internalType": "uint256",
          "name": "_amount",
          "type": "uint256"
        }
      ],
      "name": "setMaxMintAmount",
      "outputs": [],
      "stateMutability": "nonpayable",
      "type": "function"
    },
    {
      "inputs": [
        {
          "internalType": "uint256",
          "name": "_price",
          "type": "uint256"
        }
      ],
      "name": "setPrice",
      "outputs": [],
      "stateMutability": "nonpayable",
      "type": "function"
    },
    {
      "inputs": [
        {
          "internalType": "uint96",
          "name": "_royaltyPercent",
          "type": "uint96"
        }
      ],
      "name": "setRoyalty",
      "outputs": [],
      "stateMutability": "nonpayable",
      "type": "function"
    },
    {
      "inputs": [
        {
          "internalType": "bytes4",
          "name": "interfaceId",
          "type": "bytes4"
        }
      ],
      "name": "supportsInterface",
      "outputs": [
        {
          "internalType": "bool",
          "name": "",
          "type": "bool"
        }
      ],
      "stateMutability": "view",
      "type": "function"
    },
    {
      "inputs": [],
      "name": "symbol",
      "outputs": [
        {
          "internalType": "string",
          "name": "",
          "type": "string"
        }
      ],
      "stateMutability": "view",
      "type": "function"
    },
    {
      "inputs": [],
      "name": "tokenCount",
      "outputs": [
        {
          "internalType": "uint256",
          "name": "",
          "type": "uint256"
        }
      ],
      "stateMutability": "view",
      "type": "function"
    },
    {
      "inputs": [],
      "name": "tokenSupply",
      "outputs": [
        {
          "internalType": "uint256",
          "name": "",
          "type": "uint256"
        }
      ],
      "stateMutability": "view",
      "type": "function"
    },
    {
      "inputs": [
        {
          "internalType": "uint256",
          "name": "tokenId",
          "type": "uint256"
        }
      ],
      "name": "tokenURI",
      "outputs": [
        {
          "internalType": "string",
          "name": "",
          "type": "string"
        }
      ],
      "stateMutability": "view",
      "type": "function"
    },
    {
      "inputs": [
        {
          "internalType": "address",
          "name": "from",
          "type": "address"
        },
        {
          "internalType": "address",
          "name": "to",
          "type": "address"
        },
        {
          "internalType": "uint256",
          "name": "tokenId",
          "type": "uint256"
        }
      ],
      "name": "transferFrom",
      "outputs": [],
      "stateMutability": "nonpayable",
      "type": "function"
    },
    {
      "inputs": [
        {
          "internalType": "address",
          "name": "newOwner",
          "type": "address"
        }
      ],
      "name": "transferOwnership",
      "outputs": [],
      "stateMutability": "nonpayable",
      "type": "function"
    }
  ],
  "bytecode": "0x60806040523480156200001157600080fd5b5060405162004230380380620042308339818101604052810190620000379190620002e5565b6040518060400160405280600581526020017f4c55434b590000000000000000000000000000000000000000000000000000008152506040518060400160405280600581526020017f4c55434b590000000000000000000000000000000000000000000000000000008152508160029080519060200190620000bb9291906200021e565b508060039080519060200190620000d49291906200021e565b505050620000f7620000eb6200015060201b60201c565b6200015860201b60201c565b6000600b81905550612710600c8190555080600a60006101000a81548173ffffffffffffffffffffffffffffffffffffffff021916908373ffffffffffffffffffffffffffffffffffffffff16021790555050620003c4565b600033905090565b6000600960009054906101000a900473ffffffffffffffffffffffffffffffffffffffff16905081600960006101000a81548173ffffffffffffffffffffffffffffffffffffffff021916908373ffffffffffffffffffffffffffffffffffffffff1602179055508173ffffffffffffffffffffffffffffffffffffffff168173ffffffffffffffffffffffffffffffffffffffff167f8be0079c531659141344cd1fd0a4f28419497f9722a3daafe3b4186f6b6457e060405160405180910390a35050565b8280546200022c9062000345565b90600052602060002090601f0160209004810192826200025057600085556200029c565b82601f106200026b57805160ff19168380011785556200029c565b828001600101855582156200029c579182015b828111156200029b5782518255916020019190600101906200027e565b5b509050620002ab9190620002af565b5090565b5b80821115620002ca576000816000905550600101620002b0565b5090565b600081519050620002df81620003aa565b92915050565b600060208284031215620002f857600080fd5b60006200030884828501620002ce565b91505092915050565b60006200031e8262000325565b9050919050565b600073ffffffffffffffffffffffffffffffffffffffff82169050919050565b600060028204905060018216806200035e57607f821691505b602082108114156200037557620003746200037b565b5b50919050565b7f4e487b7100000000000000000000000000000000000000000000000000000000600052602260045260246000fd5b620003b58162000311565b8114620003c157600080fd5b50565b613e5c80620003d46000396000f3fe6080604052600436106101c25760003560e01c806370a08231116100f757806396336b3011610095578063c87b56dd11610064578063c87b56dd14610622578063cac926691461065f578063e985e9c514610688578063f2fde38b146106c5576101c2565b806396336b301461057a5780639f181b5e146105a5578063a22cb465146105d0578063b88d4fde146105f9576101c2565b80638da5cb5b116100d15780638da5cb5b146104d05780639052223e146104fb57806391b7f5ed1461052657806395d89b411461054f576101c2565b806370a0823114610451578063715018a61461048e5780637824407f146104a5576101c2565b80632a55205a1161016457806342842e0e1161013e57806342842e0e1461039757806343e02605146103c05780636352211e146103e95780636817c76c14610426576101c2565b80632a55205a146103125780633009c0831461035057806340c10f191461037b576101c2565b8063088a4ed0116101a0578063088a4ed01461026c578063095ea7b314610295578063239c70ae146102be57806323b872dd146102e9576101c2565b806301ffc9a7146101c757806306fdde0314610204578063081812fc1461022f575b600080fd5b3480156101d357600080fd5b506101ee60048036038101906101e99190612c58565b6106ee565b6040516101fb91906131eb565b60405180910390f35b34801561021057600080fd5b50610219610700565b6040516102269190613221565b60405180910390f35b34801561023b57600080fd5b5061025660048036038101906102519190612caa565b610792565b6040516102639190613124565b60405180910390f35b34801561027857600080fd5b50610293600480360381019061028e9190612caa565b6107d8565b005b3480156102a157600080fd5b506102bc60048036038101906102b79190612bf3565b6107ea565b005b3480156102ca57600080fd5b506102d3610902565b6040516102e09190613483565b60405180910390f35b3480156102f557600080fd5b50610310600480360381019061030b9190612aed565b610908565b005b34801561031e57600080fd5b5061033960048036038101906103349190612cd3565b610968565b6040516103479291906131c2565b60405180910390f35b34801561035c57600080fd5b50610365610b53565b6040516103729190613124565b60405180910390f35b61039560048036038101906103909190612bf3565b610b79565b005b3480156103a357600080fd5b506103be60048036038101906103b99190612aed565b610d6a565b005b3480156103cc57600080fd5b506103e760048036038101906103e29190612ab1565b610d8a565b005b3480156103f557600080fd5b50610410600480360381019061040b9190612caa565b610e18565b60405161041d9190613124565b60405180910390f35b34801561043257600080fd5b5061043b610e9f565b6040516104489190613483565b60405180910390f35b34801561045d57600080fd5b5061047860048036038101906104739190612a88565b610ea5565b6040516104859190613483565b60405180910390f35b34801561049a57600080fd5b506104a3610f5d565b005b3480156104b157600080fd5b506104ba610f71565b6040516104c79190613483565b60405180910390f35b3480156104dc57600080fd5b506104e5610f77565b6040516104f29190613124565b60405180910390f35b34801561050757600080fd5b50610510610fa1565b60405161051d9190613124565b60405180910390f35b34801561053257600080fd5b5061054d60048036038101906105489190612caa565b610fc7565b005b34801561055b57600080fd5b50610564610fd9565b6040516105719190613221565b60405180910390f35b34801561058657600080fd5b5061058f61106b565b60405161059c9190613206565b60405180910390f35b3480156105b157600080fd5b506105ba611091565b6040516105c79190613483565b60405180910390f35b3480156105dc57600080fd5b506105f760048036038101906105f29190612bb7565b611097565b005b34801561060557600080fd5b50610620600480360381019061061b9190612b3c565b6110ad565b005b34801561062e57600080fd5b5061064960048036038101906106449190612caa565b61110f565b6040516106569190613221565b60405180910390f35b34801561066b57600080fd5b5061068660048036038101906106819190612d0f565b611121565b005b34801561069457600080fd5b506106af60048036038101906106aa9190612ab1565b611158565b6040516106bc91906131eb565b60405180910390f35b3480156106d157600080fd5b506106ec60048036038101906106e79190612a88565b6111ec565b005b60006106f982611270565b9050919050565b60606002805461070f9061373e565b80601f016020809104026020016040519081016040528092919081815260200182805461073b9061373e565b80156107885780601f1061075d57610100808354040283529160200191610788565b820191906000526020600020905b81548152906001019060200180831161076b57829003601f168201915b5050505050905090565b600061079d82611282565b6006600083815260200190815260200160002060009054906101000a900473ffffffffffffffffffffffffffffffffffffffff169050919050565b6107e06112cd565b80600e8190555050565b60006107f582610e18565b90508073ffffffffffffffffffffffffffffffffffffffff168373ffffffffffffffffffffffffffffffffffffffff161415610866576040517f08c379a000000000000000000000000000000000000000000000000000000000815260040161085d90613403565b60405180910390fd5b8073ffffffffffffffffffffffffffffffffffffffff1661088561134b565b73ffffffffffffffffffffffffffffffffffffffff1614806108b457506108b3816108ae61134b565b611158565b5b6108f3576040517f08c379a00000000000000000000000000000000000000000000000000000000081526004016108ea90613423565b60405180910390fd5b6108fd8383611353565b505050565b600e5481565b61091961091361134b565b8261140c565b610958576040517f08c379a000000000000000000000000000000000000000000000000000000000815260040161094f90613243565b60405180910390fd5b6109638383836114a1565b505050565b6000806000600160008681526020019081526020016000206040518060400160405290816000820160009054906101000a900473ffffffffffffffffffffffffffffffffffffffff1673ffffffffffffffffffffffffffffffffffffffff1673ffffffffffffffffffffffffffffffffffffffff1681526020016000820160149054906101000a90046bffffffffffffffffffffffff166bffffffffffffffffffffffff166bffffffffffffffffffffffff16815250509050600073ffffffffffffffffffffffffffffffffffffffff16816000015173ffffffffffffffffffffffffffffffffffffffff161415610afe5760006040518060400160405290816000820160009054906101000a900473ffffffffffffffffffffffffffffffffffffffff1673ffffffffffffffffffffffffffffffffffffffff1673ffffffffffffffffffffffffffffffffffffffff1681526020016000820160149054906101000a90046bffffffffffffffffffffffff166bffffffffffffffffffffffff166bffffffffffffffffffffffff168152505090505b6000610b0861179b565b6bffffffffffffffffffffffff1682602001516bffffffffffffffffffffffff1686610b3491906135be565b610b3e919061358d565b90508160000151819350935050509250929050565b600f60009054906101000a900473ffffffffffffffffffffffffffffffffffffffff1681565b6004811115610bbd576040517f08c379a0000000000000000000000000000000000000000000000000000000008152600401610bb4906133a3565b60405180910390fd5b600c5481600b54610bce9190613537565b1115610c0f576040517f08c379a0000000000000000000000000000000000000000000000000000000008152600401610c0690613263565b60405180910390fd5b6000600190505b818111610d6557600a60009054906101000a900473ffffffffffffffffffffffffffffffffffffffff1673ffffffffffffffffffffffffffffffffffffffff166323b872dd33601060009054906101000a900473ffffffffffffffffffffffffffffffffffffffff16600d546040518463ffffffff1660e01b8152600401610ca09392919061313f565b602060405180830381600087803b158015610cba57600080fd5b505af1158015610cce573d6000803e3d6000fd5b505050506040513d601f19601f82011682018060405250810190610cf29190612c2f565b50600b6000815480929190610d06906137a1565b9190505550610d1783600b546117a4565b6000610d24600b546117c2565b604051602001610d3491906130f7565b6040516020818303038152906040529050610d51600b54826118e6565b508080610d5d906137a1565b915050610c16565b505050565b610d85838383604051806020016040528060008152506110ad565b505050565b610d926112cd565b81600f60006101000a81548173ffffffffffffffffffffffffffffffffffffffff021916908373ffffffffffffffffffffffffffffffffffffffff16021790555080601060006101000a81548173ffffffffffffffffffffffffffffffffffffffff021916908373ffffffffffffffffffffffffffffffffffffffff1602179055505050565b600080610e248361195a565b9050600073ffffffffffffffffffffffffffffffffffffffff168173ffffffffffffffffffffffffffffffffffffffff161415610e96576040517f08c379a0000000000000000000000000000000000000000000000000000000008152600401610e8d906133e3565b60405180910390fd5b80915050919050565b600d5481565b60008073ffffffffffffffffffffffffffffffffffffffff168273ffffffffffffffffffffffffffffffffffffffff161415610f16576040517f08c379a0000000000000000000000000000000000000000000000000000000008152600401610f0d90613343565b60405180910390fd5b600560008373ffffffffffffffffffffffffffffffffffffffff1673ffffffffffffffffffffffffffffffffffffffff168152602001908152602001600020549050919050565b610f656112cd565b610f6f6000611997565b565b600c5481565b6000600960009054906101000a900473ffffffffffffffffffffffffffffffffffffffff16905090565b601060009054906101000a900473ffffffffffffffffffffffffffffffffffffffff1681565b610fcf6112cd565b80600d8190555050565b606060038054610fe89061373e565b80601f01602080910402602001604051908101604052809291908181526020018280546110149061373e565b80156110615780601f1061103657610100808354040283529160200191611061565b820191906000526020600020905b81548152906001019060200180831161104457829003601f168201915b5050505050905090565b600a60009054906101000a900473ffffffffffffffffffffffffffffffffffffffff1681565b600b5481565b6110a96110a261134b565b8383611a5d565b5050565b6110be6110b861134b565b8361140c565b6110fd576040517f08c379a00000000000000000000000000000000000000000000000000000000081526004016110f490613243565b60405180910390fd5b61110984848484611bca565b50505050565b606061111a82611c26565b9050919050565b6111296112cd565b611155600f60009054906101000a900473ffffffffffffffffffffffffffffffffffffffff1682611d39565b50565b6000600760008473ffffffffffffffffffffffffffffffffffffffff1673ffffffffffffffffffffffffffffffffffffffff16815260200190815260200160002060008373ffffffffffffffffffffffffffffffffffffffff1673ffffffffffffffffffffffffffffffffffffffff16815260200190815260200160002060009054906101000a900460ff16905092915050565b6111f46112cd565b600073ffffffffffffffffffffffffffffffffffffffff168173ffffffffffffffffffffffffffffffffffffffff161415611264576040517f08c379a000000000000000000000000000000000000000000000000000000000815260040161125b906132a3565b60405180910390fd5b61126d81611997565b50565b600061127b82611ece565b9050919050565b61128b81611fb0565b6112ca576040517f08c379a00000000000000000000000000000000000000000000000000000000081526004016112c1906133e3565b60405180910390fd5b50565b6112d561134b565b73ffffffffffffffffffffffffffffffffffffffff166112f3610f77565b73ffffffffffffffffffffffffffffffffffffffff1614611349576040517f08c379a0000000000000000000000000000000000000000000000000000000008152600401611340906133c3565b60405180910390fd5b565b600033905090565b816006600083815260200190815260200160002060006101000a81548173ffffffffffffffffffffffffffffffffffffffff021916908373ffffffffffffffffffffffffffffffffffffffff160217905550808273ffffffffffffffffffffffffffffffffffffffff166113c683610e18565b73ffffffffffffffffffffffffffffffffffffffff167f8c5be1e5ebec7d5bd14f71427d1e84f3dd0314c0f7b2291e5b200ac8c7c3b92560405160405180910390a45050565b60008061141883610e18565b90508073ffffffffffffffffffffffffffffffffffffffff168473ffffffffffffffffffffffffffffffffffffffff16148061145a57506114598185611158565b5b8061149857508373ffffffffffffffffffffffffffffffffffffffff1661148084610792565b73ffffffffffffffffffffffffffffffffffffffff16145b91505092915050565b8273ffffffffffffffffffffffffffffffffffffffff166114c182610e18565b73ffffffffffffffffffffffffffffffffffffffff1614611517576040517f08c379a000000000000000000000000000000000000000000000000000000000815260040161150e906132c3565b60405180910390fd5b600073ffffffffffffffffffffffffffffffffffffffff168273ffffffffffffffffffffffffffffffffffffffff161415611587576040517f08c379a000000000000000000000000000000000000000000000000000000000815260040161157e90613303565b60405180910390fd5b6115948383836001611ff1565b8273ffffffffffffffffffffffffffffffffffffffff166115b482610e18565b73ffffffffffffffffffffffffffffffffffffffff161461160a576040517f08c379a0000000000000000000000000000000000000000000000000000000008152600401611601906132c3565b60405180910390fd5b6006600082815260200190815260200160002060006101000a81549073ffffffffffffffffffffffffffffffffffffffff02191690556001600560008573ffffffffffffffffffffffffffffffffffffffff1673ffffffffffffffffffffffffffffffffffffffff168152602001908152602001600020600082825403925050819055506001600560008473ffffffffffffffffffffffffffffffffffffffff1673ffffffffffffffffffffffffffffffffffffffff16815260200190815260200160002060008282540192505081905550816004600083815260200190815260200160002060006101000a81548173ffffffffffffffffffffffffffffffffffffffff021916908373ffffffffffffffffffffffffffffffffffffffff160217905550808273ffffffffffffffffffffffffffffffffffffffff168473ffffffffffffffffffffffffffffffffffffffff167fddf252ad1be2c89b69c2b068fc378daa952ba7f163c4a11628f55a4df523b3ef60405160405180910390a46117968383836001612117565b505050565b60006064905090565b6117be82826040518060200160405280600081525061211d565b5050565b6060600060016117d184612178565b01905060008167ffffffffffffffff811115611816577f4e487b7100000000000000000000000000000000000000000000000000000000600052604160045260246000fd5b6040519080825280601f01601f1916602001820160405280156118485781602001600182028036833780820191505090505b509050600082602001820190505b6001156118db578080600190039150507f3031323334353637383961626364656600000000000000000000000000000000600a86061a8153600a85816118c5577f4e487b7100000000000000000000000000000000000000000000000000000000600052601260045260246000fd5b04945060008514156118d6576118db565b611856565b819350505050919050565b6118ef82611fb0565b61192e576040517f08c379a000000000000000000000000000000000000000000000000000000000815260040161192590613363565b60405180910390fd5b806008600084815260200190815260200160002090805190602001906119559291906128ea565b505050565b60006004600083815260200190815260200160002060009054906101000a900473ffffffffffffffffffffffffffffffffffffffff169050919050565b6000600960009054906101000a900473ffffffffffffffffffffffffffffffffffffffff16905081600960006101000a81548173ffffffffffffffffffffffffffffffffffffffff021916908373ffffffffffffffffffffffffffffffffffffffff1602179055508173ffffffffffffffffffffffffffffffffffffffff168173ffffffffffffffffffffffffffffffffffffffff167f8be0079c531659141344cd1fd0a4f28419497f9722a3daafe3b4186f6b6457e060405160405180910390a35050565b8173ffffffffffffffffffffffffffffffffffffffff168373ffffffffffffffffffffffffffffffffffffffff161415611acc576040517f08c379a0000000000000000000000000000000000000000000000000000000008152600401611ac390613323565b60405180910390fd5b80600760008573ffffffffffffffffffffffffffffffffffffffff1673ffffffffffffffffffffffffffffffffffffffff16815260200190815260200160002060008473ffffffffffffffffffffffffffffffffffffffff1673ffffffffffffffffffffffffffffffffffffffff16815260200190815260200160002060006101000a81548160ff0219169083151502179055508173ffffffffffffffffffffffffffffffffffffffff168373ffffffffffffffffffffffffffffffffffffffff167f17307eab39ab6107e8899845ad3d59bd9653f200f220920489ca2b5937696c3183604051611bbd91906131eb565b60405180910390a3505050565b611bd58484846114a1565b611be1848484846123af565b611c20576040517f08c379a0000000000000000000000000000000000000000000000000000000008152600401611c1790613283565b60405180910390fd5b50505050565b6060611c3182611282565b6000600860008481526020019081526020016000208054611c519061373e565b80601f0160208091040260200160405190810160405280929190818152602001828054611c7d9061373e565b8015611cca5780601f10611c9f57610100808354040283529160200191611cca565b820191906000526020600020905b815481529060010190602001808311611cad57829003601f168201915b505050505090506000611cdb612546565b9050600081511415611cf1578192505050611d34565b600082511115611d26578082604051602001611d0e9291906130d3565b60405160208183030381529060405292505050611d34565b611d2f8461255d565b925050505b919050565b611d4161179b565b6bffffffffffffffffffffffff16816bffffffffffffffffffffffff161115611d9f576040517f08c379a0000000000000000000000000000000000000000000000000000000008152600401611d9690613443565b60405180910390fd5b600073ffffffffffffffffffffffffffffffffffffffff168273ffffffffffffffffffffffffffffffffffffffff161415611e0f576040517f08c379a0000000000000000000000000000000000000000000000000000000008152600401611e0690613463565b60405180910390fd5b60405180604001604052808373ffffffffffffffffffffffffffffffffffffffff168152602001826bffffffffffffffffffffffff168152506000808201518160000160006101000a81548173ffffffffffffffffffffffffffffffffffffffff021916908373ffffffffffffffffffffffffffffffffffffffff16021790555060208201518160000160146101000a8154816bffffffffffffffffffffffff02191690836bffffffffffffffffffffffff1602179055509050505050565b60007f80ac58cd000000000000000000000000000000000000000000000000000000007bffffffffffffffffffffffffffffffffffffffffffffffffffffffff1916827bffffffffffffffffffffffffffffffffffffffffffffffffffffffff19161480611f9957507f5b5e139f000000000000000000000000000000000000000000000000000000007bffffffffffffffffffffffffffffffffffffffffffffffffffffffff1916827bffffffffffffffffffffffffffffffffffffffffffffffffffffffff1916145b80611fa95750611fa8826125c5565b5b9050919050565b60008073ffffffffffffffffffffffffffffffffffffffff16611fd28361195a565b73ffffffffffffffffffffffffffffffffffffffff1614159050919050565b600181111561211157600073ffffffffffffffffffffffffffffffffffffffff168473ffffffffffffffffffffffffffffffffffffffff16146120855780600560008673ffffffffffffffffffffffffffffffffffffffff1673ffffffffffffffffffffffffffffffffffffffff168152602001908152602001600020600082825461207d9190613618565b925050819055505b600073ffffffffffffffffffffffffffffffffffffffff168373ffffffffffffffffffffffffffffffffffffffff16146121105780600560008573ffffffffffffffffffffffffffffffffffffffff1673ffffffffffffffffffffffffffffffffffffffff16815260200190815260200160002060008282546121089190613537565b925050819055505b5b50505050565b50505050565b612127838361263f565b61213460008484846123af565b612173576040517f08c379a000000000000000000000000000000000000000000000000000000000815260040161216a90613283565b60405180910390fd5b505050565b600080600090507a184f03e93ff9f4daa797ed6e38ed64bf6a1f01000000000000000083106121fc577a184f03e93ff9f4daa797ed6e38ed64bf6a1f01000000000000000083816121f2577f4e487b7100000000000000000000000000000000000000000000000000000000600052601260045260246000fd5b0492506040810190505b6d04ee2d6d415b85acef8100000000831061225f576d04ee2d6d415b85acef81000000008381612255577f4e487b7100000000000000000000000000000000000000000000000000000000600052601260045260246000fd5b0492506020810190505b662386f26fc1000083106122b457662386f26fc1000083816122aa577f4e487b7100000000000000000000000000000000000000000000000000000000600052601260045260246000fd5b0492506010810190505b6305f5e1008310612303576305f5e10083816122f9577f4e487b7100000000000000000000000000000000000000000000000000000000600052601260045260246000fd5b0492506008810190505b612710831061234e576127108381612344577f4e487b7100000000000000000000000000000000000000000000000000000000600052601260045260246000fd5b0492506004810190505b60648310612397576064838161238d577f4e487b7100000000000000000000000000000000000000000000000000000000600052601260045260246000fd5b0492506002810190505b600a83106123a6576001810190505b80915050919050565b60006123d08473ffffffffffffffffffffffffffffffffffffffff1661285d565b15612539578373ffffffffffffffffffffffffffffffffffffffff1663150b7a026123f961134b565b8786866040518563ffffffff1660e01b815260040161241b9493929190613176565b602060405180830381600087803b15801561243557600080fd5b505af192505050801561246657506040513d601f19601f820116820180604052508101906124639190612c81565b60015b6124e9573d8060008114612496576040519150601f19603f3d011682016040523d82523d6000602084013e61249b565b606091505b506000815114156124e1576040517f08c379a00000000000000000000000000000000000000000000000000000000081526004016124d890613283565b60405180910390fd5b805181602001fd5b63150b7a0260e01b7bffffffffffffffffffffffffffffffffffffffffffffffffffffffff1916817bffffffffffffffffffffffffffffffffffffffffffffffffffffffff19161491505061253e565b600190505b949350505050565b606060405180602001604052806000815250905090565b606061256882611282565b6000612572612546565b9050600081511161259257604051806020016040528060008152506125bd565b8061259c846117c2565b6040516020016125ad9291906130d3565b6040516020818303038152906040525b915050919050565b60007f2a55205a000000000000000000000000000000000000000000000000000000007bffffffffffffffffffffffffffffffffffffffffffffffffffffffff1916827bffffffffffffffffffffffffffffffffffffffffffffffffffffffff19161480612638575061263782612880565b5b9050919050565b600073ffffffffffffffffffffffffffffffffffffffff168273ffffffffffffffffffffffffffffffffffffffff1614156126af576040517f08c379a00000000000000000000000000000000000000000000000000000000081526004016126a690613383565b60405180910390fd5b6126b881611fb0565b156126f8576040517f08c379a00000000000000000000000000000000000000000000000000000000081526004016126ef906132e3565b60405180910390fd5b612706600083836001611ff1565b61270f81611fb0565b1561274f576040517f08c379a0000000000000000000000000000000000000000000000000000000008152600401612746906132e3565b60405180910390fd5b6001600560008473ffffffffffffffffffffffffffffffffffffffff1673ffffffffffffffffffffffffffffffffffffffff16815260200190815260200160002060008282540192505081905550816004600083815260200190815260200160002060006101000a81548173ffffffffffffffffffffffffffffffffffffffff021916908373ffffffffffffffffffffffffffffffffffffffff160217905550808273ffffffffffffffffffffffffffffffffffffffff16600073ffffffffffffffffffffffffffffffffffffffff167fddf252ad1be2c89b69c2b068fc378daa952ba7f163c4a11628f55a4df523b3ef60405160405180910390a4612859600083836001612117565b5050565b6000808273ffffffffffffffffffffffffffffffffffffffff163b119050919050565b60007f01ffc9a7000000000000000000000000000000000000000000000000000000007bffffffffffffffffffffffffffffffffffffffffffffffffffffffff1916827bffffffffffffffffffffffffffffffffffffffffffffffffffffffff1916149050919050565b8280546128f69061373e565b90600052602060002090601f016020900481019282612918576000855561295f565b82601f1061293157805160ff191683800117855561295f565b8280016001018555821561295f579182015b8281111561295e578251825591602001919060010190612943565b5b50905061296c9190612970565b5090565b5b80821115612989576000816000905550600101612971565b5090565b60006129a061299b846134c3565b61349e565b9050828152602081018484840111156129b857600080fd5b6129c38482856136fc565b509392505050565b6000813590506129da81613db3565b92915050565b6000813590506129ef81613dca565b92915050565b600081519050612a0481613dca565b92915050565b600081359050612a1981613de1565b92915050565b600081519050612a2e81613de1565b92915050565b600082601f830112612a4557600080fd5b8135612a5584826020860161298d565b91505092915050565b600081359050612a6d81613df8565b92915050565b600081359050612a8281613e0f565b92915050565b600060208284031215612a9a57600080fd5b6000612aa8848285016129cb565b91505092915050565b60008060408385031215612ac457600080fd5b6000612ad2858286016129cb565b9250506020612ae3858286016129cb565b9150509250929050565b600080600060608486031215612b0257600080fd5b6000612b10868287016129cb565b9350506020612b21868287016129cb565b9250506040612b3286828701612a5e565b9150509250925092565b60008060008060808587031215612b5257600080fd5b6000612b60878288016129cb565b9450506020612b71878288016129cb565b9350506040612b8287828801612a5e565b925050606085013567ffffffffffffffff811115612b9f57600080fd5b612bab87828801612a34565b91505092959194509250565b60008060408385031215612bca57600080fd5b6000612bd8858286016129cb565b9250506020612be9858286016129e0565b9150509250929050565b60008060408385031215612c0657600080fd5b6000612c14858286016129cb565b9250506020612c2585828601612a5e565b9150509250929050565b600060208284031215612c4157600080fd5b6000612c4f848285016129f5565b91505092915050565b600060208284031215612c6a57600080fd5b6000612c7884828501612a0a565b91505092915050565b600060208284031215612c9357600080fd5b6000612ca184828501612a1f565b91505092915050565b600060208284031215612cbc57600080fd5b6000612cca84828501612a5e565b91505092915050565b60008060408385031215612ce657600080fd5b6000612cf485828601612a5e565b9250506020612d0585828601612a5e565b9150509250929050565b600060208284031215612d2157600080fd5b6000612d2f84828501612a73565b91505092915050565b612d418161364c565b82525050565b612d508161365e565b82525050565b6000612d61826134f4565b612d6b818561350a565b9350612d7b81856020860161370b565b612d84816138a6565b840191505092915050565b612d98816136d8565b82525050565b6000612da9826134ff565b612db3818561351b565b9350612dc381856020860161370b565b612dcc816138a6565b840191505092915050565b6000612de2826134ff565b612dec818561352c565b9350612dfc81856020860161370b565b80840191505092915050565b6000612e15602d8361351b565b9150612e20826138b7565b604082019050919050565b6000612e3860168361351b565b9150612e4382613906565b602082019050919050565b6000612e5b60328361351b565b9150612e668261392f565b604082019050919050565b6000612e7e60268361351b565b9150612e898261397e565b604082019050919050565b6000612ea160258361351b565b9150612eac826139cd565b604082019050919050565b6000612ec4601c8361351b565b9150612ecf82613a1c565b602082019050919050565b6000612ee760248361351b565b9150612ef282613a45565b604082019050919050565b6000612f0a60198361351b565b9150612f1582613a94565b602082019050919050565b6000612f2d60298361351b565b9150612f3882613abd565b604082019050919050565b6000612f50602e8361351b565b9150612f5b82613b0c565b604082019050919050565b6000612f7360208361351b565b9150612f7e82613b5b565b602082019050919050565b6000612f96601f8361351b565b9150612fa182613b84565b602082019050919050565b6000612fb960058361352c565b9150612fc482613bad565b600582019050919050565b6000612fdc60208361351b565b9150612fe782613bd6565b602082019050919050565b6000612fff60188361351b565b915061300a82613bff565b602082019050919050565b600061302260218361351b565b915061302d82613c28565b604082019050919050565b6000613045603d8361351b565b915061305082613c77565b604082019050919050565b6000613068602a8361351b565b915061307382613cc6565b604082019050919050565b600061308b60538361352c565b915061309682613d15565b605382019050919050565b60006130ae60198361351b565b91506130b982613d8a565b602082019050919050565b6130cd816136b6565b82525050565b60006130df8285612dd7565b91506130eb8284612dd7565b91508190509392505050565b60006131028261307e565b915061310e8284612dd7565b915061311982612fac565b915081905092915050565b60006020820190506131396000830184612d38565b92915050565b60006060820190506131546000830186612d38565b6131616020830185612d38565b61316e60408301846130c4565b949350505050565b600060808201905061318b6000830187612d38565b6131986020830186612d38565b6131a560408301856130c4565b81810360608301526131b78184612d56565b905095945050505050565b60006040820190506131d76000830185612d38565b6131e460208301846130c4565b9392505050565b60006020820190506132006000830184612d47565b92915050565b600060208201905061321b6000830184612d8f565b92915050565b6000602082019050818103600083015261323b8184612d9e565b905092915050565b6000602082019050818103600083015261325c81612e08565b9050919050565b6000602082019050818103600083015261327c81612e2b565b9050919050565b6000602082019050818103600083015261329c81612e4e565b9050919050565b600060208201905081810360008301526132bc81612e71565b9050919050565b600060208201905081810360008301526132dc81612e94565b9050919050565b600060208201905081810360008301526132fc81612eb7565b9050919050565b6000602082019050818103600083015261331c81612eda565b9050919050565b6000602082019050818103600083015261333c81612efd565b9050919050565b6000602082019050818103600083015261335c81612f20565b9050919050565b6000602082019050818103600083015261337c81612f43565b9050919050565b6000602082019050818103600083015261339c81612f66565b9050919050565b600060208201905081810360008301526133bc81612f89565b9050919050565b600060208201905081810360008301526133dc81612fcf565b9050919050565b600060208201905081810360008301526133fc81612ff2565b9050919050565b6000602082019050818103600083015261341c81613015565b9050919050565b6000602082019050818103600083015261343c81613038565b9050919050565b6000602082019050818103600083015261345c8161305b565b9050919050565b6000602082019050818103600083015261347c816130a1565b9050919050565b600060208201905061349860008301846130c4565b92915050565b60006134a86134b9565b90506134b48282613770565b919050565b6000604051905090565b600067ffffffffffffffff8211156134de576134dd613877565b5b6134e7826138a6565b9050602081019050919050565b600081519050919050565b600081519050919050565b600082825260208201905092915050565b600082825260208201905092915050565b600081905092915050565b6000613542826136b6565b915061354d836136b6565b9250827fffffffffffffffffffffffffffffffffffffffffffffffffffffffffffffffff03821115613582576135816137ea565b5b828201905092915050565b6000613598826136b6565b91506135a3836136b6565b9250826135b3576135b2613819565b5b828204905092915050565b60006135c9826136b6565b91506135d4836136b6565b9250817fffffffffffffffffffffffffffffffffffffffffffffffffffffffffffffffff048311821515161561360d5761360c6137ea565b5b828202905092915050565b6000613623826136b6565b915061362e836136b6565b925082821015613641576136406137ea565b5b828203905092915050565b600061365782613696565b9050919050565b60008115159050919050565b60007fffffffff0000000000000000000000000000000000000000000000000000000082169050919050565b600073ffffffffffffffffffffffffffffffffffffffff82169050919050565b6000819050919050565b60006bffffffffffffffffffffffff82169050919050565b60006136e3826136ea565b9050919050565b60006136f582613696565b9050919050565b82818337600083830152505050565b60005b8381101561372957808201518184015260208101905061370e565b83811115613738576000848401525b50505050565b6000600282049050600182168061375657607f821691505b6020821081141561376a57613769613848565b5b50919050565b613779826138a6565b810181811067ffffffffffffffff8211171561379857613797613877565b5b80604052505050565b60006137ac826136b6565b91507fffffffffffffffffffffffffffffffffffffffffffffffffffffffffffffffff8214156137df576137de6137ea565b5b600182019050919050565b7f4e487b7100000000000000000000000000000000000000000000000000000000600052601160045260246000fd5b7f4e487b7100000000000000000000000000000000000000000000000000000000600052601260045260246000fd5b7f4e487b7100000000000000000000000000000000000000000000000000000000600052602260045260246000fd5b7f4e487b7100000000000000000000000000000000000000000000000000000000600052604160045260246000fd5b6000601f19601f8301169050919050565b7f4552433732313a2063616c6c6572206973206e6f7420746f6b656e206f776e6560008201527f72206f7220617070726f76656400000000000000000000000000000000000000602082015250565b7f6e6f7420656e6f75676820737570706c79206c65667400000000000000000000600082015250565b7f4552433732313a207472616e7366657220746f206e6f6e20455243373231526560008201527f63656976657220696d706c656d656e7465720000000000000000000000000000602082015250565b7f4f776e61626c653a206e6577206f776e657220697320746865207a65726f206160008201527f6464726573730000000000000000000000000000000000000000000000000000602082015250565b7f4552433732313a207472616e736665722066726f6d20696e636f72726563742060008201527f6f776e6572000000000000000000000000000000000000000000000000000000602082015250565b7f4552433732313a20746f6b656e20616c7265616479206d696e74656400000000600082015250565b7f4552433732313a207472616e7366657220746f20746865207a65726f2061646460008201527f7265737300000000000000000000000000000000000000000000000000000000602082015250565b7f4552433732313a20617070726f766520746f2063616c6c657200000000000000600082015250565b7f4552433732313a2061646472657373207a65726f206973206e6f74206120766160008201527f6c6964206f776e65720000000000000000000000000000000000000000000000602082015250565b7f45524337323155524953746f726167653a2055524920736574206f66206e6f6e60008201527f6578697374656e7420746f6b656e000000000000000000000000000000000000602082015250565b7f4552433732313a206d696e7420746f20746865207a65726f2061646472657373600082015250565b7f6f6e6c79203420616c6c6f77656420746f206d696e74206174206f6e63652100600082015250565b7f2e6a736f6e000000000000000000000000000000000000000000000000000000600082015250565b7f4f776e61626c653a2063616c6c6572206973206e6f7420746865206f776e6572600082015250565b7f4552433732313a20696e76616c696420746f6b656e2049440000000000000000600082015250565b7f4552433732313a20617070726f76616c20746f2063757272656e74206f776e6560008201527f7200000000000000000000000000000000000000000000000000000000000000602082015250565b7f4552433732313a20617070726f76652063616c6c6572206973206e6f7420746f60008201527f6b656e206f776e6572206f7220617070726f76656420666f7220616c6c000000602082015250565b7f455243323938313a20726f79616c7479206665652077696c6c2065786365656460008201527f2073616c65507269636500000000000000000000000000000000000000000000602082015250565b7f68747470733a2f2f737573616e6f6f2e6d7970696e6174612e636c6f75642f6960008201527f7066732f516d506e56634176656367646256356e5379516f516233543175317860208201527f7376724657506d5a79454b325875633354592f00000000000000000000000000604082015250565b7f455243323938313a20696e76616c696420726563656976657200000000000000600082015250565b613dbc8161364c565b8114613dc757600080fd5b50565b613dd38161365e565b8114613dde57600080fd5b50565b613dea8161366a565b8114613df557600080fd5b50565b613e01816136b6565b8114613e0c57600080fd5b50565b613e18816136c0565b8114613e2357600080fd5b5056fea2646970667358221220d57ee48114f5e0ad5e2067208f2ac394cd9da73f15eadffd25d485a6dca5585764736f6c63430008040033",
  "linkReferences": {},
  "deployedLinkReferences": {}
}